:100000000C944C050C9493050C9493050C94930557
:100010000C9493050C9493050C9493050C94930500
:100020000C9493050C9493050C94EE1F0C94C12032
:100030000C94FB160C9493050C9493050C94930567
:100040000C9493050C9493050C9493050C949305D0
:100050000C9493050C945C170C9493050C949305E5
:100060000C9493050C9493050C9493050C949305B0
:100070000C9493050C9493050C9493050C949305A0
:100080000C9493050C9493050C9493050C94930590
:100090000C9493050C9493050C9493050C94930580
:1000A0000C9493050C9493050C94930500000000A8
:1000B0000000000029003A003B003C003D003E00EB
:1000C0003F004C00380025022D0035001E001F00A7
:1000D000200021002200230000002400250026002B
:1000E0002B0014001A0008001500170000002E0253
:1000F000210022002300015104001600070009001E
:100100000A00000000001E001F002000E1001D008A
:1001100000001B000600190005002800370027001A
:100120000000E000E3000000E20002512C000000AB
:1001300000000000000000000100010001000100BB
:1001400001000100010001000100010001000100A7
:100150000100010001000100010001000000010098
:100160000100010001000100520001000100010036
:1001700000000100010001000100010050005100D9
:100180004F0001000100000000000100010001001B
:100190000100010000000100010001000100010058
:1001A0000100010000000100010000000100010049
:1001B00001000000000000000000000000700100CD
:1001C0000100010001000100010001000100010027
:1001D0000100010001000100010001000100010017
:1001E0000000010001000100010001000100010008
:1001F00001000100000001000100010001000100F8
:1002000001000100010001000100000000000100E8
:1002100001000100010001000000010001000100D7
:1002200001000100010001000000010001000000C8
:1002300001000100010000000000000000000000BB
:1002400001000100010001000100010001000100A6
:100250000100010001000100010001000100010096
:100260000100010000000100010001000100010087
:100270000100010001000100000001000100010077
:100280000100010001000100010001000100000067
:100290000000010001000100010001000000010058
:1002A0000100010001000100010001000000010047
:1002B000010000000100010001000000000000003A
:1002C0000000000001000100010001000100010028
:1002D0000100010001000100010001000100010016
:1002E0000100010001000100000001000100010007
:1002F00001000100010001000100010000000100F7
:1003000001000100010001000100010001000100E5
:1003100001000000000001000100010001000100D7
:1003200000000100010001000100010001000100C6
:1003300000000100010000000100010001000000B8
:1003400000000000000000000100010001000100A9
:100350000100010001000100010001000100010095
:100360000100010001000100010001000000010086
:100370000100010001000100010001000100010075
:100380000000010001000100010001000100010066
:100390000100010001000000000001000100010057
:1003A0000100010000000100010001000100010046
:1003B0000100010000000100010000000100010037
:1003C000010000000000000000000000010001002A
:1003D0000100010001000100010001000100010015
:1003E0000100010001000100010001000100010005
:1003F00000000100010001000100010001000100F6
:1004000001000100000001000100010001000100E5
:1004100001000100010001000100000000000100D6
:1004200001000100010001000000010001000100C5
:1004300001000100010001000000010001000000B6
:1004400001000100010000000000000000000000A9
:100450000100010001000100010001000100010094
:100460000100010001000100010001000100010084
:100470000100010000000100010001000100010075
:100480000100010001000100000001000100010065
:100490000100010001000100010001000100000055
:1004A0000000010001000100010001000000010046
:1004B0000100010001000100010001000000010035
:1004C0000100000001000100010000000000000028
:1004D0000000000001000100010001000100010016
:1004E0000100010001000100010001000100010004
:1004F00001000100010001000000010001000100F5
:1005000001000100010001000100010000000100E4
:1005100001000100010001000100010001000100D3
:1005200001000000000001000100010001000100C5
:1005300000000100010001000100010001000100B4
:1005400000000100010000000100010001000000A6
:100550000000000000000000010001000100010097
:100560000100010001000100010001000100010083
:100570000100010001000100010001000000010074
:100580000100010001000100010001000100010063
:100590000000010001000100010001000100010054
:1005A0000100010001000000000001000100010045
:1005B0000100010000000100010001000100010034
:1005C0000100010000000100010000000100010025
:1005D0000100000000000000000000000100010018
:1005E0000100010001000100010001000100010003
:1005F00001000100010001000100010001000100F3
:1006000000000100010001000100010001000100E3
:1006100001000100000001000100010001000100D3
:1006200001000100010001000100000000000100C4
:1006300001000100010001000000010001000100B3
:1006400001000100010001000000010001000000A4
:100650000100010001000000000000000000000097
:100660000100010001000100010001000100010082
:100670000100010001000100010001000100010072
:100680000100010000000100010001000100010063
:100690000100010001000100000001000100010053
:1006A0000100010001000100010001000100000043
:1006B0000000010001000100010001000000010034
:1006C0000100010001000100010001000000010023
:1006D0000100000001000100010000000000000016
:1006E0000000000001000100010001000100010004
:1006F00001000100010001000100010001000100F2
:1007000001000100010001000000010001000100E2
:1007100001000100010001000100010000000100D2
:1007200001000100010001000100010001000100C1
:1007300001000000000001000100010001000100B3
:1007400000000100010001000100010001000100A2
:100750000000010001000000010001000100000094
:100760000000000000000000010001000100010085
:100770000100010001000100010001000100010071
:100780000100010001000100010001000000010062
:100790000100010001000100010001000100010051
:1007A0000000010001000100010001000100010042
:1007B0000100010001000000000001000100010033
:1007C0000100010000000100010001000100010022
:1007D0000100010000000100010000000100010013
:1007E0000100000000000000000000000100010006
:1007F00001000100010001000100010001000100F1
:1008000001000100010001000100010001000100E0
:1008100000000100010001000100010001000100D1
:1008200001000100000001000100010001000100C1
:1008300001000100010001000100000000000100B2
:1008400001000100010001000000010001000100A1
:100850000100010001000100000001000100000092
:100860000100010001000000000000000000000085
:100870000100010001000100010001000100010070
:100880000100010001000100010001000100010060
:100890000100010000000100010001000100010051
:1008A0000100010001000100000001000100010041
:1008B0000100010001000100010001000100000031
:1008C0000000010001000100010001000000010022
:1008D0000100010001000100010001000000010011
:1008E00001000000010001000100000012036B0084
:1008F0006500790062006F00610072006400000012
:10090000160371006D006B006200750069006C00D9
:1009100064006500720000000403090409026D0010
:10092000040100A0FA0904000001030101000921EB
:10093000110100012240000705810308000A090493
:1009400001000103010200092111010001224D00F3
:100950000705820308000A090402000103000000E1
:100960000921110100012236000705830308000A4E
:100970000904030001030000000921110100012204
:100980003900070584032000011201100100000056
:1009900008EDFE606001000102000105010906A1E9
:1009A00001050719E029E715002501950875018162
:1009B0000205081901290595057501910295017532
:1009C0000391010507190029F71500250195F87510
:1009D000018102C005010980A101850216010026DE
:1009E00003001A81002A8300751095018100C0055B
:1009F0000C0901A1018503160100269C021A0100C1
:100A00002A9C02751095018100C005010902A1010F
:100A10000901A10005091901290515002501950500
:100A200075018102950175038101050109300931C4
:100A30001581257F95027508810609381581257F66
:100A4000950175088106050C0A38021581257F95E8
:100A50000175088106C0C005010906A10105071935
:100A6000E029E715002501950875018102950175BA
:100A7000088101050819012905950575019102955F
:100A800001750391010507190029FF150026FF00D4
:100A9000950675088100C00011241FBECFEFDAE073
:100AA000DEBFCDBF04B603FE27C080914B029091FC
:100AB0004C02A0914D02B0914E028730904BA7405E
:100AC000B04BD1F410924B0210924C0210924D0296
:100AD00010924E0214BE84B7877F84BF0FB6F8947D
:100AE000A8958091600088618093600010926000FA
:100AF0000FBEE0E0F8E3099511E0A0E0B1E0ECE51D
:100B0000F8E402C005900D92A833B107D9F722E0AE
:100B1000A8E3B1E001C01D92AB34B207E1F70E9437
:100B2000441D0C9400240C94000090E080E0089593
:100B30000895089581E00895089581E008950C9442
:100B40009A050E944C0F2FEF84E39CE021508040D7
:100B50009040E1F700C000000C947F17EF92FF92E5
:100B60000F931F93CF93DF938C01FC01E080F18002
:100B700080917801811140C082818823C1F1C70131
:100B80000E94D114C82F682FC7010E947A14B701A0
:100B90008C2F0E94E606EC01B8010E949F05882375
:100BA00009F44BC0B801CE010E94EF08882309F474
:100BB00044C0C531F0E7DF0720F5C23080E7D80731
:100BC00008F04DC0C115E0E7DE0791F1C130D04714
:100BD000E1F181E080933A0180933B01C801DF910C
:100BE000CF911F910F91FF90EF900C949D05C7013D
:100BF0000E94A814C82FCBCFC7010E94D114B701FF
:100C0000C8CFCC3380E7D80709F49BC0CD33D04799
:100C100001F7F8018281882309F4BAC010923B01E0
:100C20000E942B17909339018093380180E296C07F
:100C3000F801828181110E94A10580E0DF91CF91AE
:100C40001F910F91FF90EF900895F8018281882302
:100C5000A1F380910B02816080930B02EECFF8012B
:100C60008281882309F4BACF0E948C16811102C0B8
:100C70000E9472160E94A91690E090933D02809304
:100C80003C02FE01E350F04780913C028160E2317A
:100C9000F10538F4EE5FFB4D0C94B02380913C02DB
:100CA000826080933C0280913C020E94AD160E94BB
:100CB0004C0FC3CF80913C028460F3CF80913C0203
:100CC0008860EFCF80913C028061EBCF80913C0245
:100CD0008062E7CF80913C028064E3CF80913C0248
:100CE0008068DFCF80913C028C60DBCF80913C023A
:100CF0008E7FD7CF80913C028D7FD3CF80913C02F5
:100D00008B7FCFCF80913C02877FCBCF80913C02FD
:100D10008F7EC7CF80913C028F7DC3CF80913C02F4
:100D20008F7BBFCF80913C028F77BBCF80913C02FD
:100D3000837FB7CF90913C02892F97FB87F980582A
:100D4000B0CFF8018281882361F010923A010E94AD
:100D50002B17909339018093380182E00E94B10CE7
:100D60006CCF80913A0181110FC080913801909130
:100D700039010E943717883C910530F486E20E94C1
:100D8000860B86E20E94620C82E00E94B80C55CF6E
:100D900080913B0181110FC0809138019091390100
:100DA0000E943717883C910530F487E20E94860B39
:100DB00087E20E94620C80E2E8CF0C943E090C941A
:100DC00040090C949C050C94E1060895972F70E05F
:100DD0002BE0929F600D711D1124FB0192E4899F0D
:100DE000E00DF11D1124EE0FFF1FE455FF4F85911B
:100DF00094910895FC01EE0FFF1FE451F74F859188
:100E0000949108950E94E6060E9473089C01811542
:100E100040E4940708F097C0211580E3380708F0F4
:100E2000FAC0203E310508F074C0203C310508F0BE
:100E3000E5C0283A310588F4253A310508F0E2C0CA
:100E40002130310509F477C0C9010497813A910531
:100E500008F471C030E020E06EC0C901885A9109E1
:100E60004597C0F7283A310509F4FEC0293A310503
:100E700009F4FDC02A3A310509F4FCC02B3A3105CA
:100E800009F4FBC02C3A310509F4FAC02B3B3105BB
:100E900009F4F9C02C3B310509F4F8C02D3A3105AD
:100EA00009F4F7C0203B310509F4F6C02E3A3105AC
:100EB00009F4F5C02F3A310509F4F4C0213B31059E
:100EC00009F4F3C0223B310509F4F2C0233B31059C
:100ED00009F4F1C0243B310509F4F0C0253B31058C
:100EE00009F4EFC0263B310509F4EEC0273B31057C
:100EF00009F4EDC0283B310509F4ECC0293B31056C
:100F000009F4EBC02A3B310509F4EAC020E034E4DF
:100F100012C0211590E2390780F42F3F310509F006
:100F200050F4283E310538F0C901805F91093065E1
:100F3000409708F08FCFC9010895C9019F700E94A2
:100F4000FA069C01F8CF8115944508F041C021159F
:100F500083E5380708F06AC0211592E5390738F5AE
:100F6000211541E5340708F05CC0211580E53807FC
:100F700008F454C0C90134E0969587953A95E1F795
:100F80008370422F46954695437090E2499FA00199
:100F90001124582B822F837021E030E002C0220FF1
:100FA000331F8A95E2F7242B352B3C68C4CFC90147
:100FB0008370992741E050E002C0440F551F8A9585
:100FC000E2F72695269580E2289F90011124EBCF29
:100FD000211596E5390748F4922F882721153545C4
:100FE000C8F59C01246F306AA6CFC90190563F70A6
:100FF0008115904108F02ECF30629DCFC901805CF1
:1010000091099DCF253A310549F1263A310549F537
:1010100022E830E490CF3327306C8DCF3F70306AB8
:101020008ACF322F2227216F306A85CFC901837082
:10103000992741E050E002C0440F551F8A95E2F71E
:101040002695269580E2289F90011124242B352B8C
:101050003A6871CF88279F719C01CECF21E830E498
:101060006ACF23E830E467CF22EE34E464CF29EE80
:1010700034E461CF2AEE34E45ECF25EB34E45BCF79
:1010800026EB34E458CF23EB34E455CF24EB34E49F
:1010900052CF27EB34E44FCF2CEC34E44CCF2DEC83
:1010A00034E449CF23E835E446CF2AE835E443CF9A
:1010B00022E935E440CF24E935E43DCF21E236E4AE
:1010C0003ACF23E236E437CF24E236E434CF25E2C8
:1010D00036E431CF26E236E42ECF27E236E42BCFBA
:1010E0002AE236E428CF803E910581F1C8F48133AD
:1010F000910509F462C048F48932910509F456C09B
:101100008A32910509F460C0089589339105B9F0D8
:1011100082389105A1F08533910509F440C0089506
:10112000863E910561F138F4823E9105B1F0833E2F
:101130009105E1F00895873E910551F108952091C0
:101140003C022370D9F080EE90E0089520913C029B
:1011500020FF14C089E390E0089520913C0222FF13
:101160000DC024FD09C083EE90E0089520913C025B
:1011700022FD31C024FF02C090E080E0089520915C
:101180003C0223FFFBCF24FDF7CF87EE90E00895CC
:1011900020913C0223FFEECF86EE90E0089520914F
:1011A0003C0225FFEBCF89E290E0089520913C02BC
:1011B00025FFE4CF85E390E0089520913C0226FFCF
:1011C000DDCF8AE290E0089520913C0226FFD6CF41
:1011D00081E390E0089582EE90E0089508950F93E2
:1011E0001F93CF938C01FB018281811106C0C1E066
:1011F0008C2FCF911F910F910895C0914901C1117A
:1012000025C00531104799F70E94EE0881E08093D0
:1012100049010E942B179093480180934701109237
:101220003C0110923E0110923D011092400110923B
:101230003F0110924201109241011092440110921C
:1012400043011092460110924501D2CF809147018F
:10125000909148010E943717883C910540F6809193
:101260003C01E82FF0E0EE0FFF1FE35CFE4F11831F
:1012700000838F5F80933C01C0E0BACF0C94980547
:101280000C94990585B7806885BF85B7806885BF50
:10129000AEE1B1E061E070E08D91E82FE295EF7092
:1012A000F0E041A18F709B0101C0220F8A95EAF7FF
:1012B000922F9095942391A382A1822B82A381E007
:1012C000A432B80749F7A3E1B1E061E070E08D9185
:1012D000E82FE295EF70F0E041A18F709B0101C013
:1012E000220F8A95EAF7922F9095942391A382A1D9
:1012F000822B82A381E0AE31B80749F7E6E5F1E041
:10130000AAE4B1E082E691E0119211921D921D9241
:101310008E179F07C9F70C94DD062F923F924F92CC
:101320005F926F927F928F929F92AF92BF92CF9275
:10133000DF92EF92FF920F931F93CF93DF930AE414
:1013400011E08EE1C82E81E0D82E1801EE24E3943E
:10135000F12C66246394D1018D909D901D011E9205
:101360001E92E60189916E01E82FE295EF70F0E0A0
:1013700091A18F70970101C0220F8A95EAF7892FFA
:10138000822B81A382A1722E7094872182A3D0EA3E
:10139000DA95F1F763E171E090E080E0EB015990BC
:1013A000BE01452D42954F7050E0EA0148A0AD9036
:1013B000BC901197552D5F70E70102C0CC0FDD1F67
:1013C0005A95E2F7AE01442109F059C0A701082E51
:1013D00002C0440F551F0A94E2F74A295B2911966F
:1013E0005C934E9301968B309105C1F681A17822D2
:1013F00071A282A1282B22A38D919C918816990617
:1014000041F0609262010E942B17909364018093D7
:101410006301D6E52D16D1E03D0609F09CCF809101
:1014200062018823B1F080916301909164010E9470
:101430003717069770F0E6E5F1E0D8018D919D91A0
:101440008D0181939193B1E006351B07B1F710929E
:1014500062010E94DF0681E0DF91CF911F910F9121
:10146000FF90EF90DF90CF90BF90AF909F908F90C4
:101470007F906F905F904F903F902F90089550E035
:1014800040E0ABCFE82FF0E0EE0FFF1FEA5AFE4F2F
:10149000808191810895089590936A0180936901F4
:1014A0000895E0916901F0916A01309721F001906F
:1014B000F081E02D099480E00895E0916901F091B8
:1014C0006A01309721F00280F381E02D099408959C
:1014D000E0916901F0916A01309721F00480F58173
:1014E000E02D099408952091670130916801281733
:1014F000390771F09093680180936701E091690169
:10150000F0916A01309721F00680F781E02D09946F
:10151000089520916501309166012817390771F00F
:101520009093660180936501E0916901F0916A01F1
:10153000309721F00084F185E02D099408950895F5
:101540000C949F0A0E9422170E9442090C94EC17E7
:101550005F926F927F928F929F92AF92BF92CF9243
:10156000DF92EF92FF920F931F93CF93DF9300D000
:1015700000D00F92CDB7DEB70E948D099CE6A92E50
:1015800091E0B92E10E000E088248394912C502E35
:10159000802F0E94420A7C01F501C190D1905F0129
:1015A000C816D90609F45DC080910B0281FD0E9426
:1015B0004B0A90E080E0CE24DF243401082E02C0E4
:1015C000660C771C0A94E2F7960126213721232B1B
:1015D00009F442C089835A82E620F72081E0EF288F
:1015E00009F480E08B830E942B178160782F9D8304
:1015F0008C8349815A816B818D810E945D0B000F24
:10160000111FF801E459FE4F8081918168267926E7
:10161000718260820E94991A0E94510A90916B0116
:101620008917B1F10E94510A80936B010F900F90BE
:101630000F900F900F90DF91CF911F910F91FF901E
:10164000EF90DF90CF90BF90AF909F908F907F9062
:101650006F905F900C94E30601968B30910509F032
:10166000ACCF0F5F1F4F0630110509F090CF8FEF01
:1016700089838A831B820E942B178160782F9D8328
:101680008C8349815A816B818D810E945D0BC2CF11
:101690000F900F900F900F900F90DF91CF911F91AF
:1016A0000F91FF90EF90DF90CF90BF90AF909F9001
:1016B0008F907F906F905F900895CF93DF93CDB719
:1016C000DEB72B970FB6F894DEBF0FBECDBF4F83AA
:1016D000588769877A878B871E8285E0FE01379657
:1016E000DE01119601900D928A95E1F749815A81A8
:1016F0006B817C818D819E812B960FB6F894DEBF25
:101700000FBECDBFDF91CF910C94D411882309F483
:10171000D8C0823871F40E94510A81FDD2C089E399
:101720000E9479150E94431689E30E94B6150C9415
:101730004316833859F40E94510A80FDC2C083E5E4
:101740000E9479150E94431683E5EFCF843859F43F
:101750000E94510A82FDB5C087E40E9479150E945B
:10176000431687E4E2CF9CEF980F913A18F40E9459
:101770007915DDCF90E2980F983050F4877091E0A2
:1017800001C0990F8A95EAF7892F0E94FA15CFCFE9
:101790009BE5980F933070F4853A31F0863A39F032
:1017A00083E890E00C94730A81E890E0FBCF82E834
:1017B00090E0F8CF98E5980F953108F082C0883A0C
:1017C00009F440C0893A09F440C08A3A09F440C09B
:1017D0008B3A09F440C08C3A09F440C08B3B09F4C1
:1017E00040C08C3B09F440C08D3A09F440C0803BB6
:1017F00009F440C08E3A09F440C08F3A09F440C061
:10180000813B09F440C0823B09F440C0833B09F4AA
:1018100040C0843B09F440C0853B09F440C0863B8E
:1018200009F440C0873B09F440C0883B09F440C03C
:10183000893B09F440C08A3B09F440C090E080E055
:101840000C94890A82EE90E0FBCF89EE90E0F8CF0D
:101850008AEE90E0F5CF85EB90E0F2CF86EB90E05A
:10186000EFCF83EB90E0ECCF84EB90E0E9CF87EB18
:1018700090E0E6CF8CEC90E0E3CF8DEC90E0E0CF11
:1018800083E891E0DDCF8AE891E0DACF82E991E068
:10189000D7CF84E991E0D4CF81E292E0D1CF83E247
:1018A00092E0CECF84E292E0CBCF85E292E0C8CF47
:1018B00086E292E0C5CF87E292E0C2CF8AE292E070
:1018C000BFCF0895882309F44BC0823871F40E9479
:1018D000510A81FF45C089E30E9479150E94431691
:1018E00089E30E94B6150C944316833859F40E947C
:1018F000510A80FF35C083E50E9479150E94431686
:1019000083E5EFCF843859F40E94510A82FF28C042
:1019100087E40E9479150E94431687E4E2CF9CEF8A
:10192000980F913AF0F290E2980F983050F4877047
:1019300091E001C0990F8A95EAF7892F0E9400165D
:10194000D2CF9BE5980F933020F490E080E00C9488
:10195000730A885A853120F490E080E00C94890A5B
:101960000895882321F00E94FA150C9443160895D7
:10197000882321F00E9400160C94431608958F923C
:101980009F92AF92BF92DF92EF92FF920F931F93BD
:10199000CF93DF9300D000D00F92CDB7DEB77C019C
:1019A0006D837983FC01058102950F7012811111FD
:1019B0000E9419160E947215D82E882371F01123E7
:1019C000A1F08D81805E883080F082E00E945C15FD
:1019D0000E94721591E0D82ED926E981E295EF7028
:1019E000F0E0EC5EFB4D0C94B023D12CF6CF0981D6
:1019F0000F70F981F07F11F00295007F1123B1F093
:101A0000002361F08D81805E883018F02D812111D6
:101A100009C0802F0E94FA150E9443168D810E94F2
:101A2000860B15C0802F0E940B16F6CF8D810E9469
:101A3000620C002361F08D81805E883018F03D815A
:101A4000311129C0802F0E9400160E944316DD200C
:101A500009F4D3C10E944F1580FDCFC1F701128256
:101A60000E9449150E949213C7010E940E0F0E9406
:101A700049150F900F900F900F900F90DF91CF911D
:101A80001F910F91FF90EF90DF90BF90AF909F90CC
:101A90008F900C94B413802F0E941116D6CF4981D9
:101AA0004F70B42E5981507F503219F0B29480EFAC
:101AB000B8228D81882369F0813029F1112369F1E1
:101AC000002359F0F701858180FFA8CF8F708583AF
:101AD00004C0112361F0011104C08B2D0E94B10CD0
:101AE000B6CF8B2D0130D1F70E942D16B0CF01114A
:101AF00006C00E9430168B2D0E94B80CA8CF013072
:101B000009F4A5CFF6CF112321F0063008F09FCFBE
:101B1000E4CF053008F09BCFEECF002361F38D8139
:101B20000E94620C94CF898186958695837069F0B6
:101B3000813009F08CCF8D8199819370111102C091
:101B400090E080E00E94890A82CF8D819981937014
:101B5000111102C090E080E00E94730A78CF8D815D
:101B6000112329F00E94A7190E948E1A70CF0E949B
:101B70000F1AFACF8981837009F05FC0111167CF06
:101B80002D81229526952770220F220F8D818F702F
:101B900090E0B0E0A0E04C015D01022E04C0880C92
:101BA000991CAA1CBB1C0A94D2F7FD8160E070E06E
:101BB000CB01F4FF0FC06FE070E080E090E004C064
:101BC000660F771F881F991F2A95D2F76095709529
:101BD0008095909529812695269523702D83223016
:101BE000B1F0233019F19B01AC01282939294A2988
:101BF0005B2929833A834B835C833D8169817A81A8
:101C00008B819C813130B1F00E941F1320CF9B014A
:101C1000AC01282939294A295B2929833A834B8336
:101C20005C83CA01B9010E94491311CF0E941F139E
:101C3000C501B4010E94F5120ACF8695112311F057
:101C400089818170882309F402CF2D812295269500
:101C50002770220F220F8D818F7090E0B0E0A0E0FE
:101C60004C015D01022E04C0880C991CAA1CBB1CEF
:101C70000A94D2F73D8160E070E0CB0134FF0FC0E1
:101C80006FE070E080E090E004C0660F771F881F6F
:101C9000991F2A95D2F76095709580959095498106
:101CA0004695469543704D834230B1F0433019F16B
:101CB0009B01AC01282939294A295B2929833A83C8
:101CC0004B835C833D8169817A818B819C8131303A
:101CD000B1F00E942514BBCE9B01AC012829392903
:101CE0004A295B2929833A834B835C83CA01B90162
:101CF0000E944F14ACCE0E942514C501B4010E946D
:101D0000FB13A5CE3D81323F09F447C080F4303F3C
:101D100079F1313FD9F1832F805E8031D0F01123EA
:101D200009F456C001117ACE89818F7133C04D817B
:101D3000433FD1F1443F99F7112309F43FC0898112
:101D40008F7189830E94921363E089810E945315E9
:101D50007ECE5D815F705D8389818F71112321F05B
:101D60000E9492138D81BACE0E94B4138D81C4CE8D
:101D7000112341F0053008F06ACE89818F710E94ED
:101D8000D91365CE063008F062CEF7CF89818F7106
:101D9000112339F00E9492135ACE89818F71112339
:101DA000C9F30E94B41353CE112329F089818F7196
:101DB0000E947D134CCE0E94731349CE81E00E9495
:101DC0005C15023008F443CE82E00E945C153FCEE1
:101DD0000111A5CE89818F71E4CF49814F706D814A
:101DE000C7010E9495050E946E1231CE49814F7045
:101DF0006D81C7010E94E5062ACE0F900F900F90CB
:101E00000F900F90DF91CF911F910F91FF90EF9066
:101E1000DF90BF90AF909F908F9008950F931F9386
:101E2000CF93DF93EC018B819C81892B29F08881F2
:101E3000998189238F3F29F4DF91CF911F910F91D1
:101E40000895CE010E94AE058823B1F3688179819F
:101E50008A810E941F158C010E9479140E94EA1247
:101E6000B801CE01DF91CF911F910F910C94BF0C5F
:101E70000E9419160E942A160E94EC150E94431611
:101E80000E947F1B0E948E1A90E080E00E94730ADD
:101E900090E080E00C94890A0E9408160C94380F98
:101EA0000E941315282F892F82958F70903C80F403
:101EB0008A30B0F4843020F4823090F480E00895C9
:101EC0008630E1F781E0203E88F0213FB9F70EC06F
:101ED0008C3011F08F3091F793FB882780F90895AB
:101EE00081E0203F39F018F4203E40F70895243F68
:101EF00029F7FCCF0895CF93DF9300D000D00F9245
:101F0000CDB7DEB70F900F900F900F900F90DF912D
:101F1000CF910895CF93DF9300D000D000D0CDB7FC
:101F2000DEB726960FB6F894DEBF0FBECDBFDF91A9
:101F3000CF9108951F93CF93DF93E091790116E03D
:101F400080917A018E1304C0DF91CF911F91089583
:101F5000CE2FD0E01E9FF0011124E558FE4F4081A6
:101F6000518162817381848195810E948A0FFE0173
:101F70003196E770E5CF4091AB015091AC01609193
:101F8000AD017091AE018091AF019091B0010C94C0
:101F90008A0F1F93CF93DF938091B001807FC1F4AC
:101FA0008091AD018823A1F080917901C0917A01DF
:101FB0006091AB017091AC014091AE015091AF01C5
:101FC000D62FD723DA01A095B09516E0C81304C028
:101FD000DF91CF911F91089590E04115510511F0C7
:101FE000DF3F31F401968770F1CF2A0F3B1F17C0F6
:101FF000189FF001199FF00D1124E558FE4F218123
:102000002713F0CF20812613EDCF22812111EACFB3
:10201000238134812417350740F3241B350B283CDA
:10202000310500F72091B0012F7020612093B0019D
:1020300026E0289FF001299FF00D1124E058FE4F63
:1020400080818F70806180838BEA91E00E940E0F07
:10205000DF91CF911F910C949A0F9F92AF92BF92F4
:10206000CF92DF92EF92FF920F931F93CF93DF9364
:10207000CDB7DEB72B970FB6F894DEBF0FBECDBF3E
:102080008C0185E0F801DE01179601900D928A958A
:10209000E1F7D8014C9111965C9111971296EC9052
:1020A00012978091AE019091AF01009709F46BC136
:1020B0002091AB013091AC01632F62236F3F09F493
:1020C00062C11396CD90DC909090AD01992009F4F7
:1020D000F8C0C816D90608F43FC0F601E81BF90B92
:1020E000CF01FF24F394883C910508F0F12C8BEA92
:1020F000A82E81E0B82E8091B001982F907FFF200C
:1021000009F4B7C0911180C0FE2C35132AC02413E6
:1021100028C0E11026C08F7080618093B0010E94BA
:10212000BB0FC5010E940E0F8091B001D80115961A
:102130008C938F2D2B960FB6F894DEBF0FBECDBFBC
:10214000DF91CF911F910F91FF90EF90DF90CF9093
:10215000BF90AF909F900895809590958C0D9D1D98
:10216000C0CFCD2829F0842F85238F3F09F019C1D6
:1021700080E0B82FB170DB2EE091790120917A01D7
:1021800036E080FD1CC0EE20A1F28091B00181609C
:102190008093B001F12CCDCF8E2F90E03E9FF001C7
:1021A0001124E558FE4F6181651306C060816413F8
:1021B00003C062816E11E7CFFC013196E770E21334
:1021C000EBCF4F8358878F8198850E941315292F55
:1021D00022952F70903260F0225F2F70223078F4B9
:1021E0009F7051F0F8019581907F31F4D12C0AC095
:1021F0009F7011F08823D1F3805E8830B8F3C80156
:102200000E940E0FFD2C95CF351306C0241304C079
:10221000D801EE2009F47BC04F8358878F819885C1
:102220000E94500F882309F4B8C0EE2009F4B5C00D
:102230008091B001803270F02091AB013091AC01FF
:102240003A8329831B82DD82CC828E83CE01019664
:102250000E940E0F86E0F801ABEAB1E001900D920A
:102260008A95E1F70E94C90F0E94BB0FFF24F394E7
:1022700060CF911113C07C2DDB86CA866E2D8B85B5
:102280000E947B0F8BEA91E00E940E0F86E0F50121
:1022900011928A95E9F70E94BB0F4BCF3513BCCF43
:1022A0002413BACFE110B8CFD80115968C93C8018A
:1022B0000E940E0F86E0F50111928A95E9F7F92C3C
:1022C00038CFC816D90688F1B601681B790BCB0147
:1022D000F12C883C910508F047C0FE2CEE2009F453
:1022E0005CC0351330C024132EC08091B00180FD36
:1022F00021C0982F907FF1F0D80115968C931597F7
:10230000903F39F0982F907F905F8F70892B1596B2
:102310008C93C8010E940E0F86E0F801ABEAB1E091
:1023200001900D928A95E1F7B6CF809590958C0D2E
:102330009D1DCECF86E0F801ABEAB1E001900D9291
:102340008A95E1F7F6CE4F8358878F8198850E9452
:10235000500F81117FCF8091B00181608093B001D7
:10236000C8010E940E0FE5CE7C2DDB86CA866E2D3D
:102370008B850E947B0F86E0EBEAF1E0DF011D9286
:102380008A95E9F788CFEE2041F04F8358878F81F7
:1023900098850E94500F81115DCFC8010E940E0FD9
:1023A00065CF81E08E25E5CE1F93CF93DF93CDB728
:1023B000DEB72C970FB6F894DEBF0FBECDBF4F83AC
:1023C000588769877A878B879C87CE0107960E94FA
:1023D0002D10882369F08A859B85892B39F04F81E0
:1023E0005885842F85238F3F09F071C016E05FC0A8
:1023F00086E0FE013796DE01119601900D928A95D6
:10240000E1F78A859B85892B89F388859F818923BC
:102410008F3F61F320917A0130E0C9010196877006
:102420009927409179014817190671F40E944C0FC1
:1024300010927A011092790186E0EBEAF1E0DF0177
:102440001D928A95E9F7D2CF96E0929FD001939F93
:10245000B00D1124A558BE4FFE01319601900D928A
:102460009A95E1F780937A010E949A0FBFCF819FDE
:10247000C001112485589E4F0E942D108823E9F039
:10248000E09179011E9FF0011124E558FE4F408133
:10249000518162817381848195810E948A0F80912C
:1024A000790190E001968770992780937901809156
:1024B000790190917A018913DACF2C960FB6F894AE
:1024C000DEBF0FBECDBFDF91CF911F91089569850B
:1024D0007A858B859C850E948A0F88CFEF92FF9228
:1024E0000F931F93CF93DF938C01892B89F0F12CED
:1024F000EE24E394E8012196F8018491843709F4ED
:1025000057C0A0F4823009F43EC048F48130D1F0C5
:10251000DF91CF911F910F91FF90EF9008959CEF65
:10252000980F9037A8F70E94860B0AC0853709F4E8
:102530004CC09CE7980F903758F78F770E94620C39
:102540008E0116C00E5F1F4FFE01849190E2980F1E
:10255000983060F48770FE2D01C0FF0F8A95EAF76E
:102560008F2F0E941C160E94431602C00E94860BE9
:102570008F2D815008F4BECFEFE9FFE03197F1F7DE
:1025800000C00000F6CF0E5F1F4FFE01849190E265
:10259000980F983050F48770FE2D01C0FF0F8A9578
:1025A000EAF78F2F0E942216DECF0E94620CE0CF46
:1025B0000E5F1F4FFE01C491C150D0F28FE99FE022
:1025C0000197F1F700C00000F7CF0E5F1F4FFE012B
:1025D000F490CECF08956093E2017093E30180936D
:1025E000E4019093E5010C94380FCF93DF9300D072
:1025F00000D0CDB7DEB769837A838B839C838091CB
:10260000E2019091E301A091E401B091E5012981FB
:102610003A814B815C81822B932BA42BB52B809329
:10262000E2019093E301A093E401B093E5010F90E0
:102630000F900F900F90DF91CF910C94380FCF93A4
:10264000DF9300D000D0CDB7DEB769837A838B8368
:102650009C838091E2019091E301A091E401B0910B
:10266000E50129813A814B815C8182239323A42354
:10267000B5238093E2019093E301A093E401B0932A
:10268000E5010F900F900F900F90DF91CF910C9478
:10269000380FCF93DF9300D000D0CDB7DEB769837A
:1026A0007A838B839C838091E2019091E301A091D6
:1026B000E401B091E50129813A814B815C81822757
:1026C0009327A427B5278093E2019093E301A09379
:1026D000E401B093E5010F900F900F900F90DF9100
:1026E000CF910C94380F1092DE011092DF011092FE
:1026F000E0011092E1010C94380F41E050E060E0FD
:1027000070E004C0440F551F661F771F8A95D2F7EB
:102710004093DE015093DF016093E0017093E1018B
:102720000C94380F282F81E090E0A0E0B0E004C0C6
:10273000880F991FAA1FBB1F2A95D2F74091DE016F
:102740005091DF016091E0017091E101842B952BA4
:10275000A62BB72B8093DE019093DF01A093E001BD
:10276000B093E1010C94380F41E050E060E070E07C
:1027700004C0440F551F661F771F8A95D2F74095F6
:102780005095609570958091DE019091DF01A09148
:10279000E001B091E10184239523A623B723809320
:1027A000DE019093DF01A093E001B093E1010C946E
:1027B000380F282F81E090E0A0E0B0E004C0880F3F
:1027C000991FAA1FBB1F2A95D2F74091DE01509195
:1027D000DF016091E0017091E10184279527A62730
:1027E000B7278093DE019093DF01A093E001B093BF
:1027F000E1010C94380FCF93DF9300D000D0CDB718
:10280000DEB769837A838B839C838091DE0190910C
:10281000DF01A091E001B091E10129813A814B8172
:102820005C81822B932BA42BB52B8093DE0190939C
:10283000DF01A093E001B093E1010F900F900F90A2
:102840000F90DF91CF910C94380FCF93DF9300D08E
:1028500000D0CDB7DEB769837A838B839C83809168
:10286000DE019091DF01A091E001B091E1012981A9
:102870003A814B815C8182239323A423B5238093E7
:10288000DE019093DF01A093E001B093E1010F908E
:102890000F900F900F90DF91CF910C94380FCF9342
:1028A000DF9300D000D0CDB7DEB769837A838B8306
:1028B0009C838091DE019091DF01A091E001B091B5
:1028C000E10129813A814B815C8182279327A427EA
:1028D000B5278093DE019093DF01A093E001B093D0
:1028E000E1010F900F900F900F90DF91CF910C941A
:1028F000380F0895E82F2BE0929FE00D11248E2FC2
:10290000877041E001C0440F8A95EAF7E695E695A5
:10291000E69585E0E89FF0011124EF54FE4F30E08A
:1029200020E070E05191DF011197CB01022E02C02F
:10293000969587950A94E2F781708195852784237F
:1029400085278C932F5F3F4F2530310559F7089528
:10295000E82F2BE0929FE00D11249E2F9770E695B3
:10296000E695E69585E0E89FF0011124EF54FE4FCF
:1029700050E040E080E0219130E0092E02C0369521
:1029800027950A94E2F721703327042E01C0220F05
:102990000A94EAF7822B4F5F5F4F4530510559F794
:1029A0000895BF92CF92DF92EF92FF920F931F9301
:1029B000CF93DF938C01C090DE01D090DF01E090D7
:1029C000E001F090E1018091E2019091E301A0919A
:1029D000E401B091E501C82AD92AEA2AFB2ACFE10D
:1029E000D0E0BC2ED701C6010C2E04C0B695A79529
:1029F000979587950A94D2F780FD0EC0219788F7A6
:102A0000B12C8B2DDF91CF911F910F91FF90EF9003
:102A1000DF90CF90BF900895B8018C2F0E940207DD
:102A2000019761F3EECFCF93DF93D82FC92F0E9488
:102A3000D1146D2F7C2FDF91CF910C9402071F933F
:102A4000CF93DF93162FD72F90917801992339F0E8
:102A5000862F972FDF91CF911F910C941315882308
:102A600091F0862F972F0E94D114C82F682F812FA5
:102A70009D2F0E947A14612F7D2F8C2FDF91CF9193
:102A80001F910C940207862F972F0E94A814C82F1D
:102A9000F2CF8091E6018595859585950895809181
:102AA000E6018770089598E0899F90011124622BB8
:102AB0006093E6010C9492139091E601809589232E
:102AC0008093E601282F277061F4282F082E000C30
:102AD000330B9217130629F08595859585950C94EF
:102AE000B41308959091E601977081E009F480E0B5
:102AF0000895909112019923E1F090913C0297FF83
:102B000018C0E82FE695E695E695EF3139F120916A
:102B1000000130910101E20FF32FF11D877021E0D8
:102B200030E001C0220F8A95EAF78181822B8183F0
:102B300008952091000130910101F90132969FEF33
:102B400040E05191851751F09F3F19F4511101C098
:102B5000942F4F5F4E31A9F79F3F09F40895290F35
:102B6000311D97FD3A95F9018283089590911201E4
:102B7000992301F190913C0297FF1CC0E82FE69544
:102B8000E695E695EF3139F1209100013091010190
:102B9000E20FF32FF11D877021E030E0A90102C0A0
:102BA000440F551F8A95E2F7CA01809591818923C8
:102BB000818308952091000130910101F90132963D
:102BC000205E3F4F9191891303C0DF0111971C9242
:102BD000E217F307B9F7089581E090E0E091000172
:102BE000F0910101E80FF91F1082019680329105E2
:102BF000A9F7089590910A02982B90930A020895DC
:102C0000982F909580910A02892380930A02089553
:102C100010920A02089590910902982B909309024C
:102C20000895982F90958091090289238093090235
:102C3000089510920902089590910802982B90939C
:102C400008020895982F9095809108028923809317
:102C5000080208951092080208958093E7010895EC
:102C60001092E70108952091000130910101F901CE
:102C70003196205E3F4F80E0919191118F5FE21776
:102C8000F307D1F70895E0910001F09101018091DF
:102C90000A028083E0910001F0910101808190910E
:102CA0000902892B8083E0910001F091010180816C
:102CB00090910802892B80839091E701992361F01C
:102CC000E0910001F09101018081892B80830E94B5
:102CD000331681111092E70180910001909101015A
:102CE0000C945D0A6DEE7EEF90E080E00E94EA2396
:102CF00060E082E090E00E94D82360E083E090E012
:102D00000E94D82360E084E090E00E94D82360E035
:102D100085E090E00C94D82390E080E00E94D223DC
:102D20009C0181E02D3E3E4F09F080E0089582E055
:102D300090E00C94CA23682F82E090E00C94D82392
:102D400083E090E00C94CA23682F83E090E00C9419
:102D5000D82384E090E00C94CA23682F84E090E0AC
:102D60000C94D82380914202843039F110920C02E5
:102D700088E190E020E40FB6F894A8958093600075
:102D80000FBE2093600080E00E94E30683B7817F3E
:102D9000846083BF83B7816083BF7894889583B74D
:102DA0008E7F83BF0FB6F894A895809160008861EC
:102DB00080936000109260000FBE089508950895FA
:102DC000CF930E94DE160E948D090E94DF16C0E09C
:102DD0008C2F0E94420A892B31F4CF5FC630C1F795
:102DE00080E0CF91089581E0FCCF0E944C0F0E94BB
:102DF000510A0C94E3061F921FB61F9211248F9361
:102E00009F93AF93BF9380910C02811113C0809167
:102E1000380290913902A0913A02B0913B0241965A
:102E2000A11DB11D8093380290933902A0933A02FC
:102E3000B0933B02BF91AF919F918F911F901FBEA6
:102E40001F90189582E084BD93E095BD9AEF97BDE1
:102E500080936E0008952FB7F89480913802909176
:102E60003902A0913A02B0913B022FBF0895CF9250
:102E7000DF92EF92FF929C014FB7F8948091380255
:102E800090913902A0913A02B0913B024FBF6C0180
:102E90007D01EE24FF24A90170E060E0C416D50690
:102EA000E606F70638F0821B930BFF90EF90DF9059
:102EB000CF9008950197F7CF1F921FB61F9211244C
:102EC0008F939F93AF93BF93809138029091390273
:102ED000A0913A02B0913B020196A11DB11D8093D1
:102EE000380290933902A0933A02B0933B02BF910B
:102EF000AF919F918F911F901FBE1F9018950E94B8
:102F0000731FF8942FEF87EA91E62150804090409C
:102F1000E1F700C0000087E090EBDC0180934B02FA
:102F200090934C02A0934D02B0934E0288E19CE036
:102F30000FB6F894A895809360000FBE9093600040
:102F4000FFCFAF92BF92CF92DF92EF92FF920F939B
:102F50001F93CF93C0E0AA24A394B12CE82EF12CA8
:102F60008C2F0E94420A6C0110E000E0C501002E87
:102F700002C0880F991F0A94E2F78C219D21892BAA
:102F800099F0602F7C2F80E00E94E606E816F90693
:102F900059F481E0CF911F910F91FF90EF90DF9056
:102FA000CF90BF90AF9008950F5F1F4F0B3011056A
:102FB000E9F6CF5FC630A1F680E0ECCFCF93C82F03
:102FC0008CE20E94A117882321F08C2FCF910C94C2
:102FD000A11780E0CF910895CF93DF9300D000D068
:102FE000CDB7DEB70E948C16811102C00E94721606
:102FF00095E6998308C00E948D098FE39CE90197AB
:10300000F1F700C00000A981A150A983A111F3CF5D
:1030100089E20E94DE17811110C18AE20E94DE1748
:1030200081110E94721685E00E94DE1781110E94B4
:103030007F170E94971680930B0287E00E94DE178D
:10304000882371F08BE10E94DE17882309F4D1C038
:1030500090910B02892F8D7F91FF826080930B02EC
:1030600080910B020E949B160E94A91690E09093FB
:103070003D0280933C0280EE0E94DE17882341F0DF
:1030800090913C02892F8E7F90FF816080933C025B
:1030900089E30E94DE17882341F090913C02892F3A
:1030A0008D7F91FF826080933C0282EE0E94DE174A
:1030B000882341F090913C02892F8B7F92FF84609E
:1030C00080933C0286EE0E94DE17882341F09091A7
:1030D0003C02892F877F93FF886080933C0283EEB8
:1030E0000E94DE17882341F090913C02892F8F7E49
:1030F00094FF806180933C0285E30E94DE17882361
:1031000041F090913C02892F8F7D95FF80628093E2
:103110003C0281E30E94DE17882341F090913C023B
:10312000892F8F7B96FF806480933C0281E10E940F
:10313000DE17882341F090913C02892F97FB87F995
:10314000805880933C0280913C020E94AD1687E239
:103150000E94DE1789838EE10E94DE17882319F012
:10316000B981B260B9838FE10E94DE17882319F01C
:1031700029812460298380E20E94DE17882319F0C8
:1031800039813860398381E20E94DE17882319F083
:1031900049814061498382E20E94DE17882319F049
:1031A00059815062598383E20E94DE17882319F007
:1031B00089818064898384E20E94DE178823B1F1CB
:1031C00099819068998389810E94A4163981232F5F
:1031D00030E050E040E029833A834B835C83CA01AE
:1031E000B9010F900F900F900F90DF91CF910C9439
:1031F000EB128EE00E94DE17882339F090910B02CB
:10320000892F8B7F92FF846029CF80E10E94DE1797
:1032100090910B02882329F0892F877F93FF886084
:103220001DCF892F8E7F90FF816018CFA981A111BA
:10323000CACF0E94A016282FCBCF0F900F900F90CF
:103240000F90DF91CF91089580910F0280FF12C0FF
:103250006091050185E0689FB0011124759567951F
:103260007595679560387105A8F561157105A1F12F
:10327000862F089581FF09C06091050185E0689F50
:10328000B001112475956795EDCF6091050182FD20
:103290000AC0809110028823D1F0909104016091BE
:1032A0000501891728F085E0689FB0011124DACF65
:1032B000869FB001112485E0869F9001879F300D85
:1032C0001124692F70E0C9010E949C23CBCF65E0D7
:1032D00070E0CECF8FE7089581E0089580910F02CE
:1032E00080FF0CC06091030170E07595679575953E
:1032F00067956115710549F1862F089581FF06C014
:103300006091030170E075956795F3CF60910301BB
:1033100082FD0BC0909110029923A1F060910201EF
:1033200080910301961738F0682F70E060387105BE
:1033300000F38FE70895899FC001112470E00E9477
:103340009C23F4CF61E070E0D7CF81E00895803F07
:1033500031F40E9424198195809313020895813FCE
:1033600019F40E942419F8CF823F31F40E942419E5
:103370008195809312020895833F19F40E942419C5
:10338000F8CF893F29F40E946E19809314020895A2
:103390008A3F21F40E946E198195F7CF8B3F31F45B
:1033A0000E946E1981958093150208958C3F19F43F
:1033B0000E946E19F8CF843F31F480911102816030
:1033C000809311020895853F21F48091110282605B
:1033D000F7CF863F21F4809111028460F1CF873FBF
:1033E00021F4809111028860EBCF883F21F4809115
:1033F00011028061E5CF8D3F31F480910F02816031
:1034000080930F0208958E3F21F480910F02826015
:10341000F7CF8F3FB9F780910F028460F1CF909181
:103420001202803F41F48091130287FD1092130233
:10343000992371F00895813F29F4809113021816A1
:10344000ACF3F6CF823F81F497FFF2CF10921202D5
:103450008091130290911402892B90911502892B6F
:1034600049F7109210020895833F19F4191674F366
:10347000DFCF893F39F4809114021816CCF61092F0
:103480001402D6CF8A3F29F48091140287FFD0CF4F
:10349000F6CF8B3F39F48091150287FFC9CF109288
:1034A0001502C6CF8C3F29F4809115021816BCF383
:1034B000BFCF843F31F4809111028E7F809311023F
:1034C000B7CF853F21F4809111028D7FF7CF863FE2
:1034D00021F4809111028B7FF1CF873F21F48091FD
:1034E0001102877FEBCF883F21F4809111028F7EFC
:1034F000E5CF8D3F31F480910F028E7F80930F02D4
:1035000097CF8E3F21F480910F028D7FF7CF8F3FB1
:1035100009F08ECF80910F028B7FF0CF81E192E096
:103520000E94680A0E942B1790930E0280930D024E
:1035300008951F93CF93DF9300D000D000D0CDB774
:10354000DEB780910D0290910E020E943717AC01F8
:10355000809110022091060130E0811106C0209177
:1035600007019AE0299F900111244217530788F020
:1035700020911202A0911302A98310911402B0911C
:103580001502BE8321110FC09A2F912B9B2B09F09E
:10359000B2C026960FB6F894DEBF0FBECDBFDF9146
:1035A000CF911F9108958F3F19F08F5F8093100284
:1035B000121624F40E9424198093120280911202A0
:1035C00087FF05C00E9424198195809312022981EA
:1035D000121624F40E94241980931302809113027E
:1035E00087FF05C00E942419819580931302809162
:1035F0001202882309F455C0309113023D8333230E
:1036000009F44FC0282F880F330B440B550B298327
:103610003A834B835C83CA01B9010E94A32223E34E
:1036200033E343E35FE369837A838B839C8369811C
:103630007A818B819C810E94072369837A838B83A3
:103640009C8369817A818B819C810E946B2260932B
:1036500012028D81082E000C990BAA0BBB0B8983DB
:103660009A83AB83BC83BC01CD010E94A32223E3D8
:1036700033E343E35FE369837A838B839C836981CC
:103680007A818B819C810E94072369837A838B8353
:103690009C8369817A818B819C810E946B226093DB
:1036A0001302111624F40E946E1980931402809163
:1036B000140287FF05C00E946E1981958093140241
:1036C0009E81191624F40E946E1980931502809130
:1036D000150287FF05C00E946E198195809315021F
:1036E00026960FB6F894DEBF0FBECDBFDF91CF9107
:1036F0001F910C948E1A8F3F09F057CF68CF85E049
:10370000E1E1F2E0DF011D928A95E9F710921002E3
:1037100010920F020895809136020895CF93DF939F
:1037200000D00F92CDB7DEB720914202243019F5B8
:1037300023E029838A839B832093E9008FEF909174
:10374000E800815095FD06C095ED9A95F1F70000CF
:103750008111F5CF8091E80085FF0DC050E040E079
:1037600063E070E0CE0101960E94EB1D8091E800BD
:103770008E778093E8000F900F900F90DF91CF919C
:103780000895CF93DF9300D00F92CDB7DEB79C01A1
:1037900080914202843031F582E0898320583109DA
:1037A0003B832A8383E08093E9008FEF9091E800C8
:1037B000815095FD06C095ED9A95F1F700008111B5
:1037C000F5CF8091E80085FF0DC050E040E063E058
:1037D00070E0CE0101960E94EB1D8091E8008E778B
:1037E0008093E8000F900F900F90DF91CF91089594
:1037F000209142022430F1F422E02093E9002FEFDF
:103800003091E800215035FD06C035ED3A95F1F7CD
:1038100000002111F5CF2091E80025FF0BC050E0FA
:1038200040E065E070E00E94EB1D8091E8008E773B
:103830008093E8000895CF93DF93D82FC92F80910C
:1038400042028430F1F4909112019923E9F09091B1
:103850003C0297FF19C08093E9008FEF9091E80038
:10386000815095FD06C095E19A95F1F70000811110
:10387000F5CF8091E80050E040E060E270E085FD27
:103880001AC0DF91CF91089581E08093E9008FEF16
:103890009091E800815095FD06C095ED9A95F1F75D
:1038A00000008111F5CF8091E80085FFEACF50E05C
:1038B00040E068E070E08D2F9C2F0E94EB1D80910E
:1038C000E8008E778093E80080E2ED2FFC2FA6E1E0
:1038D000B2E001900D928A95E1F7D3CF8091410239
:1038E000811109C00E94731F0E94D01F8091E200C5
:1038F00084608093E2000895109241020895089533
:1039000008950C94F51642E061EC81E00E94EF1EF0
:1039100042E061EC82E00E94EF1E42E061EC83E055
:103920000E94EF1E42E261EC84E00C94EF1E809155
:103930004402893089F148F4823009F494C083301C
:1039400009F44FC0813041F008958A3009F47BC0FA
:103950008B3009F461C0089580914302813A09F0E7
:103960003FC08091E800877F8093E8008091470204
:1039700090914802892B61F460E286E192E070E068
:103980000E943A1E8091E8008B778093E8000895AA
:1039900060E090E080E0F3CF80914302813201F556
:1039A0008091470290914802009711F00397C1F46B
:1039B0008091E800877F8093E8008091E80082FF93
:1039C0000BC08091F100809336028091E8008B77E4
:1039D0008093E8000C94231F809142028111EDCF67
:1039E000089580914302813AD9F7809147029091DE
:1039F0004802892BA9F78091E800877F8093E8002F
:103A00008091E80080FFFCCF809112018093F1004B
:103A10008091E8008E77DCCF80914302813201F7FC
:103A20008091470290914802892BD1F68091E8005D
:103A3000877F8093E8000E94231F80914502809336
:103A400012010C944C0F80914302813249F680910F
:103A5000E800877F8093E8000E94231F8091460240
:103A600080933702089580914302813A09F0B8CFDC
:103A70008091E800877F8093E8008091E80080FFD4
:103A8000FCCF80913702C2CF84B7877F84BF0FB647
:103A9000F894A895809160008861809360001092EE
:103AA00060000FBE80E880936100109261000E9468
:103AB000A00A0E94731F0E94D01F8091E2008460C0
:103AC0008093E20078940E9450220E94A20A88E02B
:103AD00091E00E944C0A80914202853019F00E94C8
:103AE000A80AF9CF0E94B21680914002882399F368
:103AF0000E94E016882379F30E94D51DECCF9C012B
:103B0000DA01892F992783309105C1F068F481305B
:103B1000910509F445C0029761F48DE690E02CE12F
:103B200039E02D933C93089581329105E1F082971D
:103B300039F190E080E030E020E0F3CFC90199272F
:103B4000213059F08230910559F0E8E1F9E0892BF4
:103B500081F7849190E09F01E4CFE0E0F9E0F9CFB4
:103B6000ECEEF8E0F6CF643020F7E62FF0E0EE0F51
:103B7000FF1FE05DFE4F2081318189E090E0D1CFD1
:103B80006430B8F670E0FB01EE0FFF1FE85DFE4FFA
:103B9000208131816C5D7E4FFB01808190E0C1CF3F
:103BA00082E190E029E839E0BCCF80E189BD82E183
:103BB00089BD09B400FEFDCF8091D8008F7D809330
:103BC000D8008091E00082608093E0008091E00066
:103BD00081FDFCCF0895AF92BF92CF92DF92FF920A
:103BE0000F931F93CF93DF936C01EB018A010E9427
:103BF000421FF82E811123C00115110539F0F8017B
:103C000080819181C81BD90BC80ED91EB12CA12C63
:103C10002097A9F08091E80085FD22C08091E800FE
:103C20008E778093E80001151105A1F0F8018081DD
:103C30009181A80EB91EB182A08285E0F82E8F2D49
:103C4000DF91CF911F910F91FF90DF90CF90BF90A8
:103C5000AF9008950E94421F8823D1F2F82EEFCF33
:103C6000F60181916F018093F1002197FFEFAF1A68
:103C7000BF0ACECFFC01CB012091490230914A020C
:103C80002617370790F0009729F42091E8002E7747
:103C90002093E80040E0009751F4411108C0809162
:103CA000E80082FF31C080E00895C901F3CF209180
:103CB00042022223A9F12530A9F12091E80023FD39
:103CC0002DC02091E80022FDEACF2091E80020FFDE
:103CD000E2CF3091F3002091F200009719F02830E4
:103CE000310558F041E02830310509F040E02091DD
:103CF000E8002E772093E800CECF41914093F10069
:103D000001972F5F3F4FE9CF80914202882341F016
:103D1000853041F08091E80083FFC1CF81E00895B4
:103D200082E0089583E00895FC01CB0120914902CF
:103D300030914A022617370790F0009729F4209116
:103D4000E8002E772093E80040E0009751F44111FD
:103D500008C08091E80082FF32C080E00895C90168
:103D6000F3CF209142022223B1F12530B1F120910D
:103D7000E80023FD2EC02091E80022FDEACF20912B
:103D8000E80020FFE2CF3091F3002091F20000978D
:103D900019F02830310558F041E02830310509F09C
:103DA00040E02091E8002E772093E800CECF4491A8
:103DB0004093F100319601972F5F3F4FE8CF8091FC
:103DC0004202882341F0853041F08091E80083FF72
:103DD000C0CF81E0089582E0089583E00895982F90
:103DE000973028F08F708093E90081E008959093D8
:103DF000E900242F762F50E0981731F07091EC00F5
:103E00002091ED005091F00021FD02C09F5FE8CFAE
:103E10003091EB003E7F3093EB003091ED003D7F21
:103E20003093ED003091EB0031603093EB007093F4
:103E3000EC002093ED005093F0002091EE0027FD60
:103E4000E5CF80E008958091430287FF13C0809101
:103E5000E80082FF06C08091E8008B778093E8003D
:103E600004C0809142028111F2CF089580914202F4
:103E70008823D9F38091E80080FFF8CF8091E80093
:103E80008E77ECCF2091E4003091E50095E6A90112
:103E90002091EC00822F817020FF06C08091E80005
:103EA00080FF06C080E008952091E80022FD1AC03E
:103EB00080914202882389F0853089F08091EB005F
:103EC00085FD0FC02091E4003091E50042175307B3
:103ED000F9F29150E1F684E0089582E0089583E0DC
:103EE000089581E008950E94E11F0E94E91FE0EE1D
:103EF000F0E0808181608083E8EDF0E080818F7761
:103F0000808319BCA7EDB0E08C918E7F8C9380816B
:103F10008F7E80831092410208950F931F93CF9359
:103F2000DF930E94E11F0E94E91FC8EDD0E0888165
:103F30008F77888388818068888388818F7D888354
:103F400019BC1092420210923E021092400210924E
:103F50003F0200EE10E0F80180818B7F8083888132
:103F60008160888342E060E080E00E94EF1EE1EE25
:103F7000F0E080818E7F8083E2EEF0E080818160DE
:103F80008083808188608083F80180818E7F808338
:103F9000888180618883DF91CF911F910F9108956F
:103FA000E8EDF0E080818F7E8083E7EDF0E08081B6
:103FB0008160808384E082BF81E0809341020C9421
:103FC0008D1FE8EDF0E080818E7F80831092E2000B
:103FD00008951092DA001092E10008951F920F9256
:103FE0000FB60F9211242F933F934F935F936F93CC
:103FF0007F938F939F93AF93BF93EF93FF938091A2
:10400000E10082FF0BC08091E20082FF07C0809137
:10401000E1008B7F8093E1000E944F228091DA00C3
:1040200080FF19C08091D80080FF15C08091DA0010
:104030008E7F8093DA008091D90080FF94C080E168
:1040400089BD82E189BD09B400FEFDCF81E0809386
:1040500042020E946E1C8091E10080FF19C0809195
:10406000E20080FF15C08091E2008E7F8093E20025
:104070008091E20080618093E2008091D8008062AC
:104080008093D80019BC85E0809342020E94801C76
:104090008091E10084FF29C08091E20084FF25C067
:1040A00080E189BD82E189BD09B400FEFDCF809128
:1040B000D8008F7D8093D8008091E1008F7E80931F
:1040C000E1008091E2008F7E8093E2008091E20027
:1040D00081608093E20080913E02882309F449C008
:1040E00084E0809342020E94811C8091E10083FF62
:1040F00029C08091E20083FF25C08091E100877F85
:104100008093E10082E08093420210923E0280910F
:10411000E1008E7F8093E1008091E2008E7F8093AA
:10412000E2008091E20080618093E20042E060E082
:1041300080E00E94EF1E8091F00088608093F00084
:104140000E947F1CFF91EF91BF91AF919F918F9142
:104150007F916F915F914F913F912F910F900FBE83
:104160000F901F90189519BC109242020E947C1C5F
:1041700072CF8091E30087FD02C081E0B2CF83E07F
:10418000B0CF1F920F920FB60F9211242F933F932F
:104190004F935F936F937F938F939F93AF93BF934F
:1041A000CF93DF93EF93FF93D091E900DF7080917D
:1041B000EC00C82FC17080FDC0E81092E90080912A
:1041C000F000877F8093F00078940E940521109280
:1041D000E9008091F00088608093F000CD2BCF70D3
:1041E000C093E900FF91EF91DF91CF91BF91AF9123
:1041F0009F918F917F916F915F914F913F912F91FF
:104200000F900FBE0F901F9018951F93CF93DF93C1
:10421000CDB7DEB7AA970FB6F894DEBF0FBECDBFFD
:1042200083E492E0FC0101962091F100208322E0DA
:104230008B349207B9F70E94971C8091E80083FFA6
:1042400016C180914302909144029A3008F00FC148
:10425000E92FF0E0EC5DFB4D0C94B023803881F049
:10426000823809F004C1809147028F708093E90081
:104270008091EB0085FB882780F91092E90006C049
:1042800080913F0290914002911182609091E800EC
:10429000977F9093E8008093F1001092F100809155
:1042A000E8008E77E0C0882309F4CEC0823009F0A0
:1042B000DEC0809145028111D1C0809147028F708C
:1042C00009F4D5C08093E9002091EB0020FFC6C01F
:1042D000933031F48091EB0080628093EB00BEC09C
:1042E0009091EB0090619093EB0021E030E001C0F1
:1042F000220F8A95EAF72093EA001092EA00809153
:10430000EB008860EACF8111B2C0109145021F779F
:104310008091E3008078812B8093E3008091E80016
:10432000877F8093E8000E94231F8091E80080FF30
:10433000FCCF8091E30080688093E30082E011115C
:1043400083E08093420293C08058823008F08FC08F
:1043500080914502909146028C3D23E09207A1F5A1
:1043600083E08A838AE289834FB7F894DE0113964B
:1043700020E03EE051E2E32FF0E050935700E4915B
:1043800020FF03C0E295EF703F5FEF708E2F90E04B
:10439000EA30C0F0C7968D939D932F5F243159F773
:1043A0004FBF8091E800877F8093E8006AE270E069
:1043B000CE0101960E943A1E8091E8008B7780938F
:1043C000E80055C0C096E7CFAE014F5F5F4F6091E8
:1043D00047020E947F1DBC01892B09F448C08091CF
:1043E000E800877F8093E80089819A810E94941E6B
:1043F000E3CF8038E1F58091E800877F8093E80083
:1044000080913E028093F1004ACF811130C090919B
:104410004502923060F58091E800877F8093E80044
:1044200090933E020E94231F80913E02882311F048
:1044300084E005C08091E30087FDFACF81E080939E
:1044400042020E94831C13C080914502813079F49E
:1044500081E0933009F080E0809340021092E900FF
:104460008091E800877F8093E8000E94231F80915D
:10447000E80083FF0AC08091E800877F8093E8000E
:104480008091EB0080628093EB00AA960FB6F894BF
:10449000DEBF0FBECDBFDF91CF911F91089508956C
:1044A000CF93809142028823A1F0C091E900CF70A0
:1044B0009091EC00892F817090FD80E8C82B1092BC
:1044C000E9008091E80083FD0E940521CF70C09330
:1044D000E900CF9108950E9472226894B1110C9462
:1044E000012308950E94E62288F09F5798F0B92F83
:1044F0009927B751B0F0E1F0660F771F881F991F19
:104500001AF0BA95C9F714C0B13091F00E94002397
:10451000B1E008950C940023672F782F8827B85FA7
:1045200039F0B93FCCF3869577956795B395D9F770
:104530003EF490958095709561957F4F8F4F9F4F7A
:104540000895E89409C097FB3EF490958095709586
:1045500061957F4F8F4F9F4F9923A9F0F92F96E9CF
:10456000BB279395F695879577956795B795F11144
:10457000F8CFFAF4BB0F11F460FF1BC06F5F7F4FE1
:104580008F4F9F4F16C0882311F096E911C07723F3
:1045900021F09EE8872F762F05C0662371F096E8FC
:1045A000862F70E060E02AF09A95660F771F881FCB
:1045B000DAF7880F9695879597F9089557FD9058E3
:1045C000440F551F59F05F3F71F04795880F97FBD7
:1045D000991F61F09F3F79F0879508951216130691
:1045E0001406551FF2CF4695F1DF08C016161706C0
:1045F0001806991FF1CF86957105610508940895F5
:10460000E894BB2766277727CB0197F908950E9486
:104610001A230C948B230E947D2338F00E9484235C
:1046200020F0952311F00C9474230C947A23112418
:104630000C9401230E94DE2270F3959FC1F3950F25
:1046400050E0551F629FF001729FBB27F00DB11D16
:10465000639FAA27F00DB11DAA1F649F6627B00DA6
:10466000A11D661F829F2227B00DA11D621F739F8F
:10467000B00DA11D621F839FA00D611D221F749F9D
:104680003327A00D611D231F849F600D211D822FE4
:10469000762F6A2F11249F5750409AF0F1F088230B
:1046A0004AF0EE0FFF1FBB1F661F771F881F915038
:1046B0005040A9F79E3F510580F00C9474230C9450
:1046C00001235F3FE4F3983ED4F386957795679591
:1046D000B795F795E7959F5FC1F7FE2B880F911D62
:1046E0009695879597F9089597F99F6780E870E008
:1046F00060E008959FEF80EC089500240A94161658
:10470000170618060906089500240A9412161306BF
:10471000140605060895092E0394000C11F488234D
:1047200052F0BB0F40F4BF2B11F460FF04C06F5F69
:104730007F4F8F4F9F4F089597FB072E16F40094DD
:1047400007D077FD09D00E94B62307FC05D03EF4C0
:10475000909581959F4F0895709561957F4F08952D
:10476000EE0FFF1F0590F491E02D0994AA1BBB1BCF
:1047700051E107C0AA1FBB1FA617B70710F0A61B61
:10478000B70B881F991F5A95A9F780959095BC0182
:10479000CD010895F999FECF92BD81BDF89A992770
:1047A00080B50895A8E1B0E042E050E00C94F22317
:1047B000262FF999FECF92BD81BDF89A019700B4DA
:1047C000021639F01FBA20BD0FB6F894FA9AF99A7A
:1047D0000FBE08950196272F0E94D9230C94D82349
:1047E000DC01CB01FC01F999FECF06C0F2BDE1BDB1
:1047F000F89A319600B40D9241505040B8F70895A0
:10480000F894FFCF4E065A065E06620666066A06F2
:104810006E06720676067A067E06820686068A0688
:104820008E06920696069A06F70CF70C4F0D4F0D62
:10483000930DAF0D270D270DBA0D270D820E820E99
:10484000ED0E270D270DF60E2E2153213722532171
:0C48500037228321A4213722F921052200
:10485C00E8012808140A321E8B1B1B1CF81BC11BF9
:10486C008E1B0193929194323331F7F6F5F4366640
:10487C0097C63435404D3639570A0A0AD4099B0974
:08488C002E09470960097909B2
:00000001FF
