:100000000C9477020C94C6190C94AF020C94AF02B6
:100010000C94AF020C94AF020C94AF020C94AF029C
:100020000C94AF020C94AF020C9407210C94DB21CA
:100030000C94081C0C94AF020C94AF020C94AF0209
:100040000C94AF020C94AF020C94AF020C94AF026C
:100050000C94AF020C94AB1C0C94AF020C94AF0246
:100060000C94AF020C94AF020C94AF020C94AF024C
:100070000C94AF020C94AF020C94AF020C94AF023C
:100080000C94AF020C94AF020C94AF020C94AF022C
:100090000C94AF020C94AF020C94AF020C94AF021C
:1000A0000C94AF020C94AF020C94AF02000000005D
:1000B0000000000029003A003B003C003D003E00EB
:1000C0003F002A00380025022D0035001E001F00C9
:1000D000200021002200230000002400250026002B
:1000E0002B0014001A0008001500170000002E0253
:1000F00021002200230021520400160007000900FD
:100100000A00000000001E001F002000E1001D008A
:1001100000001B000600190005002800370027001A
:100120000000E000E3000000E20022522C0000008A
:100130000000400041004200430044004500000030
:100140000000000000000000240025002600270019
:100150002D002E002A0049004A004B001C00180008
:100160000C00120013002F00300031004C004D0035
:100170004E000B000D000E000F0033003400000095
:1001800028000000000000000500110010003600EB
:10019000370038000000E1000000520000002C0091
:1001A0000000E60000000000E40001000100500033
:1001B00051004F000000000000000000010001009D
:1001C0000100010001000100010001000100010027
:1001D0000100010001000100010001000100010017
:1001E00000000100010001000100010052000100B7
:1001F00001000100000001000100010001000100F8
:10020000500051004F0001000100000000000100FB
:1002100001000100010001000000010001000100D7
:1002200001000100010001000000010001000000C8
:1002300001000100010000000000010001000100B8
:1002400001000100010000000000000000000000AB
:100250000100010001000100010001000100010096
:100260000100010001000100010001000100010086
:100270000100010001000100010001000100010076
:10028000010001000100000001000000000000006A
:100290000100010001000100010001000000010057
:1002A000000001000000010000000100000000004B
:1002B0000100010001004A0001004D0000000000A3
:1002C00000000000007C01000100010001000100AD
:1002D0000100010001000100010001000100010016
:1002E0000100010001000100000001000100010007
:1002F00001000100010001000100010000000100F7
:1003000001000100010001000100010001000100E5
:1003100001000000000001000100010001000100D7
:1003200000000100010001000100010001000100C6
:1003300000000100010000000100010001000000B8
:1003400000000100010001000100010001000000A7
:100350000000000000000000010001000100010099
:100360000100010001000100010001000100010085
:100370000100010001000100010001000100010075
:100380000100010001000100010001000100000066
:100390000100000000000000010001000100010058
:1003A0000100010000000100000001000000010048
:1003B00000000100000000000100010001004A00EF
:1003C00001004D000C0365006E007400720079009E
:1003D00000000E036800790065006C00690065008C
:1003E00000000403090409023B00020100A0FA090D
:1003F0000400000103010100092111010001224054
:100400000007058103080001090401000103000041
:1004100000092111010001227B0007058203200051
:10042000011201000200000008EDFE0000000101C1
:1004300002000105010902A10185020901A10005CF
:100440000919012908150025019508750181020582
:1004500001093009311581257F950275088106094A
:10046000381581257F950175088106050C0A38022B
:100470001581257F950175088106C0C00501098099
:10048000A101850319012AB700150126B7009501BE
:1004900075108100C0050C0901A101850419012A0C
:1004A000A002150126A002950175108100C005016A
:1004B0000906A101050719E029E71500250195089E
:1004C000750181029501750881010507190029FF51
:1004D000150026FF009506750881000508190129F9
:1004E00005950575019102950175039101C01124CF
:1004F0001FBECFEFDAE0DEBFCDBF04B603FE18C0EB
:100500008091290390912A03A0912B03B0912C0391
:100510008730904BA740B04B59F4109229031092AA
:100520002A0310922B0310922C03E0E0F8E30995C4
:1005300011E0A0E0B1E0E4E4F9E402C005900D921E
:10054000A23CB107D9F723E0A2ECB1E001C01D92B3
:10055000A932B207E1F70E94D1140C9461240C94E3
:1005600000008330B8F46C30A8F44B3098F450E0BD
:100570009BE0699F400D511D1124FA0194E8899F69
:10058000E00DF11D1124EE0FFF1FE455FF4F859183
:100590009491089581E090E008950E94B102089539
:1005A00081E008950E94D002089581E008950E949C
:1005B000D00208950E94D702089508950E94DD0296
:1005C0000895A6E0B0E0E7EEF2E00C94BD23498385
:1005D0005A839E833091C90189819A8131111AC051
:1005E0003E81332399F0222389F00E947108182F4D
:1005F000682F89819A810E944D0869817A81812FB3
:100600000E945F0F2696E3E00C94D9230E945F08B6
:10061000182FF3CF0E94710869817A81F1CFFC0114
:10062000262F4081518162817381848195810E944E
:10063000E1020895CF93DF93EC0161E00E940F0384
:10064000BE010E94D202DF91CF910895CF93DF9334
:10065000EC0160E00E940F03BE010E94DE02DF9108
:10066000CF91089508950E9422070E9432032FEF30
:1006700084E39CE0215080409040E1F700C00000FE
:1006800008950E9433030E94CF1C08950E943303F3
:100690000E94F31C08950F931F93CF93DF938C0157
:1006A00061E00E940F03EC01B8010E94DA0281119F
:1006B00006C080E0DF91CF911F910F910895B8019E
:1006C000CE010E94E4188823A1F3B801CE010E9454
:1006D0007A17882371F3B801CE010E945618882337
:1006E00041F3F8018581882361F0C330FCE7DF071F
:1006F000E9F058F4C115ECE7DE07A9F0C130DC479A
:10070000B9F0C8010E94D502D5CFCB358CE7D80708
:10071000A9F0CC35ECE7DE0771F0CA35DC4789F784
:100720000E94A70CEECF0E944103C3CF0E94AF0CE2
:100730000E944603BECF0E949D0CE3CF0E94AB0CEB
:10074000E0CF0E94E41B0E94C80308950E94CC03DE
:100750000E94E91B0895089581E008950895CF93BC
:10076000DF93D82F0E94AC03C82F882319F08D2F58
:100770000E94AE038C2FDF91CF9108950895CF93FF
:10078000C82F0E94AB038C2F0E94AF03CF91089516
:1007900080E00E94BF0308950E94EC1A0E94BF03EC
:1007A0000895CF930E94EC1AC82F8091C4018C1732
:1007B00079F0C093C4010E94741C6093C5017093CA
:1007C000C6018093C7019093C8018C2F0E94BF037C
:1007D000CF910895ADE0B0E0E0EFF3E00C94BE23DC
:1007E000488759876A877B878C879D8791110E94EC
:1007F000D50B1F8286E0FE013896DE01119601902E
:100800000D928A95E1F78D8181110DC029813A8180
:100810004B815C816D817E818F810E94080B2D96BA
:10082000E2E00C94DA23CE0101960E941A038111B2
:10083000EDCFF5CFFC012481213021F4808191811D
:100840000E94A3080895662329F00E9455150E946E
:10085000281608950E94AF15FACFCF93C82F88238A
:10086000B9F08CEF8C0F813AA8F46C2F80910001C5
:10087000909101010E94751B882329F08C2F0E9402
:10088000950B0E940E0C8C2F0E948D0B0E940E0C5B
:10089000CF91089580E28C0F883048F4C77081E0D2
:1008A00001C0880FCA95EAF70E94B80BEFCFEBE5BD
:1008B000EC0FE33040F4F0E0EC57FE4F808190E025
:1008C0000E94191BE5CFE8E5EC0FEB3150F4F0E0A6
:1008D000EE0FFF1FE25BFE4F808191810E943E1B65
:1008E000D7CF83E38C0F833198F661E08C2F0E9481
:1008F0002304CECF882381F19CEF980F913A28F4FE
:100900000E94950B0E940E0C089590E2980F98306B
:1009100050F4877091E001C0990F8A95EAF7892F0A
:100920000E94BE0BEFCF9BE5980F933028F490E028
:1009300080E00E94191B089598E5980F9B3128F4D8
:1009400090E080E00E943E1B089593E3980F93315E
:1009500018F460E00E94230408951F93CF93DF935F
:10096000182FEB010E942D04209739F4812F0E944B
:100970007A04DF91CF911F9108958FE99FE001974D
:10098000F1F700C000002197EFCF70E060E08933FD
:1009900011F460E570E00E94AD040895882321F011
:1009A0000E94B80B0E940E0C0895882321F00E942B
:1009B000BE0B0E940E0C0895B0E0A0E0E2EEF4E061
:1009C0000C94B7236C01D62FC72FFC01158106812B
:1009D00002950F700E94AE0BE82E8823E9F0E12EFD
:1009E0001123D1F08C2F807F803451F080E28D0F65
:1009F0008830F8F0011104C08C2F807E8032C9F05D
:100A00008091E50282FF15C082E00E94710C0E9475
:100A1000AE0B91E0E82EE926BC2EB2949FE0B922FD
:100A2000FBE0FB15B8F1EB2DF0E0ED59FB4D0C941C
:100A3000A823E12CF1CF0C2F0F70C07F11F002958D
:100A4000007F112399F0002359F080E28D0F883048
:100A500010F0D11107C0802F0E94B80B0E940E0C1D
:100A60008D2F5AC0802F0E94C80BF8CF8D2F0E9467
:100A70007A04002379F080E28D0F883010F0D111D4
:100A800004C0802F0E94BE0B03C0802F0E94CE0B9B
:100A90000E940E0CEB2DE850FF0B349720F40E94BF
:100AA000EC1A0E94BF03EE2089F00E94AA0B80FD81
:100AB0000DC0F60115820E94A40B0E94AB07C6016F
:100AC0000E94E9060E94A40B0E94BB07CDB7DEB7C7
:100AD000E9E00C94D3232C2F2F70F22EC07FC0326C
:100AE00019F0F29480EFF822DD2341F0D130D1F1FA
:100AF000112309F444C00023F1F0B2CF8091E50244
:100B000082FD15C0112359F0FF2029F08F2D0E947E
:100B1000B80B0E940E0C80E00E942D04BBCF80E039
:100B20000E947A04FF2009F4B5CF8F2DABCF11239B
:100B300069F0011104C08F2D0E94CE04ABCF0130AB
:100B400009F0A8CF8F2D0E94EC0BA4CF0111A2CFEA
:100B50008F2D0E94D5048F2D0E94F80B8F2D0E949F
:100B6000DC0B98CF112321F0063008F093CFE3CFB0
:100B7000053008F08FCF8F2D0E94D5048BCF002336
:100B8000D1F3D93349F43FEF87EE93E03150804001
:100B90009040E1F700C000008D2F0E947A047ACFC8
:100BA0008C2F86958695837069F0813009F072CF1D
:100BB0008D2F9C2F9370111102C080E090E00E9455
:100BC0003E1B68CF8D2F9C2F9370111102C080E0C7
:100BD00090E00E94191B5ECF612F8D2F0E9423048D
:100BE00059CF8C2F8370A1F5111154CF4D2F429501
:100BF00046954770440F440F2D2F2F7030E0042E80
:100C000002C0220F331F0A94E2F790E080E0D4FF85
:100C100009C08FE090E002C0880F991F4A95E2F763
:100C200080959095C695C695C370822B932BC23044
:100C300049F058F4C13019F00E947B072BCF0E9475
:100C4000720728CF0E94840725CF0E946F0722CF0A
:100C50008695112311F08C2F8170882309F41ACF07
:100C60004D2F429546954770440F440F2D2F2F70FE
:100C700030E0042E02C0220F331F0A94E2F790E006
:100C800080E0D4FF09C08FE090E002C0880F991F78
:100C90004A95E2F780959095C695C695C370822BCC
:100CA000932BC23049F058F4C13019F00E94E60786
:100CB000F1CE0E94DD07EECE0E94EF07EBCE0E9440
:100CC0009307E8CECF70112329F08C2F0E94AB0739
:100CD0008D2F32CF8D2F0E94D5048C2F0E94BB0701
:100CE000D9CED23F41F160F4D03FB9F0D13F81F08D
:100CF000112309F446C00111B3CE8C2F8F711FC090
:100D0000D33F01F1D43FA1F78091E50282FD24C0D9
:100D10008C2F8F71112311F312C0112341F0053074
:100D200008F0B8CE8C2F8F710E94CD07B3CE06305D
:100D300008F0B0CEF7CF8C2F8F711111CFCF0E945A
:100D4000AB07A8CE112329F08C2F8F710E949F072B
:100D5000A1CE0E949A079ECE112349F0CF718C2F0D
:100D60000E94AB0763E08C2F0E94530C93CE81E06E
:100D70000E94710C023008F48DCE82E00E94710C4A
:100D800089CE002359F0D93309F006CFEFEFF7EE03
:100D900023E0E150F0402040E1F7FCCE8C2F8F7132
:100DA0009DCF0F931F93CF93DF93EC0168817981DF
:100DB0008D810E94AE088C010E94F8070E946E0788
:100DC000B801CE010E94DC04DF91CF911F910F91F9
:100DD0000895CF93DF93EC018C81882399F0CE01A5
:100DE0000E944B03811111C00E94AE0B882351F069
:100DF0008D81882339F08091E50282FF03C082E073
:100E00000E94710CDF91CF910895CE010E94D1060E
:100E1000CE010E942603F6CF90E080E00E94191BCD
:100E200090E080E00E943E1B0E94D50B0E940E0CB9
:100E30000E9444160E94281608950E949D0B0E944D
:100E40000C0708950E94C50B0E941D0708959295F6
:100E50009F70963091F058F4925F9F70923058F4E2
:100E6000803F19F030F4883E30F481E008959A5FB5
:100E7000F4CF843FD1F380E00895883EB0F3813F02
:100E8000D1F7F3CFFC012481222339F080819181B5
:100E90000E94A3080E942707089580E00895A6E015
:100EA000B0E0E5E5F7E00C94BE232696E2E00C9472
:100EB000DA23A7E0B0E0EFE5F7E00C94BE23279635
:100EC000E2E00C94DA2308950E94630708950E94DB
:100ED00064079093110280931002089508950E9470
:100EE000670708952091100230911102822B932BF5
:100EF0000E94670708952091100230911102822309
:100F000093230E94670708952091100230911102E7
:100F1000822793270E94670708950E946307089518
:100F20000E948D0708950E94900790930F0280936E
:100F30000E02089590E080E00E949307089521E05A
:100F400030E0A90102C0440F551F8A95E2F7CA019B
:100F50000E949307089521E030E002C0220F331F62
:100F60008A95E2F780910E0290910F02822B932BCB
:100F70000E949307089521E030E002C0220F331F42
:100F80008A95E2F72095309580910E0290910F029C
:100F9000822393230E949307089521E030E002C04A
:100FA000220F331F8A95E2F780910E0290910F0273
:100FB000822793270E949307089520910E02309173
:100FC0000F02822B932B0E949307089520910E020B
:100FD00030910F02822393230E949307089520915A
:100FE0000E0230910F02822793270E9493070895E3
:100FF0000895262F277091E001C0990F2A95EAF7EE
:1010000023E0769567952A95E1F7660F771F660FBF
:10101000771FFA01E60FF71F50E040E0682F70E0FD
:101020008191DF0111979B01042E02C0369527950F
:101030000A94E2F7217021952827292328272C9349
:101040004F5F5F4F4430510559F70895A82FA7709F
:1010500023E0969587952A95E1F7880F991F880FC9
:10106000991FFB01E80FF91F50E040E080E021915B
:1010700030E00A2E02C0369527950A94E2F72170D7
:101080003327042E01C0220F0A94EAF7822B4F5F08
:101090005F4F4430510559F70895262F9C3070F466
:1010A0008B3060F4682F70E08BE0989F600D711DAD
:1010B00011244AEC51E0822F0E94F9070895292F4C
:1010C0009C3068F48B3058F490E06AEC71E03BE0BF
:1010D000239F800D911D11240E942608089580E011
:1010E0000895B0E0A0E0E7E7F8E00C94B7237C01B6
:1010F00000910E0210910F02809110029091110246
:10110000082B192BCFE0D0E0CC24C394D12CBC2EDB
:10111000C6010C2E02C0880F991F0A94E2F78023A3
:101120009123892B49F4219790F7B12C8B2DCDB7C2
:10113000DEB7E9E00C94D323B7018C2F0E946B0F2C
:10114000019789F3F3CFCF93DF93EC010E947108ED
:10115000BE010E946B0FDF91CF9108951F93CF9333
:10116000DF93EB019091C901992339F0CB010E94E3
:10117000A308DF91CF911F910895882369F0CB01D7
:101180000E947108182F682FCE010E944D08BE01E1
:10119000812F0E946B0FEDCFCB010E945F08182FAB
:1011A000F6CF1F93CF93DF93C091120217E0809187
:1011B00013028C1304C0DF91CF911F910895D0E0EA
:1011C0001C9FF0011D9FF00D1124EC5EFD4F20814E
:1011D0003181428153816481758186810E945907E2
:1011E0002196C770E4CF20914C0230914D0240917E
:1011F0004E0250914F0260915002709151028091C5
:1012000052020E9459070895CF93DF9380915202B2
:10121000807F09F04DC080915102882309F448C0B5
:10122000E091120250911302C0914D02D0914C02F4
:1012300060914E0270914F0247E05E17C9F18E2F08
:1012400090E0E49FF0011124EC5EFD4F2481222305
:1012500091F1489FF001499FF00D1124DF01AC5E30
:10126000BD4F11962C9111972C1325C02C912D1345
:1012700022C015962C91159721111DC012962D9103
:101280003C91261B370B283C3105A8F48091520273
:101290008F70806180935202E65EFD4F80818F7077
:1012A000806180838CE492E00E94E9060E94D1086C
:1012B000DF91CF910895FC013196E770BECF482FA2
:1012C000209112029091130257E0291302C080E08E
:1012D000089530E0529FF001539FF00D1124EC5E11
:1012E000FD4F8181681306C08081481303C085814A
:1012F0008111EECF2F5F3F4F2770E7CFA4E1B0E021
:10130000E4E8F9E00C94B4238C0186E0F801DE01F6
:101310001F9601900D928A95E1F7F8018481E5808E
:101320009CE4A92E92E0B92E9091500291111FC019
:101330008823D1F0EE20A9F0C8010E944207F82EC0
:10134000882379F087E0F801D50101900D928A9504
:10135000E1F7C5010E941A040E9404090E94F308E3
:101360005FC0C8010E94E906FF24F39459C0C08001
:10137000D18082809380F090510220914E02309172
:101380004F02A401421B530BFF2009F4F9C0483C53
:10139000510508F0A7C0882309F442C090914D027E
:1013A00080915202282F207F09F05CC09D1116C049
:1013B00090914C02C91212C0E1104EC08F70806132
:1013C000809352020E94F3088CE492E00E94E906A6
:1013D00080915202F8018683F12C22C0E1103CC0BA
:1013E0006D2D8C2D0E945F096D2D8C2D0E945F0943
:1013F000E82E8111F1CFCF86D88A8F8598890E94F7
:10140000A308292F22952F70243078F49F70223062
:10141000A8F09923B9F0F8019681907F99F4FE2CF9
:101420008F2D6496ECE00C94D0232A5F2F7022302D
:1014300068F0C8010E94E906EF2CF1CF992311F062
:10144000882369F3805E883050F3F3CF803F38F310
:10145000815F833070F7E3CF809152028160809387
:101460005202BACF9D1113C090914C02C9120FC005
:10147000E1100DC08683C8010E94E90687E0F801EB
:10148000ACE4B2E001900D928A95E1F767CFC80114
:101490000E944207882309F464CFEE2009F461CF4B
:1014A00080915202803288F020914C0230914D029E
:1014B000398728879B868A86909150029C871D8653
:1014C0008E87CE0108960E94E90687E0F801ACE419
:1014D000B2E001900D928A95E1F70E9404090E9402
:1014E000F30842CF90915202292F207FA1F4682D5A
:1014F0009A8A898AA6017A899E2D0E944F078CE4D8
:1015000092E00E94E90687E0F50111928A95E9F7D9
:101510000E94F30861CF882309F482CF80914D02A5
:101520008D1110C080914C02C8120CC0E1100AC08D
:101530009683C8010E94E90687E0F50111928A9519
:10154000E9F76ECFC8010E944207882309F409CF4A
:10155000EE2009F406CF80915202803208F4B5CF14
:1015600020914C0230914D023A8329839C828B82D8
:10157000909150029D831E828F83CE010196A3CF4E
:10158000483C5105B8F5882309F4EECEFE2CEE2038
:1015900009F4E7CE80914D028D111EC080914C025E
:1015A000C8121AC08091520280FD0DC0982F907F02
:1015B00051F08683903F09F45ECF982F907F905F23
:1015C0008F70892B57CF87E0F801ACE4B2E001902F
:1015D0000D928A95E1F724CFC8010E94420781113C
:1015E00074CF80915202816080935202C8010E94A0
:1015F000E90616CF682D9A8A898AA6017A899E2DD6
:101600000E944F0787E0F50111928A95E9F7A6CE6F
:10161000AEE0B0E0EEE0FBE00C94BD232887398714
:101620004A875B876C877D878E87CE0108960E94EC
:101630007E098823B1F06C85662341F028853985C1
:101640004A855B857D858E850E94590717E08091CC
:1016500012029091130289133DC02E96E3E00C9480
:10166000D92387E0FE013896DE01119601900D9294
:101670008A95E1F78C85882349F32091130230E0A5
:10168000C9010196877099274091120248171906DF
:1016900099F097E0929FD001939FB00D1124AC5E1A
:1016A000BD4FFE01319601900D929A95E1F780931E
:1016B00013020E94D108CACF0E942207109213027F
:1016C0001092120287E0ECE4F2E0DF011D928A95AD
:1016D000E9F7BCCF819FC00111248C5E9D4F0E9411
:1016E0007E09882309F4B9CFE09112021E9FF00110
:1016F0001124EC5EFD4F2081318142815381648150
:10170000758186810E9459078091120290E00196AE
:1017100087709927809312029ACF682F80910001D9
:10172000909101010E94AB1B0895682F80910001E8
:10173000909101010E94AE1B08958091000190914B
:1017400001010E94B11B089580915B0286958695E8
:101750008695089580915B028770089590915B0251
:10176000977081E009F480E0089580916702089500
:1017700090916702892B80936702089580959091DC
:101780006702982390936702089510926702089564
:1017900090916602892B80936602089580959091BE
:1017A0006602982390936602089510926602089547
:1017B00008950E94D80B089590915C02292F282348
:1017C00031F08095892380935C020E94D90B0895A3
:1017D00008950E94E80B089590915D02292F282317
:1017E000281729F0982B90935D020E94E90B089529
:1017F00090915D02292F282331F0809589238093D1
:101800005D020E94E90B089580915D02882329F012
:1018100010925D0280E00E94E90B0895CF93DF9360
:10182000E0910001F0910101809167028083E091D5
:101830000001F0910101808190916602892B8083E3
:1018400090915D02992381F0E0910001F0910101F6
:101850008081892B808380910001909101010E94F9
:10186000631B81110E94040CC0910001D091010101
:1018700048E050E063E572E0CE010E94F923892B35
:1018800059F088E0FE01A3E5B2E001900D928A953F
:10189000E1F7CE010E94001BDF91CF9108950895DA
:1018A0000E944F0C08959091E50292FF11C098E0BC
:1018B000899F90011124622B60935B020E94AB0709
:1018C00080915B028695869586950E94500C0895BE
:1018D0000E94AB07089510925B0280E00E94500CBA
:1018E000089590915B028095892380935B02282F55
:1018F000277069F4891759F09091E50292FF07C0AB
:101900008695869586950E94BB070E946B0C08956C
:101910009091E50292FB222720F9281769F080FBBD
:1019200092F99093E5028091E4029091E5020E9481
:10193000D00C82E00E94710C08958091E50282FB38
:10194000882780F991E089270E94880C089581E01A
:101950000E94880C089580E00E94880C08956FEF23
:101960007FEF90E080E00E944B24089590E080E0BB
:101970000E94172421E0863E9E4F09F020E0822F2E
:10198000089582E090E00E940F24089583E090E0A3
:101990000E940F24089584E090E00E941724089587
:1019A000BC0184E090E00E944B240895AB01BC018F
:1019B0008FE090E00E943F240895AB01BC0183E1D9
:1019C00090E00E943F24089560E070E0CB010E9407
:1019D000DD0C089560E070E0CB010E94D60C0E94FF
:1019E000E40C0895A8E0B0E0E8EFFCE00C94BE231E
:1019F00066EE7EEF90E080E00E944B2460E082E0A3
:101A000090E00E942D2460E083E090E00E942D246D
:101A1000109211021092100260E074E184E090E0F4
:101A20000E944B2460E086E090E00E942D246FEF3E
:101A300087E090E00E942D2440E050E0BA0188E069
:101A400090E00E943F2460E084E290E00E942D2418
:101A500060E087E190E00E942D2460E08CE090E05F
:101A60000E942D2460E08DE090E00E942D241982D8
:101A70001A821B821C821D821E821F82188648E0E9
:101A800050E068E170E0CE0101960E941D2440E024
:101A900050E0BA0180E290E00E943F240E94EA0CEC
:101AA0002896E2E00C94DA230E94F20C0895682F45
:101AB0008EE090E00E942D240895A6E0B0E0E3E6D9
:101AC000FDE00C94BC230E94681C8C01809168028C
:101AD000909169028017910781F019821A820E9401
:101AE000681C682F49815A81792F80E090E00E941C
:101AF000EA0310936902009368022696E4E00C94CE
:101B0000D8230E947B106093860270938702809393
:101B1000880290938902609382027093830280937B
:101B20008402909385020895089508950E94950D6A
:101B3000089508950E94990D089581E0089585E91A
:101B400090E10E94E21A0E94940D0E94960D089561
:101B50000E94CD120895089508950E94AB0D0E9431
:101B6000AC0D08950E94B4100E94BE0308950E9417
:101B70005F1C0E9455100E94E8120E94F8110E94FA
:101B8000B20D0E9462170E94F2120E949A0D0895EF
:101B9000A6E0B0E0EEECFDE00C94B2230E949D0DB7
:101BA00081110CC00E945D0D0E94CD120E9466162C
:101BB0000E94D1032696EEE00C94CE230E944D1293
:101BC0002AE6822E22E0922E640110E0F601E190D6
:101BD000F1906F01812F0E94DA101F5F1C3009F411
:101BE0004BC0E816F90691F380918A0281FD0E94AC
:101BF000E3100E94A80D782E10E066246394812FD4
:101C00000E94DA107C01F401A190B1904F018A1575
:101C10009B0561F1A826BF2400E0CC24C394D12CFD
:101C2000C5018C219D21892BC1F07720B1F009835A
:101C30001A830E94681C9C838B836D8221E0C701FC
:101C40008C219D21892B09F420E049815A816B81E7
:101C50007C818D81922F0E94EA030F5FCC0CDD1CEA
:101C60000B30F1F6F4013297F182E0821F5F1C30F5
:101C700031F60E94810D98CFE816F90609F0B4CF2D
:101C800091CF1F93CF93DF930E94700FEC01C1158A
:101C900080E5D807F0F5C11580E4D80708F09CC0AE
:101CA000C03ED10520F5CD3CD10508F082C0C83A30
:101CB000D10578F4C53AD10508F073C0C130D1051B
:101CC00019F1209709F1C430D105F0F4D0E0C0E05B
:101CD0001BC0C33CD105D0F7C85AD0E0CC0FDD1FE4
:101CE000C957DE4F0990D881C02DD4640DC0C115ED
:101CF00080E2D80708F0D1C0C11581E0D80708F00C
:101D00005AC0C83ED10510F7CE01DF91CF911F9187
:101D10000895C03682E5D80718F5C03482E5D807A3
:101D200008F06BC0C03282E5D80708F05FC0C1156B
:101D300082E5D80708F497C02C2F2695269580E2D7
:101D4000289F900111248C2F8370C1E0D0E002C045
:101D5000CC0FDD1F8A95E2F7C22BD32BDD68D4CFE1
:101D6000C03A82E5D80760F4C03882E5D80708F4A5
:101D700059C0CF71D0E0DC2FCC27C46FD06AC4CF5C
:101D8000C03C82E5D80708F462C0C03E82E5D807AF
:101D900008F09CCFDC2FCC27CC27DF71C06FD06A36
:101DA000B3CFC55AD0E0C354DE4FC881D0E0D06471
:101DB000ABCFD065A9CF8D2F0E941210182FCE0166
:101DC00099270E94700FC12FD0E0DC2FCC27CC27A1
:101DD000DF71C82BD92B98CFCE0199270E94700FA5
:101DE000CC27DF70C82BD92BD06A8ECFCF71D0E033
:101DF000DC2FCC27C16FD06A87CF2C2F2695269554
:101E0000277080E2289F900111248C2F8370C1E0FD
:101E1000D0E002C0CC0FDD1F8A95E2F7C22BD32B96
:101E2000DC6872CF2C2F26952695277080E2289F9C
:101E3000900111248C2F8370C1E0D0E002C0CC0F40
:101E4000DD1F8A95E2F7C22BD32BDA685DCF8C2F8A
:101E50008F710E941210C82FD0E0DC2FCC27CC2726
:101E6000DF71D06251CF8C2F8F710E94121055E01C
:101E7000D695C7955A95E1F7CF70D0E0DC2FCC27E7
:101E8000282F30E084FF05C044E0220F331F4A951D
:101E9000E1F7C22BD32BD06937CF8D2F8F710E94E2
:101EA0001210182FCE0199270E94700FC12FD0E079
:101EB000DC2FCC27CC27DF71C82BD92BD2CF462FD4
:101EC0007C3030F46B3020F4672F0E94CD020895EF
:101ED00090E080E008950E945F0F0E94410E0895F7
:101EE00082389105B9F1B0F48133910509F47DC0D0
:101EF00048F48932910509F46DC08A32910509F4DC
:101F00007BC008958533910509F45FC0893391053D
:101F100009F10895833E9105D9F138F4803E910589
:101F200029F1823E910579F10895863E9105D9F116
:101F3000873E910509F43EC0843E910541F520910C
:101F4000E50221FF24C08091E40284FD19C087EEE0
:101F500090E008952091E402237009F05AC0209186
:101F6000E50223FF14C089E290E008952091E40285
:101F700020FD38C03091E50230FF09C024FF43C086
:101F800090E080E008952091E40222FDF7CF0895CB
:101F90002091E40222FD3AC03091E50230FD39C0C3
:101FA00024FFF5CFEDCF2091E40223FFF0CF24FDF5
:101FB000E7CFCDCF2091E40223FD2EC03091E50282
:101FC00031FFEECF84EE90E008952091E40225FFEA
:101FD000DECFC9CF2091E40225FD21C02091E5028A
:101FE00023FFD5CF89E390E0D2CF2091E40226FFF2
:101FF000CECF8AE290E008952091E40226FFC7CF79
:1020000081E390E0089583EE90E0089582EE90E001
:10201000089580EE90E0089586EE90E0089585E3BF
:1020200090E008959091E40292FF06C0282F287155
:102030002830F9F4877F846093FF06C0282F287129
:102040002831F1F4877E84612091E50220FF06C0EB
:10205000382F38713830D9F4877F816021FF06C06E
:10206000282F28712831D1F4877E816194FD877EE5
:102070000895282F24712430F9F68B7F8860DCCFF7
:10208000282F2471243101F78B7E8861DDCF382F12
:102090003171313019F78E7F8860E0CF282F2171A0
:1020A000213121F78E7E8861E1CF1092E0021092FB
:1020B000E1021092E2021092E3020895CF92DF92C1
:1020C000EF92FF926B017C010E94CD1281110EC034
:1020D0000E94741CC61AD70AE80AF90AC092E002E4
:1020E000D092E102E092E202F092E302FF90EF90E0
:1020F000DF90CF9008950F931F930E94CD128823F5
:1021000029F00E94741C1F910F9108950E94741C65
:102110000091E0021091E1022091E2023091E3028D
:10212000600F711F821F931FEECF80E008950E9401
:10213000AF0C08950E944D122FEF86E791E02150D9
:1021400080409040E1F700C000000E944D1280E006
:102150000E94DA1080FF04C00E9497100E94CF1CDA
:1021600008950E949A1008950E94B60C811102C031
:102170000E94540D0E94C10C80938A020E94CB0CD5
:102180009093E5028093E4020E94B1100E94C60C75
:1021900090E00E946F0780910E0290910F020E94C2
:1021A0009007089508950E94D210089508950E94FE
:1021B000D6100895E82FF0E0EE0FFF1FE150FD4F1D
:1021C000808191810895089580EA8A95F1F70895B4
:1021D00000C008950E94E410089508950E94ED1033
:1021E0000895ACE0B0E0E7EFF0E10C94BA230E9470
:1021F000CD12F82E60911703882309F446C05CE0E5
:10220000E52E8E010F5F1F4FF8018E2D11928A95DA
:10221000E9F7862F90E0880F991FB80181509D4FF4
:102220000E9400138823C9F08091E60290E0880F95
:10223000991F4CE050E0B80181509D4F0E94F92356
:1022400021E020938B02892B91F4F12C0E94D7106E
:102250008F2D2C96E6E00C94D62380918B02882358
:10226000A1F3F8011192EA94E9F710928B02A09180
:10227000E602B0E0AA0FBB1FA150BD4F8CE0F801F1
:1022800001900D928A95E1F7E1CF70E0660F771F1C
:1022900061507D4F8091E60290E0880F991F815038
:1022A0009D4F0E9487130E94EE10D2CFF894E82F22
:1022B000E295EF70F0E031A1282F2F7081E090E0DF
:1022C00001C0880F2A95EAF7982F9095932391A340
:1022D00092A1892B82A378940895CF93DF93CDE0C8
:1022E000D1E089918F3F11F00E94561181E0C331F6
:1022F000D807B9F7C2E0D1E089918F3F11F00E9471
:10230000561181E0CD30D807B9F7DF91CF9108950C
:10231000AF92BF92DF92EF92FF920F931F93CF93F2
:10232000DF938C01D62EC62FD0E0CE01835F9E4F67
:102330007C01FC0120812F3F09F44DC0F894E22F6D
:10234000E295EF70F0E031A12F7081E090E001C0E4
:10235000880F2A95EAF7932F982B91A392A1809545
:10236000892382A378940E94E810E2E0F1E04DE036
:1023700051E021E030E0B12CA12C61916F3FA9F137
:10238000A62FA295AF70B0E090968C9190E06F7000
:1023900002C0959587956A95E2F780FD26C0C90130
:1023A000A82AB92A220F331F4E175F0731F7F7010A
:1023B00080818F3F11F00E94561161E0A114B10499
:1023C00009F460E08D2D0E94EA10CC0FDD1FC00FD4
:1023D000D11FB982A882DF91CF911F910F91FF90F9
:1023E000EF90DF90BF90AF90089590E080E0D8CF5D
:1023F000A1E1B0E0EEEFF1E10C94BE238091130176
:10240000811127C086E0EDE3F1E0DE011C9601902A
:102410000D928A95E1F7FE013C96ADE0B1E0CE0168
:1024200042969F0141914D93E817F907D9F78BE048
:10243000E3E4F1E0DE01119601900D928A95E1F757
:10244000FE013196A2E0B1E081918D93E217F3078E
:10245000D9F78091130196E0811190E090931703D2
:1024600086E0891B8093E6020E946D1188E1EFEF00
:10247000F2E0DF01982F1D929A95E9F7E7EEF2E07E
:10248000DF011D928A95E9F786E00E948D120E9475
:10249000D3106196E2E00C94DA23A8E1B0E0E3E522
:1024A000F2E10C94BB238E010F5F1F4F88E1F8010E
:1024B00011928A95E9F7F12C6F2DC8010E948811BD
:1024C000F394F6E0FF12F8CF48E150E0B80187EE50
:1024D00092E00E94F92321E0009709F420E0892B83
:1024E00041F088E1F801A7EEB2E001900D928A95E3
:1024F000E1F76091170370E0660F771F61507D4F21
:1025000046E087EE92E00E948E12182F0E94F11092
:10251000812B6896E5E00C94D7230895CF92DF9243
:10252000EF92FF921F93CF93DF936C017B01C42F37
:10253000222349F081E080938E020E94681C9093D0
:102540008D0280938C0210918E0211110AC010E04E
:10255000812FDF91CF911F91FF90EF90DF90CF906F
:10256000089580918C0290918D020E94801C0597A5
:1025700070F3D0E0CC0FDD1FAE01B601C7010E94A1
:10258000F923892B41F0AE01B601C7010E94062450
:1025900010928E02DDCF10E0FBCF8091910281116D
:1025A00007C00E948723882351F081E08093910225
:1025B00081E090919102913009F080E0089582E0ED
:1025C000809391020E948223F3CF0E94CD1208953E
:1025D0000E94E512809313010E94CD1281110E9486
:1025E000361308950E94CD12811102C00E94391342
:1025F000089581E0909192029A3008F080E0089569
:102600000F931F93CF93DF93EC018B018091920284
:102610008A30B8F4B801CE010E948413C82F81110A
:1026200022C0809192028F3FB9F40E94681C90935F
:10263000900280938F028C2FDF91CF911F910F9189
:10264000089580918F02909190020E94801C843F97
:10265000914000F7C0E0EFCF8F5F809392028A3005
:1026600020F7C1E0E8CF10929202E5CF0E948019D6
:1026700008950E9483190895B0E0A0E0E2E4F3E138
:102680000C94B9237901C82F880FDD0B4115510532
:10269000A9F0FE0193E0EE0FFF1F9A95E1F7EC5EC3
:1026A000FE4F818192818D569D4F208130E04217EF
:1026B000530708F49A01A9010E940624CE010E9442
:1026C0006C1AD82E8823D1F001151105B9F083E0DA
:1026D000CC0FDD1F8A95E1F7FE01EC5EFE4F4381D2
:1026E00050E00417150708F4A801CC5EDE4F6C819A
:1026F0007D816D567D4FC7010E9406248D2DCDB77B
:10270000DEB7E7E00C94D5230E94761408950E946A
:102710008D140895A4E0B0E0E0E9F3E10C94BC234B
:102720006091B8027091B9028091BA029091BB0297
:102730000E948F1C11E0643671058105910518F126
:102740000E947B106E5F7F4F8F4F9F4F69837A830C
:102750008B839C8310E000E030E020E044E050E018
:10276000BE016F5F7F4F82E00E943C13182F8823C9
:1027700051F00E94741C6093B8027093B902809368
:10278000BA029093BB02812F2496E4E00C94D823E4
:10279000B0E0A0E0EEECF3E10C94B6237C015B0129
:1027A0006A010E94F91201E010E0882311F00AE0AA
:1027B00010E0C1E0D0E0B501C701F6010995811133
:1027C00004C021960C171D072CF4CDB7DEB7EAE044
:1027D0000C94D223CC9F9001CD9F300D300D11244D
:1027E00090E080E045E34A95F1F7000001968217FA
:1027F0009307C1F7E0CFADE0B0E0E1E0F4E10C9485
:10280000B6237B01C090C001D090C10101E010E06F
:102810009E01235F3F4F50E040E070E060E080E0C9
:102820000E943C13182F882309F448C056018FEFEB
:10283000A81AB80A6091B4027091B5028091B602EC
:102840009091B7020E948F1C643671058105910535
:1028500068F10CE010E09E012F5F3F4F50E040E038
:1028600070E060E081E00E943C13D82E6CE070E0E4
:10287000C5010E94631711E09D85981310E01D218A
:1028800041F10E94741C6093B4027093B50280936E
:10289000B6029093B7028CE0FE013196A8EAB2E04E
:1028A00001900D928A95E1F711E013C06CE070E0A1
:1028B000C5010E9463179D858913CBCF8CE0F6017B
:1028C0003196DE01119601900D928A95E1F7111172
:1028D000E2CF8CE0E8EAF2E0D70101900D928A9510
:1028E000E1F7812F2D96EAE00C94D2230F931F93EA
:1028F000CF93DF93EC018B014BEF53E10E94C813A0
:10290000882331F04AE853E1B801CE010E94C81390
:10291000DF91CF911F910F9108950F931F93CF9344
:10292000DF93C091C001D091C101CE0101962CE08E
:10293000FB01DC0101900D922A95E1F76CE070E05B
:102940000E94631788836D857E858F8598890091A5
:10295000A4021091A5022091A6023091A70260174F
:1029600071078207930751F06093A4027093A50248
:102970008093A6029093A7020E945E10DF91CF91F0
:102980001F910F9108950E94581E0E94B70D0E943A
:10299000651E08950E946A1E0E94C80D0E94841E32
:1029A00008950E94011C0E943E1E0E949F0D0E94DD
:1029B000C3140E94CA140E94AD0DFBCF8091C202C5
:1029C00080FF0DC06091310170E0660F771F6038A5
:1029D000710570F56115710569F1862F089581FF04
:1029E00007C06091310184E0689FB0011124EFCFEE
:1029F0006091310182FD0AC08091C1028823A9F053
:102A00002091300160913101821710F088E0ECCF05
:102A1000869FC001112433E0880F991F3A95E1F792
:102A2000622F70E00E949423D2CF68E070E0D5CF8F
:102A30008FE7089581E008958091C20280FF0CC065
:102A400060912D0170E07595679575956795611595
:102A5000710549F1862F089581FF06C060912D010F
:102A600070E075956795F3CF60912D0182FD0BC0E5
:102A70009091C0029923A1F060912C0180912D01C9
:102A8000961738F0682F70E06038710500F38FE713
:102A90000895899FC001112470E00E949423F4CF0F
:102AA00061E070E0D7CF81E008958D3C31F40E9461
:102AB000DE1481958093C60208958E3C19F40E941D
:102AC000DE14F8CF8F3C31F40E94DE1481958093A0
:102AD000C5020895803D19F40E94DE14F8CF893DA7
:102AE00029F40E941C158093C70208958A3D21F4A1
:102AF0000E941C158195F7CF8B3D31F40E941C1567
:102B000081958093C80208958C3D19F40E941C158C
:102B1000F8CF9FE2980F983070F4815D990B21E017
:102B200030E001C0220F8A95EAF78091C402822B1F
:102B30008093C40208958D3D31F48091C20281607A
:102B40008093C20208958E3D21F48091C20282607A
:102B5000F7CF8F3DB9F78091C2028460F1CF4091E9
:102B6000C5028D3C59F48091C60287FF0DC01092BA
:102B7000C60241110BC01092C10208C08E3C81F404
:102B80008091C60218169CF3442381F08091C702FD
:102B90009091C802892B09F05AC01092C002089582
:102BA0008F3C49F447FFF0CF1092C5028091C602D6
:102BB0008111ECCFE0CF803D19F41416ACF3E4CFD3
:102BC0009091C702893D29F41916F4F61092C702B4
:102BD000DBCF8A3D19F497FFD7CFF8CF9091C80289
:102BE0008B3D29F497FFD0CF1092C802CDCF8C3DFA
:102BF00019F41916CCF3C8CF9FE2980F983090F4CF
:102C0000815D990B21E030E0B90102C0660F771FAA
:102C10008A95E2F7CB0180959091C4028923809335
:102C2000C402B2CF8D3D31F48091C2028E7F809379
:102C3000C202AACF8E3D21F48091C2028D7FF7CFD0
:102C40008F3D09F0A1CF8091C2028B7FF0CF089514
:102C50000E94681C9C019091C5028091C602982B2D
:102C600021F03093BF022093BE029091C702809161
:102C7000C802982B21F03093BD022093BC0283EC54
:102C800092E00E940B1B089586E0E3ECF2E0DF0186
:102C90001D928A95E9F71092C1021092C00210921B
:102CA000C2020895FC01828181110EC083818111CD
:102CB0000BC08481811108C091E08581811101C020
:102CC00090E0892F8170089581E0FCCFA6E0B0E00C
:102CD000ECE6F6E10C94BD2386E0E3ECF2E0DE01E5
:102CE000119601900D928A95E1F71092C50210920B
:102CF000C6021092C7021092C8028B819C81892B58
:102D000089F08091BE029091BF020E94801CAC01AC
:102D10009091C1029923C9F180913201841715065F
:102D200008F440C08D819E81892B91F08091BC0276
:102D30009091BD020E94801CAC019091C002992329
:102D400009F471C080912E018417150608F479C02A
:102D5000BE016F5F7F4F83EC92E00E94B81B811130
:102D600005C083EC92E00E94521681110E94281641
:102D700086E0FE013196A3ECB2E001900D928A95B7
:102D8000E1F72696E3E00C94D923209133018AE001
:102D9000289F900111242417350720F69F5F9093F8
:102DA000C10202C09F3FD1F71B81112359F00E943D
:102DB000DE149FEF11160CF491E0899F802D1124F1
:102DC0008093C5021C81112359F00E94DE149FEFED
:102DD00011160CF491E0899F802D11248093C60276
:102DE0003091C502332309F49DCF2091C6022223DE
:102DF00009F498CF45EB3403C0011124992359F00D
:102E00009093C50245EB240390011124332339F03C
:102E10003093C60287CF81E08093C502F3CF81E073
:102E20008093C6027FCF20912F018AE0289F9001D6
:102E300011242417350708F08BCF9F5F9093C002B1
:102E400002C09F3FD1F71D81112359F00E941C152C
:102E50009FEF11160CF491E0899F802D112480932F
:102E6000C7021E81112359F00E941C159FEF1116F5
:102E70000CF491E0899F802D11248093C802309139
:102E8000C702332309F464CF2091C802222309F436
:102E90005FCF45EB3403C0011124992359F090937F
:102EA000C70245EB240390011124332339F03093FA
:102EB000C8024ECF81E08093C702F3CF81E08093B8
:102EC000C80246CF0895FC01680F791F8FEF91E388
:102ED0006E177F0709F408952191822728E030E0DA
:102EE00087FF06C0880F892721503109C9F7F0CF25
:102EF000880FFACFCF93DF93EC01FB018581882304
:102F000009F4D2C09E0130572332310508F0B2C017
:102F10000E94CB0C9093E5028093E402FE01E15005
:102F2000F047E232F10520F4E159FB4D0C94A8235F
:102F30008091E40281608093E40293C08091E50275
:102F400088608093E5028DC08091E4028260F3CFB7
:102F50008091E4028460EFCF8091E4028860EBCF3F
:102F60008091E5028160EDCF8091E5028260E9CF3A
:102F70008091E4028061DFCF8091E4028062DBCF48
:102F80008091E4028064D7CF0E9422078091E402FE
:102F90008068D1CF8091E4028C60CDCF8091E50232
:102FA0008360CFCF8091E4028E7FC5CF8091E50210
:102FB000877FC7CF8091E4028D7FBDCF8091E402EF
:102FC0008B7FB9CF8091E402877FB5CF8091E502F6
:102FD0008E7FB7CF8091E5028D7FB3CF8091E402E1
:102FE0008F7EA9CF8091E4028F7DA5CF8091E402EE
:102FF0008F7BA1CF0E9422078091E4028F779BCF25
:103000008091E402837F97CF8091E5028C7F99CFF6
:103010008091E40282FB992790F921E0922790FBAE
:1030200082F990FB83F987CF8091E502982F9095E4
:1030300091708E7F892B90FB81F983CF9091E40270
:10304000892F8F7B96FF806476CF0E942207909114
:10305000E402892F97FB87F980586DCF81E00E94A9
:10306000570D8091E4029091E5020E94D00C0E94DD
:10307000220780E0DF91CF91089580E0F0CF90911A
:10308000E402892F8F7E94FF806155CF9091E402F6
:10309000892F8E7F90FF81604ECF9091E502892F1E
:1030A000877F93FF88604DCF81E0E4CFCF93DF939C
:1030B000EB0186319C4711F50E94B50B9D81992348
:1030C00099F08A7A91E009F490E09093C902811115
:1030D00009C089E20E948D0B0E940E0C80E0DF91F6
:1030E000CF91089585E3F6CF8091C902811104C084
:1030F00089E20E94950BF0CF85E3FBCF81E0EFCF13
:103100000F931F93CF93DF93C42FD22FFC018581A0
:103110008823C9F04093CC020E94681C9093CB0294
:103120008093CA0280E28C0F883040F4C77081E03F
:1031300001C0880FCA95EAF70E94CE04DF91CF91B3
:103140001F910F9108951091CC02141332C08091F9
:10315000CA029091CB020E94801C883C910548F5E0
:10316000C0E2CD0F1D17B9F080E2810F883040F426
:10317000177081E001C0880F1A95EAF70E94D50404
:10318000C83048F481E09D2F977001C0880F9A9550
:10319000EAF70E94CE04802F0E94C504C83070F662
:1031A000D77081E001C0880FDA95EAF70E94D50454
:1031B000C5CF80E28C0F883008F6C77081E001C06F
:1031C000880FCA95EAF7F2CF0F93DB0188519C472D
:1031D00087309105A0F5FC01EF56FB4D0C94A82318
:1031E00006E221EE41EE6AE17CE7CD010E94801803
:1031F00080E00F91089507E225EE45EE6BE17CE754
:10320000F4CF06E221EE40EE68E17CE7EECF07E284
:1032100025EE44EE69E17CE7E8CF06E221EE42EEDE
:103220006CE17CE7E2CF07E225EE46EE6DE17CE75C
:10323000DCCF08E221E045EE6EE17CE7D6CF1596C3
:103240008C91882319F01092CC02D3CF81E0D1CF9A
:103250008EE1489B02C08150E1F7489BFECF089564
:10326000589880E28A95F1F7589A0895FC013BE05E
:103270003A95F1F798E020E080E031E040E14A95AE
:10328000F1F7880F489B02C08160232742E04A95EE
:10329000F1F7000040E14A95F1F7915079F790E19C
:1032A0009A95F1F799B132E03A95F1F7000040E1D3
:1032B0004A95F1F7917092272081920F908308959B
:1032C000A1E0B0E0E6E6F9E10C94BA2319828C01A2
:1032D0007C01E60EF11C0E151F0541F481E0998179
:1032E000911180E02196E6E00C94D6230E942819E3
:1032F000CE0101960E943619F80181938F01EBCF20
:10330000509A589A08955098589AE89AE9E6F0E049
:1033100080818C7F808308956150770B91E001C09C
:10332000990F6A95EAF720E031E0911108C0222355
:1033300091F0589A80E28A95F1F758980895492FAC
:10334000482339F0589A232740E24A95F1F7969599
:10335000ECCF5898F9CF5898EDCFFF920F931F9369
:10336000CF93DF93EC018C01060F111DC017D1071D
:1033700029F4CDB7DEB7E5E00C94D723F9900E948D
:10338000301968E08F2D0E948C19F0CF1F920F9298
:103390000FB60F9211240F931F932F933F934F93C8
:1033A0005F936F937F938F939F93AF93BF93EF93AD
:1033B000FF93CF93DF930F92CDB7DEB719820E94B0
:1033C0002819CE0101960E943619082F06950695F8
:1033D0000695282F22952570902F9570290F922FF2
:1033E000937026952695920F982797708981982B30
:1033F00009F05CC0043008F059C080E18A95F1F70B
:10340000589A509A82E08A95F1F700C0589888E05F
:10341000089F80011124D801AC5EBE4F1696ED9135
:10342000FC9117973097A9F06091C0017091C1018C
:1034300014962D913C911597260F371F11968D915B
:103440009C911297680F791F13964C9113978C914A
:103450000995F801EC5EFE4F6381662351F02091DF
:10346000C0013091C10184819581820F931F0E9418
:10347000AD190E94301980E18A95F1F7589850985B
:10348000589A80E18A95F1F7F801EC5EFE4F608171
:10349000662351F02091C0013091C1018181928158
:1034A000820F931F0E9460190E9428190F90DF91CC
:1034B000CF91FF91EF91BF91AF919F918F917F91AC
:1034C0006F915F914F913F912F911F910F910F90AD
:1034D0000FBE0F901F9018950F931F93CF93DF93FC
:1034E000EC0104970CF04CC0F894509A589885E081
:1034F0008A95F1F700009C2F969595708C2F85701A
:10350000980F892F83709695969523E0CC0FDD1F39
:103510002A95E1F7980F8E01092B0E94301900C0FF
:1035200068E0802F0E948C1980E18A95F1F750980D
:10353000589A489B1EC087E090E048991CC0FE0145
:10354000EC5EFE4F63816623F9F02091C00130915B
:10355000C10184819581820F931F0E94601981119E
:1035600013C0509A589A7894DF91CF911F910F9180
:10357000089500C0DECF019729F4509A589A7894A4
:1035800080E0F2CF00C0D9CF0E94281980E28A954E
:10359000F1F75898509A80E18A95F1F7CC5EDE4FAA
:1035A0006881662351F02091C0013091C101898169
:1035B0009A81820F931F0E94AD190E94301978944E
:1035C00081E0D2CF9093C3018093C201089590937C
:1035D000D3028093D20208950E94CD12811103C0BC
:1035E0008091CD020895E091D202F091D3023097FC
:1035F00029F00190F081E02D0995089580E008956B
:10360000E091D202F091D302309721F00280F38151
:10361000E02D09950895E091D202F091D302309700
:1036200039F022E0DC012C930480F581E02D09952E
:103630000895A3E0B0E0EFE1FBE10C94BE232091FC
:10364000D0023091D10228173907A1F09093D1020E
:103650008093D002E091D202F091D302309751F0E2
:1036600023E029839B838A830680F781E02DCE01A6
:10367000019609952396E2E00C94DA23A3E0B0E0EA
:10368000E4E4FBE10C94BE232091CE023091CF0202
:1036900028173907A1F09093CF028093CE02E091D2
:1036A000D202F091D302309751F024E029839B831A
:1036B0008A830680F781E02DCE0101960995239635
:1036C000E2E00C94DA239C012E5F3F4FAC01485F8F
:1036D0005F4F80E02417350709F40895F9019191AF
:1036E0009F019923B9F38F5FF5CF662349F0FC0161
:1036F000329608962191261729F0E817F907D1F795
:1037000080E0089581E008959C01FC0132969FEFCE
:1037100080E04191461751F09F3F19F4411101C0DB
:10372000982F8F5F8630A9F79F3F09F40895290FDE
:10373000311D97FD3A95F90162830895FC01329697
:1037400008962191261303C0DF0111971C92E817F8
:10375000F907B9F708950E94841B08950E949E1BE3
:103760000895029626E0FC0111922A95E9F7089542
:1037700046E050E00E94F92321E0892B09F420E083
:10378000822F089508950E94C21B0895811106C0DA
:1037900081E08093D4020E94C31B089582E0F9CF98
:1037A00083E08093D4020E94C31B08950E94C61B2D
:1037B000089581E08093D4020E94C31B08950E9463
:1037C000D91B0895089508950E94E31B0895089554
:1037D00008950E94E21B0895CF930E94E71B0E9468
:1037E0004D120E94E81BC0E08C2F0E94DA10892B3A
:1037F00031F4CF5FCC30C1F780E0CF91089581E004
:10380000FCCF85B7806885BF85B7806885BF089580
:103810001F921FB61F9211248F939F93AF93BF9354
:103820008091D502811113C08091180390911903E2
:10383000A0911A03B0911B034196A11DB11D809365
:10384000180390931903A0931A03B0931B03BF911D
:10385000AF919F918F911F901FBE1F9018958091DF
:103860002003843031F10E94A1031092D50288E137
:1038700090E020E40FB6F894A895809360000FBE06
:103880002093600083B7817F846083BF83B78160AA
:1038900083BF7894889583B78E7F83BF0FB6F894E3
:1038A000A89580916000886180936000109260000C
:1038B0000FBE08950E9422070E94A603089582E089
:1038C00084BD93E095BD9AEF97BD80936E000895F7
:1038D0002FB7F8948091180390911903A0911A03BF
:1038E000B0911B032FBF08952FB7F8946091180370
:1038F0007091190380911A0390911B032FBF0895B3
:103900009C014FB7F8948091180390911903A091EE
:103910001A03B0911B034FBF821B930B0895CF92E4
:10392000DF92EF92FF922FB7F894C0901803D090D7
:103930001903E0901A03F0901B032FBFA701960113
:10394000261B370B480B590BCA01B901FF90EF90AA
:10395000DF90CF90089578941F921FB61F92112484
:103960008F939F93AF93BF93809118039091190306
:10397000A0911A03B0911B030196A11DB11D809364
:10398000180390931903A0931A03B0931B03BF91DC
:10399000AF919F918F911F901FBE1F90189581E04E
:1039A0008093E00080E28093D8001092C9008FE1FC
:1039B0009EE40197F1F700C0000087E090EBDC0186
:1039C0008093290390932A03A0932B03B0932C0395
:1039D00088E19CE00FB6F894A895809360000FBE34
:1039E00090936000FFCF88E19CE00FB6F894A89513
:1039F000809360000FBE90936000FFCF8091DE0245
:103A000008959B01BA01909120039430E9F48F70DE
:103A10008093E9009FEF8091E800915085FD06C0FA
:103A200085ED8A95F1F700009111F5CF8091E800BE
:103A300085FF0AC050E040E0C9010E94FB1E809152
:103A4000E8008E778093E800089543E050E0BC01E1
:103A500082E00E94011D089546E050E0BC0182E032
:103A60000E94011D0895CF93DF93EC0148E050E0E0
:103A7000BC0181E00E94011D88E0FE01A6EDB2E0DC
:103A800001900D928A95E1F7DF91CF910895809191
:103A90001F03811109C00E948B200E94E8208091A1
:103AA000E20084608093E200089510921F0308955D
:103AB0000E94D91B089560911C0381E0611101C02F
:103AC00080E00E94D01B08959091200381E0943003
:103AD00009F080E060911C030E94D61B089542E02B
:103AE00061EC81E00E94072042E261EC82E00E94EA
:103AF00007209091200381E0943009F080E06091EC
:103B00001C030E94C61B089580912203833009F490
:103B100061C030F48130D1F1823009F49EC0089543
:103B20008A3009F48AC08B3009F46FC0893009F0FB
:103B300050C080912103813209F04BC08091250350
:103B400090912603029708F044C08091E800877F97
:103B50008093E8008091E80082FF37C09091F300E5
:103B60008091F200029731F48091F100813011F0E0
:103B7000863021F48091F1008093DE028091E8008C
:103B80008B778093E8000E943B2023C08091210323
:103B9000813AF9F48091E800877F8093E800809172
:103BA000250390912603892B61F468E086ED92E06D
:103BB00070E00E944A1F8091E8008B778093E800B4
:103BC000089560E090E080E0F3CF809120038111C0
:103BD000C1CF089580912103813AD9F780912503BF
:103BE00090912603892BA9F78091E800877F809325
:103BF000E8008091E80080FFFCCF80913C01809339
:103C0000F1008091E8008E77BCCF80912103813252
:103C100001F78091250390912603892BD1F680919D
:103C2000E800877F8093E8000E943B208091230377
:103C300080933C010E9422070895809121038132E4
:103C400041F68091E800877F8093E8000E943B2046
:103C5000809124038093DF02089580912103813AAB
:103C600009F0B7CF8091E800877F8093E8008091CA
:103C7000E80080FFFCCF8091DF02C1CF84B7877F4F
:103C800084BF0FB6F894A8958091600088618093F6
:103C90006000109260000FBE80E890E00FB6F894CC
:103CA00080936100909361000FBE0E94DF1B089516
:103CB0000E948B200E94E820E2EEF0E08081846088
:103CC000808378940E946723089584E391E00E94A2
:103CD000E71A089580912003853031F48091200304
:103CE000853019F00E945A1C08950E942F1C809163
:103CF0001E03882399F30E94EC1B882379F30E940A
:103D0000E51E0E942207EACF08959A0140912703F9
:103D1000509128030E948D1E0895492F5527433046
:103D2000510519F168F44130510509F444C042309D
:103D3000510509F445C090E080E050E040E025C026
:103D40004132510549F142325105A9F780E490E032
:103D50004EEA54E061157105C1F08BE790E043E352
:103D600054E06130710589F0E6CF992781309105E3
:103D700081F0009729F00297F1F6E4ECF3E002C03D
:103D8000E2EEF3E0849190E0AF01F90151834083CA
:103D90000895E2EDF3E0F6CF89E090E048EF53E0DC
:103DA0006115710591F389E090E041E154E06130E3
:103DB000710559F3C0CF82E190E041E254E0E5CFD4
:103DC0008BE390E046EE53E0E0CF80E189BD82E1F5
:103DD00089BD09B400FEFDCF8091D8008F7D80930E
:103DE000D8008091E00082608093E0008091E00044
:103DF00081FDFCCF0895AF92BF92CF92DF92FF92E8
:103E00000F931F93CF93DF936C01EB018A010E9404
:103E10005A20F82E811123C00115110539F0F8013F
:103E200080819181C81BD90BC80ED91EB12CA12C41
:103E30002097A9F08091E80085FD22C08091E800DC
:103E40008E778093E80001151105A1F0F8018081BB
:103E50009181A80EB91EB182A08285E0F82E8F2D27
:103E6000DF91CF911F910F91FF90DF90CF90BF9086
:103E7000AF9008950E945A208823D1F2F82EEFCFF8
:103E8000F60181916F018093F1002197FFEFAF1A46
:103E9000BF0ACECFFC01809127039091280386179B
:103EA0009707A0F06115710529F49091E8009E77BD
:103EB0009093E80090E06115710551F4911108C0EC
:103EC0008091E80082FF34C080E00895BC01F2CF09
:103ED000809120038823C1F18530C1F18091E800F1
:103EE00083FD30C08091E80082FDEACF8091E80038
:103EF00080FFE1CF8091F3002091F200382F61150F
:103F0000710519F02830310558F091E0283031055D
:103F100009F090E02091E8002E772093E800CBCFC5
:103F200081918093F100615071092F5F3F4FE7CF7E
:103F300080912003882341F0853041F08091E80092
:103F400083FFBECF81E0089582E0089583E0089565
:103F5000FC01809127039091280386179707A0F012
:103F60006115710529F48091E8008E778093E8004F
:103F700090E06115710551F4911108C08091E8003D
:103F800082FF35C080E00895BC01F2CF809120030C
:103F90008823C9F18530C9F18091E80083FD31C0E3
:103FA0008091E80082FDEACF8091E80080FFE1CFB8
:103FB0008091F3002091F200382F6115710519F0FE
:103FC0002830310558F091E02830310509F090E0B3
:103FD0008091E8008E778093E800CBCF8491809326
:103FE000F1003196615071092F5F3F4FE6CF80910C
:103FF0002003882341F0853041F08091E80083FF61
:10400000BDCF81E0089582E0089583E00895982F60
:10401000973028F08F708093E90081E008959093A5
:10402000E900242F762F50E0981731F07091EC00C2
:104030002091ED005091F00021FD02C09F5FE8CF7C
:104040003091EB003E7F3093EB003091ED003D7FEF
:104050003093ED003091EB0031603093EB007093C2
:10406000EC002093ED005093F0002091EE0027FD2E
:10407000E5CF80E008958091210387FF13C08091F0
:10408000E80082FF06C08091E8008B778093E8000B
:1040900004C0809120038111F2CF08958091200304
:1040A0008823D9F38091E80080FFF8CF8091E80061
:1040B0008E77ECCF2091E4003091E50095E6A901E0
:1040C0002091EC00822F817020FF06C08091E800D3
:1040D00080FF06C080E008952091E80022FD1AC00C
:1040E00080912003882389F0853089F08091EB004E
:1040F00085FD0FC02091E4003091E5004217530781
:10410000F9F29150E1F684E0089582E0089583E0A9
:10411000089581E008950E94FA200E940221E0EEB5
:10412000F0E0808181608083E8EDF0E080818F772E
:10413000808319BCA7EDB0E08C918E7F8C93808139
:104140008F7E808310921F0308950F931F93CF9348
:10415000DF930E94FA200E940221C8EDD0E08881FE
:104160008F77888388818068888388818F7D888322
:1041700019BC1092200310921C0310921E0310927F
:104180001D0300EE10E0F80180818B7F8083888121
:104190008160888342E060E080E00E940720E1EED9
:1041A000F0E080818E7F8083E2EEF0E080818160AC
:1041B0008083808188608083F80180818E7F808306
:1041C000888180618883DF91CF911F910F9108953D
:1041D000E8EDF0E080818F7E8083E7EDF0E0808184
:1041E0008160808384E082BF81E080931F030E940E
:1041F000A5200895E8EDF0E080818E7F8083109205
:10420000E20008951092DA001092E10008951F92E2
:104210000F920FB60F9211242F933F934F935F93FA
:104220006F937F938F939F93AF93BF93EF93FF937E
:104230008091E10082FF0BC08091E20082FF07C005
:104240008091E1008B7F8093E1000E946623809142
:10425000DA0080FF19C08091D80080FF15C08091DE
:10426000DA008E7F8093DA008091D90080FF96C0BB
:1042700080E189BD82E189BD09B400FEFDCF81E006
:10428000809320030E94471D8091E10080FF19C0A8
:104290008091E20080FF15C08091E2008E7F8093C4
:1042A000E2008091E20080618093E2008091D8007A
:1042B00080628093D80019BC85E0809320030E941F
:1042C0005B1D8091E10084FF2BC08091E20084FFA0
:1042D00027C080E189BD82E189BD89B5982F9170A1
:1042E00080FFFBCF8091D8008F7D8093D800809194
:1042F000E1008F7E8093E1008091E2008F7E8093C9
:10430000E2008091E20081608093E20080911C03D2
:10431000882309F449C084E0809320030E94641D2F
:104320008091E10083FF29C08091E20083FF25C0D6
:104330008091E100877F8093E10082E080932003F9
:1043400010921C038091E1008E7F8093E1008091A8
:10435000E2008E7F8093E2008091E2008061809392
:10436000E20042E060E080E00E9407208091F000DF
:1043700088608093F0000E94581DFF91EF91BF91DB
:10438000AF919F918F917F916F915F914F913F91ED
:104390002F910F900FBE0F901F90189519BC10927F
:1043A00020030E94551D70CF8091E30087FD93E0AC
:1043B00090932003B3CF1F920F920FB60F92112448
:1043C0002F933F934F935F936F937F938F939F931D
:1043D000AF93BF93CF93DF93EF93FF93D091E90017
:1043E000DF708091EC00C82FC17080FDC0E8109292
:1043F000E9008091F000877F8093F00078940E941C
:104400001F221092E9008091F00088608093F000F4
:10441000CD2BCF70C093E900FF91EF91DF91CF9149
:10442000BF91AF919F918F917F916F915F914F91CC
:104430003F912F910F900FBE0F901F901895AAE2F9
:10444000B0E0E5E2F2E20C94BD2381E293E020913A
:10445000F100FC012193CF01F3E089329F07B9F706
:104460000E94841D8091E80083FF1EC1809121037A
:10447000909122039A3008F017C1E92FF0E0E85636
:10448000FB4D0C94A823803899F0823809F00CC1B8
:10449000809125038F70873008F006C18093E90072
:1044A0008091EB0085FB882780F91092E90006C017
:1044B00080911D0390911E03911182609091E800FC
:1044C000977F9093E8008093F1001092F100809123
:1044D000E8008E77E5C0882309F4D3C0823009F064
:1044E000E3C0809123038111D6C0809125038F7092
:1044F0002FEF280F263008F0D7C08093E9002091D5
:10450000EB0020FFC8C0933031F48091EB00806253
:104510008093EB00C0C09091EB0090619093EB0012
:1045200021E030E001C0220F8A95EAF72093EA00EB
:104530001092EA008091EB008860EACF8111B4C04C
:10454000109123031F778091E3008078812B809363
:10455000E3008091E800877F8093E8000E943B2081
:104560008091E80080FFFCCF8091E3008068809319
:10457000E30082E0111183E08093200395C080580E
:10458000823008F091C080912303909124038C3DE8
:1045900023E09207A1F583E08A838AE289834FB7FB
:1045A000F894DE01139620E03EE051E2E32FF0E0C4
:1045B00050935700E49120FF03C0E295EF703F5FF6
:1045C000EF708E2F90E0EA30C0F0C7968D939D93E8
:1045D0002F5F243159F74FBF8091E800877F809388
:1045E000E8006AE270E0CE0101960E944A1F8091C5
:1045F000E8008B778093E80057C0C096E7CF6091C2
:10460000250370912603AE014F5F5F4F0E94851E08
:10461000BC01892B09F448C09091E800977F9093E2
:10462000E80089819A810E94A81FE1CF8038E1F5D6
:104630008091E800877F8093E80080911C0380933D
:10464000F10045CF811130C090912303923060F585
:104650008091E800877F8093E80090931C030E947C
:104660003B2080911C03882311F084E005C08091D9
:10467000E30087FDFACF81E0809320030E946F1D45
:1046800013C080912303813079F481E0933009F0E5
:1046900080E080931E031092E9008091E800877FFC
:1046A0008093E8000E943B208091E80083FF0AC0CD
:1046B0008091E800877F8093E8008091EB00806222
:1046C0008093EB00AA96E3E00C94D9230895CF934E
:1046D000809120038823A1F0C091E900CF709091D0
:1046E000EC00892F817090FD80E8C82B1092E900C2
:1046F0008091E80083FD0E941F22CF70C093E900E3
:10470000CF9108950E948B20109220030895E8ED28
:10471000F0E08081806180838AE18A95F1F700C0B2
:104720008091D9008170089597FB072E16F40094AC
:1047300007D077FD09D00E94E52307FC05D03EF4A1
:10474000909581959F4F0895709561957F4F08953D
:10475000EE0FFF1F0590F491E02D09942F923F92E8
:104760004F925F926F927F928F929F92AF92BF9281
:10477000CF92DF92EF92FF920F931F93CF93DF932D
:10478000CDB7DEB7CA1BDB0B0FB6F894DEBF0FBE8A
:10479000CDBF09942A88398848885F846E847D84D7
:1047A0008C849B84AA84B984C884DF80EE80FD80D9
:1047B0000C811B81AA81B981CE0FD11D0FB6F8944F
:1047C000DEBF0FBECDBFED010895AA1BBB1B51E19B
:1047D00007C0AA1FBB1FA617B70710F0A61BB70B71
:1047E000881F991F5A95A9F780959095BC01CD0116
:1047F0000895FB01DC0104C08D910190801921F422
:1048000041505040C8F7881B990B0895FB01DC010B
:1048100002C001900D9241505040D8F70895F99987
:10482000FECF92BD81BDF89A992780B50895A8E181
:10483000B0E042E050E00C945324DC01A40FB51F1B
:104840004150504048F0CB01840F951F2E910E949B
:104850002E2441505040D0F70895262FF999FECFCD
:1048600092BD81BDF89A019700B4021639F01FBAC3
:1048700020BD0FB6F894FA9AF99A0FBE08950396E0
:10488000272F0E942E240E942D24252F0E942E24A3
:10489000242F0C942E240196272F0E942E240C9452
:1048A0002D24DC01CB01FC01F999FECF06C0F2BD3D
:1048B000E1BDF89A319600B40D9241505040B8F7DE
:1048C0000895F894FFCF1B051B056B056B05D005FC
:1048D000EC054A054A05F105620671067106D21714
:1048E0004618DA17A417A817DE17AC17E217EE1749
:1048F000B8173F18BC17F217C017F6171E18C417C1
:10490000FA172518CA1700180818B017E617B417B1
:10491000EA17CE17041814182E183D189E17D6172C
:104920004D1801190719F018FB180D191319191949
:1049300043226B2254236B2254239E22BF225423F2
:0449400016232223F5
:104944005E0293929194323331F7F6F5F43666971A
:10495400C634350100000001000000000000000C16
:1049640001000000040D00000000000028085001B0
:104974001E0A1401FE1C331D2C1D251D0135363263
:104984003331F79291946697C63493F6F5F4E200C6
:10499400E900EA00B500B600B700CD008301CC0001
:1049A4008A01920194012102230224022502260293
:1049B40027022A02B300B4006F0070009F01CB01EC
:1049C4009F02A002818283E200E900EA00B500B6FA
:1049D40000B700CD008301CC008A0192019401212B
:1049E40002230224022502260227022A02B300B46B
:1049F400006F0070009F01CB019F02A0028182839F
:024A040093021B
:00000001FF
