:100000000C94FD020C94E01D0C9435030C94350304
:100010000C9435030C9435030C9435030C94350380
:100020000C9435030C9435030C941C230C94EF238F
:100030000C94331C0C9435030C9435030C94350349
:100040000C9435030C9435030C9435030C94350350
:100050000C9435030C94EB1C0C9435030C94350371
:100060000C9435030C9435030C9435030C94350330
:100070000C9435030C9435030C9435030C94350320
:100080000C9435030C9435030C9435030C94350310
:100090000C9435030C9435030C9435030C94350300
:1000A0000C9435030C9435030C94350300000000C8
:1000B0000000000029003A003B003C003D003E00EB
:1000C0003F002A00380025022D0035001E001F00C9
:1000D000200021002200230000002400250026002B
:1000E0002B0014001A0008001500170000002E0253
:1000F00021002200230021520400160007000900FD
:100100000A00000000001E001F002000E1001D008A
:1001100000001B000600190005002800370027001A
:100120000000E000E3000000E20022522C0000008A
:100130000000400041004200430044004500000030
:100140000000000000000000240025002600270019
:100150002D002E002A0049004A004B001C00180008
:100160000C00120013002F00300031004C004D0035
:100170004E000B000D000E000F0033003400000095
:1001800028000000000000000500110010003600EB
:10019000370038000000E1000000520000002A0093
:1001A0000000E60000000000E40001000100500033
:1001B00051004F000000000000000000010001009D
:1001C0000100010001000100010001000100010027
:1001D0000100010001000100010001000100010017
:1001E00000000100010001000100010001005200B7
:1001F00001000100000001000100010001000100F8
:100200000100500051004F000100000000000100FB
:1002100001000100010001000000010001000100D7
:1002200001000100010001000000010001000000C8
:1002300001000100010000000000010001000100B8
:1002400001000100010000000000000000000000AB
:100250000100010001000100010001000100010096
:100260000100010001000100520001000100010035
:1002700001000100010001000100010050005100D7
:100280004F0001000100000001000000000000001C
:100290000100010001000100010001000000010057
:1002A0000000010000004C00000001000000000000
:1002B0000100010001004A0001004D0000000000A3
:1002C00000000000007C01000100010001000100AD
:1002D0000100010001000100010001000100010016
:1002E0000100010001000100000001000100010007
:1002F00001000100010001000100010000000100F7
:10030000010001000100010001004A0001004D0050
:1003100001000000000001000100010001000100D7
:1003200000000100010001000100010001000100C6
:1003300000000100010000000100010001000000B8
:1003400000000100010001000100010001000000A7
:100350000000000000000000010001000100010099
:100360000100010001000100010001000100010085
:100370000100010001000100010001000100010075
:10038000010001004A0001004D00010001000000D1
:100390000100000000000000010001000100010058
:1003A00001000100000001000000010000004C00FD
:1003B00000000100000000000100010001004A00EF
:1003C00001004D00000000000000000029003A007C
:1003D0003B003C003D003E003F002A003800250263
:1003E0002D0035001E001F002000210022002300E8
:1003F00000002400250026002B0014001A0008002D
:100400001500170000002E022100220023006E00BC
:1004100004001600070009000A00000000001E008A
:100420001F002000E1001D0000001B000600190055
:1004300005002800370027000000E400E00000006D
:10044000E300E2002C0000000000400041004200F8
:1004500043004400450000000000000000000000D0
:1004600024002500260027002D002E002A00490028
:100470004A004B001C0018000C00120013002F0053
:10048000300031004C004D004E000B000D000E00FE
:100490000F003300340000002800000000000000BE
:1004A0000500110010003600370038000000E100A0
:1004B0000000520000006F0000006D00000000000E
:1004C0004C0070007100500051004F000C0365009B
:1004D0006E0074007200790000000E03680079005D
:1004E00065006C006900650000000403090409024E
:1004F0003B00020100A0FA09040000010301010011
:1005000009211101000122440007058103080001AF
:10051000090401000103000000092111010001226A
:100520007B00070582032000011201000200000089
:1005300008EDFE000000010102000105010902A111
:100540000185020901A100050919012908150025E5
:1005500001950875018102050109300931158125D0
:100560007F95027508810609381581257F950175EB
:10057000088106050C0A38021581257F950175084A
:100580008106C0C005010980A101850319012AB7B0
:1005900000150126B700950175108100C0050C09F2
:1005A00001A101850419012AA002150126A00295C6
:1005B0000175108100C005010906A101050719E0B8
:1005C00029E7150025019508750181029501750837
:1005D00081010507190029FF150026FF0095067502
:1005E00008810005081901290515002501950575E3
:1005F000019102950175039101C011241FBECFEF37
:10060000DAE0DEBFCDBF04B603FE18C0809135032B
:1006100090913603A0913703B09138038730904B07
:10062000A740B04B59F41092350310923603109244
:10063000370310923803E0E0F8E3099511E0A0E0F9
:10064000B1E0E8E9FDE402C005900D92A23CB107DB
:10065000D9F723E0A2ECB1E001C01D92A533B207A7
:10066000E1F70E948A150C9479260C940000CF9330
:10067000DF93C82F0E947419D82F882329F0C33024
:1006800039F048F0C43039F08D2FDF91CF910895C3
:1006900083E00E94530880E00E945308F5CF843025
:1006A000B8F46C30A8F44B3098F4E42FF0E09BE001
:1006B000699FE00DF11D112494E8899FE00DF11D63
:1006C0001124EE0FFF1FE455FF4F8591949108957B
:1006D00081E090E008950E944F03089581E008951D
:1006E0000E946E03089581E008950E946E030895AC
:1006F0000E947503089508950E947B030895A6E063
:10070000B0E0E5E8F3E00C94D52549835A839E8355
:100710003091C90189819A8131111AC03E813323F8
:1007200099F0222389F00E942609182F682F8981C9
:100730009A810E94020969817A81812F0E940510A5
:100740002696E3E00C94F1250E941409182FF3CFAC
:100750000E94260969817A81F1CFFC01262F408110
:10076000518162817381848195810E947F03089504
:10077000CF93DF93D82FC92F61E00E94AD036D2F77
:100780007C2F0E947003DF91CF910895CF93DF9368
:10079000D82FC92F60E00E94AD036D2F7C2F0E94DF
:1007A0007C03DF91CF91089581E008950E94D403E6
:1007B0000895CF93C82F0E94D4078C2F0E94D60390
:1007C0002FEF84E39CE0215080409040E1F700C08F
:1007D0000000CF91089581E00E94D9030E940F1D6F
:1007E000089580E00E94D9030E94331D08950F935D
:1007F0001F93CF93DF938C0161E00E94AD03EC0166
:10080000B8010E9478038823B1F1B801CE010E949B
:100810008B1A882381F1B801CE010E940216882329
:1008200051F1B801CE010E94D715882321F1F801BA
:100830008581882381F0CA35FCE7DF0739F178F438
:10084000C130ECE7DE07F9F0C330FCE7DF07C9F0A1
:10085000C115DC4771F0C8010E9473030DC0CB3590
:10086000ECE7DE07B1F0CC35DC47A9F70E94280D94
:10087000F2CF0E94EB0380E0DF91CF911F910F91A7
:1008800008950E943A0D0E94F103F5CF0E94320DA7
:10089000E2CF0E94360DDFCF0E940F1C0E9473042E
:1008A00008950E9477040E94141C0895089581E021
:1008B00008950895CF93DF93D82F0E945704C82F2F
:1008C000882319F08D2F0E9459048C2FDF91CF912E
:1008D00008950895CF93C82F0E9456048C2F0E942C
:1008E0005A04CF91089580E00E946A0408950E94FE
:1008F000D11A0E946A040895CF930E94D11AC82F7A
:100900008091C4018C1779F0C093C4010E949F1C90
:100910006093C5017093C6018093C7019093C8018D
:100920008C2F0E946A04CF910895ADE0B0E0EBE90E
:10093000F4E00C94D625488759876A877B878C8793
:100940009D8791110E94650C1F8286E0FE013896FA
:10095000DE01119601900D928A95E1F78D8181114A
:100960000DC029813A814B815C816D817E818F81AF
:100970000E94AB0B2D96E2E00C94F225CE0101967D
:100980000E94B8038111EDCFF5CFFC018481813045
:1009900021F4808191810E9458090895662329F0ED
:1009A0000E9470170E94461808950E94CE17FACF31
:1009B000CF93C82F882399F08CEF8C0F813A88F45D
:1009C0008C2F0E945F1B882329F08C2F0E94A41B70
:1009D0000E94D60C8C2F0E949C1B0E94D60CCF919B
:1009E000089580E28C0F883048F4C77081E001C020
:1009F000880FCA95EAF70E94460CEFCF8BE58C0F63
:100A0000833038F42C2F2452330BC9010E94FF1A73
:100A1000E6CFE8E5EC0FEB3150F4F0E0EE0FFF1F0E
:100A2000EF5BFE4F808191810E94251BD8CF83E32D
:100A30008C0F8331A0F661E08C2F0E94CE04CFCFC3
:100A4000882381F19CEF980F913A28F40E94A41B0F
:100A50000E94D60C089590E2980F983050F4877059
:100A600091E001C0990F8A95EAF7892F0E944C0CFA
:100A7000EFCF9BE5980F933028F480E090E00E9440
:100A8000FF1A089598E5980F9B3128F480E090E0D4
:100A90000E94251B089593E3980F933118F460E0AA
:100AA0000E94CE0408951F93CF93DF93182FEB017C
:100AB0000E94D804209739F4812F0E942005DF91ED
:100AC000CF911F9108958FE99FE00197F1F700C042
:100AD00000002197EFCF60E070E0893311F460E50A
:100AE00070E00E9453050895882321F00E94460C6F
:100AF0000E94D60C0895882321F00E944C0C0E947D
:100B0000D60C0895A0E0B0E0E8E8F5E00C94D0251C
:100B10006C01D62FC72FFC011581068102950F703D
:100B20000E943B0CE82E8823F9F0E12E1123E1F01E
:100B30008C2F807F803461F080E28D0F8830F0F060
:100B40008C2F807E803221F4D230C0F00023B1F0AF
:100B50008091ED0282FF12C082E00E94FB0C0E9495
:100B60003B0C91E0E82EE926EC2FE295EF70C03CBB
:100B7000B0F5F0E0E558F94D0C94C025E12CF4CF28
:100B80000C2F0F70C03110F00295007F112399F0E7
:100B9000002359F080E28D0F883010F0D11107C08A
:100BA000802F0E94460C0E94D60C8D2F51C0802FA2
:100BB0000E94570CF8CF8D2F0E942005002379F05A
:100BC00080E28D0F883010F0D11104C0802F0E9478
:100BD0004C0C03C0802F0E945D0C0E94D60CEE20AE
:100BE00089F00E94370C80FD0DC0F60115820E942D
:100BF000310C0E945F08C6010E949B070E94310CC5
:100C00000E946F08CDB7DEB7E8E00C94EC25FC2F0E
:100C1000FF70FF2EC07FC03219F0F29480EFF822EF
:100C2000DD2341F0D130D1F1112309F444C0002378
:100C3000F1F0BBCF8091ED0282FD15C0112359F078
:100C4000FF2029F08F2D0E94460C0E94D60C80E0D8
:100C50000E94D804C4CF80E00E942005FF2009F440
:100C6000BECF8F2DB4CF112369F0011104C08F2D99
:100C70000E947405B4CF013009F0B1CF8F2D0E94CE
:100C80007D0CADCF0111ABCF8F2D0E947B058F2D39
:100C90000E94890C8F2D0E946C0CA1CF112321F092
:100CA000063008F09CCFE3CF053008F098CF8F2DA9
:100CB0000E947B0594CF0023D1F3D93349F42FEF61
:100CC00087EE93E0215080409040E1F700C00000A3
:100CD0008D2F0E94200583CF8C2F8695869583705B
:100CE000882369F0813009F07ACF8D2F9C2F937083
:100CF000111102C080E090E00E94251B70CF8D2F63
:100D00009C2F9370111102C080E090E00E94FF1AA6
:100D100066CF612F8D2F0E94CE0461CF8C2F837000
:100D2000811139C0111129C04D2F42954695477048
:100D3000440F440F2D2F2F7030E0042E02C0220FDD
:100D4000331F0A94E2F780E090E0D4FF09C08FE0FF
:100D500090E002C0880F991F4A95E2F78095909520
:100D6000C695C695C370822B932BC23071F0C330E9
:100D700079F0C13039F00E942F080E94D11A0E94E8
:100D80006A042DCF0E942608F8CF0E943808F5CFBC
:100D90000E942308F2CF112361F1C0FFEECF4D2F47
:100DA000429546954770440F440F2D2F2F7030E029
:100DB000042E02C0220F331F0A94E2F780E090E075
:100DC000D4FF09C08FE090E002C0880F991F4A95B8
:100DD000E2F780959095C695C695C370822B932BAC
:100DE000C23069F0C33071F0C13031F00E949A080E
:100DF000C4CF823010F2D3CF0E949108BECF0E94A0
:100E0000A308BBCF0E944708B8CFCF70112339F099
:100E10008C2F0E945F088D2F0E947405AECF8D2FFE
:100E20000E947B058C2F0E946F08A7CFD23F31F123
:100E300070F4D03FB9F0D13FB1F1112309F451C0A2
:100E4000002309F44BC08D2F0E94D80496CFD33FC6
:100E5000E1F0D43F21F11111F3CF011150C08C2FDB
:100E60008F71E1CF112341F0053008F086CF8C2F30
:100E70008F710E94810881CF0530F7CF8C2F8F7141
:100E80001111D1CF0E945F0878CF112329F08C2F48
:100E90008F710E94530871CF0E944E086ECF8091CF
:100EA000ED0282FD06C08C2F8F71112309F4BBCF98
:100EB000E9CF112349F0CF718C2F0E945F0863E0C6
:100EC0008C2F0E94DD0C59CF81E00E94FB0C023078
:100ED00008F453CF82E00E94FB0C4FCF8C2F8F7110
:100EE000D1CF002309F4BBCFD93349F4EFEFF7EEAC
:100EF00023E0E150F0402040E1F700C000008D2FDA
:100F00000E9420053ACF0F931F93CF93DF93EC01FC
:100F1000688179818D810E9465098C010E94AC08ED
:100F20000E942208B801CE010E948205DF91CF9174
:100F30001F910F910895CF93DF93EC018C8188234B
:100F400099F0CE010E94F703811111C00E943B0C61
:100F5000882351F08D81882339F08091ED0282FF42
:100F600003C082E00E94FB0CDF91CF910895CE0177
:100F70000E948307CE010E94C603F6CF80E090E076
:100F80000E94FF1A80E090E00E94251B0E94650CE1
:100F90000E94D60C0E9463180E94461808950E9471
:100FA000AC1B0E94BE0708950E94540C0E94CF07FC
:100FB0000895282F92959F70963091F060F4925F7B
:100FC0009F70923030F481E0203F79F030F4283E79
:100FD00030F080E008959A5FF3CF243FD1F7089571
:100FE00081E0283EE0F3213FF9CF0895FC018481A0
:100FF000882339F0808191810E9458090E94D90785
:10100000089580E00895A6E0B0E0E9E0F8E00C94EF
:10101000D6252696E2E00C94F225A7E0B0E0E3E1C5
:10102000F8E00C94D6252796E2E00C94F22508957A
:101030000E94170808950E94180890931102809347
:101040001002089508950E941B080895209110022F
:1010500030911102822B932B0E941B08089520913E
:10106000100230911102822393230E941B080895DD
:101070002091100230911102822793270E941B08B1
:1010800008950E94170808950E94410808950E943B
:10109000440890930F0280930E02089580E090E040
:1010A0000E944708089521E030E0A90102C0440FE2
:1010B000551F8A95E2F7CA010E944708089521E06A
:1010C00030E002C0220F331F8A95E2F780910E02B2
:1010D00090910F02822B932B0E944708089521E0E4
:1010E00030E002C0220F331F8A95E2F72095309539
:1010F00080910E0290910F02822393230E94470851
:10110000089521E030E002C0220F331F8A95E2F7F4
:1011100080910E0290910F02822793270E94470828
:10112000089520910E0230910F02822B932B0E9482
:101130004708089520910E0230910F0282239323D5
:101140000E944708089520910E0230910F028227D5
:1011500093270E944708089508959B01677091E0C6
:1011600001C0990F6A95EAF763E0369527956A956D
:10117000E1F7220F331F220F331FFA01E20FF31F93
:1011800040E050E0682F70E08191DF0111979B01F2
:10119000042E02C0369527950A94E2F72170219516
:1011A0002827292328272C934F5F5F4F4430510570
:1011B00059F708959C01982F977083E036952795ED
:1011C0008A95E1F7220F331F220F331FFB01E20F35
:1011D000F31F40E050E080E0219130E0092E02C092
:1011E000369527950A94E2F721703327042E01C023
:1011F000220F0A94EAF7822B4F5F5F4F443051056C
:1012000059F70895282F862F9C3068F42B3058F416
:10121000622F70E02BE0929F600D711D11244AEC4B
:1012200051E00E94AD080895292F9C3068F48B305E
:1012300058F490E06AEC71E03BE0239F800D911D33
:1012400011240E94DA08089580E00895A0E0B0E03B
:10125000ECE2F9E00C94CF258C01E0900E02F090C6
:101260000F028091100290911102E82AF92ACFE032
:10127000D0E0CC24C394D12CC6010C2E02C0880F20
:10128000991F0A94E2F78E219F21892B49F4219717
:1012900098F7B12C8B2DCDB7DEB7E9E00C94EB2598
:1012A000BC2EB8018C2F0E941110019781F3F2CF50
:1012B000CF93DF93D82FC92F0E9426096D2F7C2F43
:1012C0000E941110DF91CF9108951F93CF93DF9368
:1012D000162FD72F9091C901992341F0862F972F70
:1012E0000E945809DF91CF911F910895882381F0C2
:1012F000862F972F0E942609C82F682F812F9D2F98
:101300000E940209612F7D2F8C2F0E941110EACFBD
:10131000862F972F0E941409C82FF4CF0F931F9385
:10132000CF93E0911202C7E0809113028E1304C0A4
:10133000CF911F910F9108950E2F10E0CE9FF001D5
:101340001124EC5EFD4F2081318142815381648103
:10135000758186810E940D08F8013196E770E4CF0F
:1013600020914C0230914D0240914E0250914F021B
:101370006091500270915102809152020E940D08BA
:10138000089580915202803178F48091510288232F
:1013900059F0E09112022091130230914D024091D8
:1013A0004C0257E02E1301C008956E2F70E05E9F2F
:1013B000F0011124DF01AC5EBD4F14968C9114979F
:1013C000882361F111968C911197831327C08C911A
:1013D000841324C015968C91159781111FC0129605
:1013E0008D919C91A0914E02B0914F028A1B9B0B54
:1013F000883C910598F4809152028F7080618093AF
:101400005202E65EFD4F80818F70806180838CE4A4
:1014100092E00E949B070E948E090895FB0131967D
:10142000E770C0CFE09112029091130227E0E91318
:1014300002C080E00895AE2FB0E02E9FF00111248D
:10144000EC5EFD4F3181361306C03081381303C086
:101450003581341304C0FD013196E770E8CF81E097
:1014600008958F929F92AF92BF92DF92EF92FF9278
:101470000F931F93CF93DF93CDB7DEB72D970FB6A2
:10148000F894DEBF0FBECDBF8C0186E0F801DE010F
:10149000189601900D928A95E1F7F801E080F580A9
:1014A000A280B38084819CE4892E92E0992E909151
:1014B000500291111BC0882309F4FCC0FF2009F4DD
:1014C0003DC1C8010E94F607882309F437C187E0AF
:1014D000F801D40101900D928A95E1F7C4010E94B0
:1014E000C5040E94C1090E94B009E4C0D090510215
:1014F00020914E0230914F02A501421B530BDD207B
:1015000009F4DBC0483C510508F0A6C0882309F463
:10151000D1C090914D02918080915202803108F0AB
:101520006BC0991228C090914C029E1124C0F110FA
:101530005DC08F708061809352020E94B0098CE47C
:1015400092E00E949B0780915202F8018683F12C61
:101550008F2D2D960FB6F894DEBF0FBECDBFDF9155
:10156000CF911F910F91FF90EF90DF90BF90AF90C0
:101570009F908F900895F11039C040E0692D8E2D15
:101580000E94120A40E0692D8E2D0E94120AF82E48
:101590008111DDCF888599850E945809292F2295D0
:1015A0002F70903450F49F70223080F0992399F07E
:1015B000F8019681903178F4CBCF2A5F2F702230DA
:1015C00078F0C8010E949B07FD2CC2CF992319F027
:1015D000882309F4BDCF805E883008F4B9CFF1CFFD
:1015E000803F08F4B5CF815F8230F7CF80915202FF
:1015F000816080935202ABCF991207C090914C0248
:101600009E1103C0FF2009F479C0C8010E94F607AB
:10161000882309F493C0FF2009F490C080915202FE
:10162000803288F020914C0230914D023A83298318
:10163000BC82AB82909150029D831E828F83CE012B
:1016400001960E949B0787E0F801ACE4B2E00190AC
:101650000D928A95E1F745CF909152029031A0F416
:10166000488559856A857B858C859D850E94030800
:101670008CE492E00E949B0787E0F40111928A9526
:10168000E9F70E94B00963CF8823A1F020914D02B1
:1016900081812813BACF80914C028E11B6CFF11000
:1016A000B4CF9683C8010E949B0787E0F401119292
:1016B0008A95E9F7FF24F3944BCF483C510508F095
:1016C00041C08823B9F3FF20C9F190914D02818177
:1016D00098132AC080914C028E1126C0809152022C
:1016E00080FD19C08031B8F08683807F803F39F05B
:1016F0008681982F907F905F8F70892B8683C80199
:101700000E949B0787E0F801ACE4B2E001900D92E3
:101710008A95E1F7E8CE87E0F801ACE4B2E0019009
:101720000D928A95E1F7C6CFC8010E94F607811194
:101730008ACF80915202816080935202C8010E9438
:101740009B07B8CF488559856A857B858C859D85A3
:101750000E94030891CFAEE0B0E0E1EBFBE00C9417
:10176000D525288739874A875B876C877D878E8751
:10177000CE0108960E94310A8823B1F06C85662359
:1017800041F0288539854A855B857D858E850E9457
:101790000D0817E0809112029091130289133EC048
:1017A0002E96E3E00C94F12587E0FE013896DE01E9
:1017B000119601900D928A95E1F7209113024091C4
:1017C00012028C85882329F330E0C90101968770C5
:1017D000992750E08417950799F097E0929FD001E0
:1017E000939FB00D1124AC5EBD4FFE013196019068
:1017F0000D929A95E1F7809313020E948E09C9CF4A
:101800000E94D407109213021092120287E0ECE4B7
:10181000F2E0DF011D928A95E9F7BBCF189FC00166
:1018200011248C5E9D4F0E94310A882309F4B8CFA1
:10183000E09112021E9FF0011124EC5EFD4F208109
:101840003181428153816481758186810E940D08B6
:101850008091120290E0019687709927809312027E
:1018600099CF80915B0286958695869508958091A3
:101870005B028770089590915B02977081E09111EF
:1018800001C080E0089580916702089590916702F9
:10189000982B909367020895982F909580916702F6
:1018A00089238093670208951092670208959091AA
:1018B0006602982B909366020895982F90958091D8
:1018C0006602892380936602089510926602089545
:1018D00008950E94680C089590915C02292F282396
:1018E000222331F08095892380935C020E94690C49
:1018F000089508950E94790C089590915D02292F12
:101900002823281729F0982B90935D020E947A0CC7
:10191000089590915D02292F2823222331F080958C
:10192000892380935D020E947A0C089580915D0264
:10193000882329F010925D0280E00E947A0C0895BD
:101940000F931F93CF93DF9300910001109101013A
:10195000C091670280916602C82BD0915D02DD23A1
:1019600031F00E944B1B81110E94960CCD2BF80187
:10197000C083C0910001D091010148E050E063E5CF
:1019800072E0CE010E941126892B59F088E0FE01F9
:10199000A3E5B2E001900D928A95E1F7CE010E9495
:1019A000E51ADF91CF911F910F9108950E94A00C2D
:1019B000089508950E94D90C08959091ED0292FF28
:1019C00011C098E0899F90011124622B60935B0203
:1019D0000E945F0880915B028695869586950E949D
:1019E000DA0C08950E945F08089510925B0280E06F
:1019F0000E94DA0C089590915B0280958923809370
:101A00005B02282F277021110DC0891759F0909182
:101A1000ED0292FF07C08695869586950E946F0815
:101A20000E94F50C08959091ED0292FB222720F977
:101A3000281769F080FB92F99093ED028091EC02F7
:101A40009091ED020E945B0D82E00E94FB0C0895D4
:101A50008091ED0282FB882780F991E089270E941E
:101A6000130D089581E00E94130D089580E00E94F7
:101A7000130D08956FEF7FEF80E090E00E946326E2
:101A8000089580E090E00E942F269C0181E0263E90
:101A90003E4F09F080E0089582E090E00E94272602
:101AA000089583E090E00E942726089584E090E066
:101AB0000E942F260895BC0184E090E00E946326D6
:101AC0000895AB01BC018FE090E00E945726089575
:101AD000AB01BC0183E190E00E945726089560E0CD
:101AE00070E0CB010E94680D089560E070E0CB01CA
:101AF0000E94610D0E946F0D0895A8E0B0E0E3E838
:101B0000FDE00C94D62566EE7EEF80E090E00E942A
:101B1000632660E082E090E00E94452681E090E04C
:101B2000909311028093100261E083E090E00E94A4
:101B3000452660E074E184E090E00E94632660E066
:101B400086E090E00E94452660E087E090E00E94F9
:101B5000452640E050E0BA0188E090E00E94572618
:101B600060E084E290E00E94452660E087E190E03A
:101B70000E94452660E08CE090E00E94452660E0EF
:101B80008DE090E00E94452619821A821B821C82F9
:101B90001D821E821F82188648E050E068E170E0D6
:101BA000CE0101960E94352640E050E0BA0180E265
:101BB00090E00E9457260E94750D2896E2E00C9452
:101BC000F2250E947D0D0895682F8EE090E00E941E
:101BD00045260895A6E0B0E0E0EFFDE00C94D425A2
:101BE0000E94931C8C018091680290916902801779
:101BF000910779F019821A820E94931CBC014981D5
:101C00005A8180E090E00E9495041093690200934D
:101C100068022696E4E00C94F0250E943F11609340
:101C20008602709387028093880290938902609362
:101C300082027093830280938402909385020895B8
:101C4000089508950E94200E089508950E94250E7B
:101C5000089581E0089582E791E10E9497150E941E
:101C6000210E0E94220E08950E9480130895089567
:101C700008950E94370E0E94380E08950E94410D6B
:101C8000811102C00E94E10D0E944C0D80938A02D6
:101C90000E94560D9093ED028093EC020E94BA15BB
:101CA0000E94510D90E00E94230880910E029091B5
:101CB0000F020E94440808950E948A1C0E94091184
:101CC0000E9486130E949B120E943E0E0E9469048D
:101CD0000E94BD150E9498130E94260E0895A6E04A
:101CE000B0E0E5E7FEE00C94CA250E94290E8111C0
:101CF0000EC00E94EA0D0E9480130E9484180E9468
:101D00007C040E9476192696EEE00C94E6250E944B
:101D1000EE122AE6822E22E0922E640110E0F601F5
:101D2000E190F1906F01812F0E947C111F5F1C30A8
:101D300009F44DC0E816F90691F380918A0281FDFD
:101D40000E9485110E94340E782EF12C6624639433
:101D50008F2D0E947C118C01F401A190B1904F0154
:101D60008A159B0569F1A826B926E12CCC24C394D9
:101D7000D12CC5018C219D21892BC1F07720B1F098
:101D8000E982FA820E94931C9C838B836D8221E0FE
:101D9000C8018C219D21892B09F420E049815A81B9
:101DA0006B817C818D81922F0E949504E394CC0CF1
:101DB000DD1CFBE0EF12DDCFF401329711830083CD
:101DC000F3948CE0F812C4CF0E940D0E94CFE81665
:101DD000F90609F0B2CF8DCF1F93CF93DF930E9406
:101DE0001610EC01811522E5920708F053C0811509
:101DF00040E5940708F0DDC0803E9105F8F48D3C85
:101E0000910508F0AEC0883A910580F4853A9105B5
:101E100008F099C08130910521F00497813A91052D
:101E200050F4CE01DF91CF911F910895885A910906
:101E30004B9708F48BC0C0E0D0E0F3CF811550E49D
:101E40009507F8F4C11580E2D80708F0CBC0C83E6A
:101E5000D10538F3CE019A9581159F4160F78D2FFA
:101E60000E94BA10182FCE0199270E941610212F18
:101E700030E0322F2227E901CC27DF71C82BD92B84
:101E8000D0CF99270E941610CC27DF70C82BD92BF2
:101E9000D06AC7CF803842E59407C8F5803652E54E
:101EA000950708F067C0C03482E5D807B0F08C2FE2
:101EB00086958695877020E2829FC0011124C370A9
:101EC00021E030E0A90102C0440F551FCA95E2F796
:101ED000EA01C82BD92BDC68A4CFC03252E5D50764
:101EE00008F041C08C2F8695869520E2829FC00124
:101EF0001124C37021E030E0A90102C0440F551F36
:101F0000CA95E2F7EA01C82BD92BDD688ACF803C5D
:101F100052E5950760F48F71C03AD24508F03FC092
:101F200090E0982F8827EC01C46FD06A7ACF805C4C
:101F30009245809708F07FCFDC2FCC27CC27DF712C
:101F4000C06FD06A6ECFA497D0646BCFC85AD0E070
:101F5000CC0FDD1FC958DE4F0990D881C02DD46445
:101F600060CFD0655ECFCF71D0E0DC2FCC27C16FC2
:101F7000D06A57CF86958695877020E2829FC001F0
:101F80001124C37021E030E0A90102C0440F551FA5
:101F9000CA95E2F7EA01C82BD92BDA6842CF0E9432
:101FA000BA10C82FD0E0DC2FCC27CC27DF71D0624D
:101FB00038CF8F710E94BA1065E0D695C7956A95A3
:101FC000E1F7CF70D0E0DC2FCC27282F30E084FF62
:101FD00005C054E0220F331F5A95E1F7C22BD32BD3
:101FE000D0691FCF8D2F8F710E94BA10182FCE018C
:101FF00099270E941610212F30E0322F2227222706
:102000003F71282B392BE901D2CF462F672F7C3027
:1020100028F44B3018F40E946B03089580E090E0A0
:1020200008950E9405100E94EC0E0895803E9105CF
:10203000D1F1C8F48133910509F47FC048F48932A5
:10204000910509F46FC08A32910509F47DC00895A5
:1020500089339105E1F082389105C9F08533910506
:1020600009F45BC00895843E9105D1F148F4823EA5
:10207000910531F1833E910541F181EE90E00895A3
:10208000863E9105C1F1873E9105E1F108952091C9
:10209000EC022370211165C02091ED0223FF14C0D2
:1020A00089E290E008952091EC0220FD43C0309138
:1020B000ED0230FF09C024FF4EC080E090E008959B
:1020C0002091EC0222FDF7CF08952091EC0222FD31
:1020D00045C03091ED0230FD44C024FFF5CFEDCF77
:1020E0002091ED0221FFF0CF8091EC0284FDE5CF3D
:1020F00087EE90E008952091EC0223FFE5CF24FDC8
:10210000DCCFF6CF2091EC0223FD2EC03091ED0202
:1021100031FFE3CF84EE90E008952091EC0225FF9B
:10212000D3CFBECF2091EC0225FD21C02091ED023E
:1021300023FFCACF89E390E008952091EC0226FFA7
:10214000C3CF8AE290E008952091EC0226FFBCCF35
:1021500081E390E0089583EE90E0089582EE90E0B0
:10216000089580EE90E0089586EE90E0089585E36E
:1021700090E0AACF9091EC0292FF10C041E0282F8E
:102180002471243009F040E031E0282F28712830F4
:1021900009F030E0431711F02CE0822793FF10C0C4
:1021A00041E0282F2471243109F040E031E0282F4C
:1021B0002871283109F030E0431711F02CE0822714
:1021C0003091ED0230FF10C051E0282F21712130F5
:1021D00009F050E041E0282F2871283009F040E054
:1021E000541711F029E0822731FF10C041E0282F59
:1021F0002171213109F040E031E0282F2871283188
:1022000009F030E0431711F029E0822794FD877E22
:1022100008951092EE021092EF021092F0021092C6
:10222000F1020895CF92DF92EF92FF92CF93DF9366
:1022300000D000D0CDB7DEB76B017C010E948013C7
:10224000811112C00E949F1C69837A838B839C83B7
:10225000C61AD70AE80AF90AC092EE02D092EF0233
:10226000E092F002F092F1020F900F900F900F9019
:10227000DF91CF91FF90EF90DF90CF900895A4E091
:10228000B0E0E5E4F1E10C94D6250E9480138823A8
:1022900071F00E949F1C69837A838B839C83698180
:1022A0007A818B819C812496E2E00C94F2250E9435
:1022B0009F1C69837A838B839C838091EE0290912B
:1022C000EF02A091F002B091F10229813A814B8195
:1022D0005C81280F391F4A1F5B1F29833A834B8378
:1022E0005C83DDCF80E0089508950E947411089505
:1022F00008950E9478110895E82FF0E0EE0FFF1F77
:10230000E55FFC4F808191810895089580EA8A9568
:10231000F1F7089500C008950E9486110895089568
:102320000E948F110895ACE0B0E0E9E9F1E10C946E
:10233000D0250E948013182F60912303882309F46D
:1023400049C05CE0C52ECE0101967C01FC018C2DBC
:1023500011928A95E9F7862F90E0880F991FB701AF
:10236000855F9C4F0E94A613DE2C0F2D8823C9F099
:102370008091F20290E0880F991F4CE050E0B70185
:10238000855F9C4F0E94112621E020938B02892BB0
:1023900091F410E00E947911812F2C96E8E00C94C2
:1023A000EC2580918B028823A1F3F7011192CA9446
:1023B000E9F710928B02A091F202B0E0AA0FBB1FC6
:1023C000A55FBC4F8CE0ED2DF02F01900D928A950A
:1023D000E1F7E0CF70E0660F771F655F7C4F80917B
:1023E000F20290E0880F991F855F9C4F0E942F1486
:1023F0000E949011D1CFF894E82FE295EF70F0E0B1
:1024000041A18F7021E030E0B90102C0660F771F53
:102410008A95E2F7CB01962F9095942391A392A1F0
:10242000892B82A3789408950F931F93CF93DF9302
:10243000CDE0D1E089918F3F11F00E94FB1181E046
:10244000C331D807B9F7C2E0D1E00DE011E08991BE
:102450008F3F11F00E94FB110C171D07C1F7DF9190
:10246000CF911F910F910895A0E0B0E0EAE3F2E16F
:102470000C94CF25EC01B62E062F10E0C801835F27
:102480009E4F7C01FC0180818F3F09F44FC0F8947E
:10249000E82FE295EF70F0E091A18F7021E030E03D
:1024A00001C0220F8A95EAF7892F822B81A382A18E
:1024B0002095282322A378940E948A11E2E0F1E07B
:1024C00041E050E0C12CD12C21912F3F89F0A22F67
:1024D000A295AF70A05EB0E08C9190E02F7002C02A
:1024E000959587952A95E2F781709A01882311F0D6
:1024F00020E030E0C22AD32A440F551F81E0ED309E
:10250000F80711F7F70180818F3F11F00E94FB114E
:1025100061E0C114D10409F460E08B2D0E948C119C
:10252000000F111FC00FD11FD982C882CDB7DEB7EF
:10253000E9E00C94EB25A1E1B0E0E1EAF2E10C94D2
:10254000D62580911301811124C086E0EDEAF1E0E7
:10255000DE011C9601900D928A95E1F786E0FE015E
:102560003C96ADE0B1E001900D928A95E1F78BE0E9
:10257000E4EBF1E0DE01119601900D928A95E1F70E
:102580008BE0FE013196A2E0B1E001900D928A95B8
:10259000E1F78091130190E0811101C096E09093E2
:1025A000230386E0891B8093F2020E94141288E1C3
:1025B000EBE0F3E0DF01982F1D929A95E9F7E3EF46
:1025C000F2E0DF011D928A95E9F786E00E94301360
:1025D0000E9475116196E2E00C94F225A8E1B0E04A
:1025E000E4EFF2E10C94D325FE01319688E1DF019E
:1025F0001D928A95E9F710E0FE2E0F2F612F8F2D87
:10260000902F0E9434121F5F1630C1F748E150E04E
:102610006F2D702F83EF92E00E94112621E0892B0D
:10262000A9F420E06091230370E0660F771F655FD7
:102630007C4F46E083EF92E00E943113182F0E94F6
:102640009311812B6896E5E00C94EF2588E1EF2D3E
:10265000F02FA3EFB2E001900D928A95E1F7E2CF5F
:102660000895A0E0B0E0E7E3F3E10C94D025D82E84
:10267000E92EF62ED72F042FC22F222379F081E0E6
:1026800080938E020E94931C90938D0280938C0203
:1026900080E0CDB7DEB7E8E00C94EC25C0908E0268
:1026A000CC20B1F380918C0290918D020E94BC1CD1
:1026B000059770F310E0000F111FA8016D2D7E2DFE
:1026C0008F2D9D2F0E941126892B41F0A8016D2D81
:1026D0007E2D8F2D9D2F0E941E26CC2D10928E02B6
:1026E0008C2FD7CFCF930E949F25C82F811102C076
:1026F0000E949A258C2FCF9108958091920208957F
:102700008091910208950E94801308950E9472138F
:10271000809391020E948313809392020E947D1302
:10272000809313010E94801381110E94DC1308958D
:102730000E948013811102C00E94DF13089581E07E
:10274000909193029A3008F080E008950F931F93C0
:10275000CF93DF93EC01162F072F809193028A30DD
:1027600090F4612F702FCE010E942C14811121C092
:10277000809193028F3FB1F40E94931C909390023A
:1027800080938F0209C080918F02909190020E94E5
:10279000BC1C843F914028F780E0DF91CF911F91CE
:1027A0000F9108958F5F809393028A3028F781E01C
:1027B000F4CF10929302FBCF0E94981D08950E94BF
:1027C0009B1D0895A0E0B0E0E8EEF3E10C94D02565
:1027D000FA0169017801C82F880FDD0B3097B1F03D
:1027E000DE0193E0AA0FBB1F9A95E1F7AC5EBE4FE6
:1027F00011968D919C9112978C569D4F4C9150E063
:10280000E417F50708F4AF010E941E26CE010E94CE
:10281000861E182F8823D1F0E114F104B9F083E06B
:10282000CC0FDD1F8A95E1F7FE01EC5EFE4F438180
:1028300050E0E416F50608F4A701CC5EDE4F6C818B
:102840007D816C567D4FC6010E941E26812FCDB71B
:10285000DEB7E8E00C94EC250E942D1508950E9447
:1028600046150895A8E0B0E0E8E3F4E10C94D4251F
:102870008091B9029091BA02A091BB02B091BC02C2
:10288000BC01CD010E94CB1C11E0643671058105AD
:10289000910520F10E943F11DC01CB010296A11DA0
:1028A000B11D89839A83AB83BC8300E010E020E0F4
:1028B00030E044E050E0BE016F5F7F4F82E00E9455
:1028C000E213182F882351F00E949F1C6093B902D5
:1028D0007093BA028093BB029093BC02812F28961A
:1028E000E4E00C94F025A1E1B0E0E9E7F4E10C9418
:1028F000CE257B01A090C001B090C10101E010E0A5
:102900009E01235F3F4F40E050E060E070E080E0D8
:102910000E94E213182F882309F44DC065018FEF40
:10292000C81AD80A8091B5029091B602A091B70258
:10293000B091B802BC01CD010E94CB1C6E877F878D
:10294000888B998B643671058105910560F10CE0E7
:1029500010E09E012F5F3F4F40E050E060E070E0EC
:1029600081E00E94E213182F6CE070E0C6010E9423
:10297000BE159D8598132AC0112341F10E949F1C0A
:102980006093B5027093B6028093B7029093B80239
:102990008CE0FE013196A9EAB2E001900D928A9591
:1029A000E1F781E014C06CE070E0C6010E94BE1542
:1029B0009D858913CCCF8CE0F5013196DE0111960F
:1029C00001900D928A95E1F71111E2CF80E09CE031
:1029D000E9EAF2E0D70101900D929A95E1F761964C
:1029E000EAE00C94EA25A0E0B0E0E9EFF4E10C9411
:1029F000CE25F82EE92EB62EA72E8A010E949F130F
:102A0000CC24C394D12C882319F08AE0C82ED12C71
:102A1000C1E0D0E06B2D7A2D8F2D9E2DF801099508
:102A2000811116C02196CC16DD0694F0CC9FC00112
:102A3000CD9F900D900D112420E030E045E34A95A4
:102A4000F1F700002F5F3F4F28173907B9F7E2CFA2
:102A5000CDB7DEB7EAE00C94EA250F931F93CF932E
:102A6000DF93D82FC92F8B0143E754E10E94F31461
:102A7000882339F042E354E1B8018D2F9C2F0E9446
:102A8000F314DF91CF911F910F9108950F931F932E
:102A9000CF93DF93FB01C091C001D091C101CE0162
:102AA00001962CE0DC0101900D922A95E1F76CE093
:102AB00070E00E94BE1588836D857E858F8598891C
:102AC0000091A5021091A6022091A7023091A802C0
:102AD000601771078207930751F06093A502709306
:102AE000A6028093A7029093A8020E941211DF9180
:102AF000CF911F910F9108950E9458200E945C0E63
:102B00000E94652008950E946A200E946F0E0E9414
:102B1000842008950E942C1C0E943E200E942B0EAF
:102B20000E947C150E9483150E94390EFBCF909362
:102B3000C3018093C20108950E943A0D089580E078
:102B40000E947C11817008950E94EE122FEF86E79B
:102B500091E0215080409040E1F700C000000E94C9
:102B6000EE120E949F15882321F00E949C150E945E
:102B70000F1D08950E94A41508950895FC01680F83
:102B8000791F8FEF91E3E617F70709F40895219174
:102B9000822728E030E087FF08C0880F892721506E
:102BA000310921153105B9F7EECF880FF8CFCF9352
:102BB000DF93EB0186319C4719F50E94430C9D8100
:102BC0009923A1F08A7A91E0811101C090E090935D
:102BD000BD02882349F085E30E949C1B0E94D60C0D
:102BE00080E0DF91CF91089589E2F6CF8091BD0218
:102BF000882321F085E30E94A41BF0CF89E2FBCF5C
:102C000081E0EFCFCF93DF93EC01FB018581882337
:102C100009F4D2C09E0130572332310508F0B2C00A
:102C20000E94560D9093ED028093EC02FE01E1505C
:102C3000F047E232F10520F4E957F94D0C94C02534
:102C40008091EC0281608093EC0293C08091ED0250
:102C500088608093ED028DC08091EC028260F3CF9A
:102C60008091EC028460EFCF8091EC028860EBCF22
:102C70008091ED028160EDCF8091ED028260E9CF1D
:102C80008091EC028061DFCF8091EC028062DBCF2B
:102C90008091EC028064D7CF0E94D4078091EC022F
:102CA0008068D1CF8091EC028C60CDCF8091ED0215
:102CB0008360CFCF8091EC028E7FC5CF8091ED02F3
:102CC000877FC7CF8091EC028D7FBDCF8091EC02D2
:102CD0008B7FB9CF8091EC02877FB5CF8091ED02D9
:102CE0008E7FB7CF8091ED028D7FB3CF8091EC02C4
:102CF0008F7EA9CF8091EC028F7DA5CF8091EC02D1
:102D00008F7BA1CF0E94D4078091EC028F779BCF5D
:102D10008091EC02837F97CF8091ED028C7F99CFD9
:102D20008091EC0282FB992790F921E0922790FB99
:102D300082F990FB83F987CF8091ED02982F9095CF
:102D400091708E7F892B90FB81F983CF9091EC025B
:102D5000892F8F7B96FF806476CF0E94D407909155
:102D6000EC02892F97FB87F980586DCF81E00E9494
:102D7000E40D8091EC029091ED020E945B0D0E94A7
:102D8000D40780E0DF91CF91089580E0F0CF90915B
:102D9000EC02892F8F7E94FF806155CF9091EC02D9
:102DA000892F8E7F90FF81604ECF9091ED02892F09
:102DB000877F93FF88604DCF81E0E4CF282F35EBEC
:102DC0002303C001112497FF04C080589109892F63
:102DD000089580589F4FFBCF8091C40280FF0DC0A3
:102DE0006091310170E0660F771F60387105C0F5A2
:102DF00061157105B9F1862F089581FF07C06091B3
:102E0000310184E0689FB0011124EFCF82FF04C03C
:102E10006091310188E0F6CF8091C3028823E9F008
:102E2000909130016091310170E0891730F093E0AA
:102E3000660F771F9A95E1F7D8CF869F9001879FFD
:102E4000300D112483E0220F331F8A95E1F7692F9B
:102E500070E0C9010E94AC25C8CF68E070E0CBCF1C
:102E60008FE7089581E008958091C40280FF0CC02F
:102E700060912D0170E07595679575956795611561
:102E8000710561F1862F089581FF06C060912D01C3
:102E900070E075956795F3CF60912D0170E082FD2C
:102EA00015C02091C2022223B1F090912C016091B3
:102EB0002D0170E0291750F4269FA001279F500D87
:102EC0001124692F70E0CA010E94AC256038710599
:102ED000B0F28FE7089561E070E0D4CF81E008950B
:102EE0009091C7022091C802922B2091CA02922B86
:102EF0002091C902922B992331F098E09093C3025C
:102F000091E09093C2028D3C31F40E94EC168195C1
:102F10008093C8020895E2E3E80FE231B0F5F0E0F3
:102F2000E755F94D0C94C0250E94EC16F1CF0E9494
:102F3000EC1681958093C70208950E94EC16FACF93
:102F40000E9434178093C90208950E943417819516
:102F5000F9CF0E94341781958093CA0208950E9488
:102F60003417FACF815D990B21E030E001C0220FC8
:102F70008A95EAF78091C602822B8093C602089553
:102F80008091C40281608093C40208958091C4023C
:102F90008260F9CF8091C4028460F5CF4091C7026E
:102FA0008D3C59F48091C80287FF0DC01092C80271
:102FB000442359F41092C30208C08E3C81F48091DE
:102FC000C80218169CF3442381F08091C9029091A5
:102FD000CA02892B811159C01092C20208958F3CF8
:102FE00041F447FFF0CF1092C7028091C8028823B6
:102FF000E0CF803D19F41416B4F3E5CF9091C902E7
:10300000893D29F41916FCF61092C902DCCF8A3DDD
:1030100019F497FFD8CFF8CF9091CA028B3D29F4CD
:1030200097FFD1CF1092CA02CECF8C3D19F419165A
:10303000CCF3C9CF9FE2980F983090F4815D990B43
:1030400021E030E0B90102C0660F771F8A95E2F7F0
:10305000CB0180959091C60289238093C602B3CF9D
:103060008D3D31F48091C4028E7F8093C402ABCF3A
:103070008E3D21F48091C4028D7FF7CF8F3D09F002
:10308000A2CF8091C4028B7FF0CF08950E94931C41
:103090002091C7023091C802232B222321F0809374
:1030A000C0029093C1022091C9023091CA02232B21
:1030B000222321F08093BE029093BF0285EC92E020
:1030C0000E94F01A089586E0E5ECF2E0DF011D921F
:1030D0008A95E9F71092C3021092C2021092C402BC
:1030E0000895FC01828181110DC0838181110AC084
:1030F0008481811107C081E09581911101C080E038
:103100008170089581E0FCCFA6E0B0E0EAE8F8E144
:103110000C94D32586E0E5ECF2E09E012F5F3F4F53
:10312000D90101900D928A95E1F71092C702109291
:10313000C8021092C9021092CA028B819C81892B0D
:103140008901882391F08091C0029091C1020E9470
:10315000BC1C9C018091C3028823C9F140913201BB
:1031600050E04217530708F43FC08D819E81892BA0
:10317000882399F08091BE029091BF020E94BC1CEE
:103180009C018091C202882309F467C040912E01FE
:1031900050E04217530708F46EC0B80185EC92E086
:1031A0000E94B71B811105C085EC92E00E94711846
:1031B00081110E94461886E0F801A5ECB2E001906A
:1031C0000D928A95E1F72696E5E00C94EF25409163
:1031D00033019AE0499FA00111244217530728F6B2
:1031E0008F5F8093C30202C08F3FD1F7FB80FF2027
:1031F00059F00E94EC1691E01F140CF09FEF899F8C
:10320000802D11248093C702FC80FF2059F00E947A
:10321000EC1691E01F140CF09FEF899F802D112474
:103220008093C8028091C702882309F49ECFF09052
:10323000C802FF2009F499CF0E94DE16811101C057
:1032400081E08093C7028F2D0E94DE16882319F03B
:103250008093C8028ACF81E0FBCF40912F019AE092
:10326000499FA00111244217530708F096CF8F5FA2
:103270008093C20202C08F3FD1F7FD80FF2059F03A
:103280000E94341791E01F140CF09FEF899F802D4E
:1032900011248093C902FE80FF2059F00E94341748
:1032A00091E01F140CF09FEF899F802D11248093D3
:1032B000CA028091C902882309F46FCFF090CA0234
:1032C000FF2009F46ACF0E94DE16811101C081E05F
:1032D0008093C9028F2D0E94DE16882319F08093F7
:1032E000CA025BCF81E0FBCF81E008958091340179
:1032F000823029F58091CD02882309F18091CB029B
:103300009091CC020E94BC1C883C9105C0F01092A8
:10331000CD02809134019091CF028091CE0298131A
:1033200004C080913501882351F0109235018091BD
:10333000CF028093CE028091CF020E94370308957E
:103340009C018091D0028F5F8093D0023093D50290
:103350002093D40222303105A1F49091D1029F5FD5
:103360009093D102833008F444C09091D3029230FC
:1033700078F12091D202222339F182E08093CF02AA
:1033800038C02430310531F49091D2029F5F909380
:10339000D202E8CF2F3F310589F0833050F1909170
:1033A000D302923030F7853091F59923D1F0809196
:1033B000D1029091D202892B88231AC09091D30216
:1033C0009F5F9093D302CECF8913F1CF81E0D6CF08
:1033D0004091D1028530D9F42F3F310531F791303A
:1033E00091F08091D102833021F48091D20281301A
:1033F00069F30E94931C9093CC028093CB0281E0EE
:103400008093CD020895423091F683E0B7CF2091AA
:10341000D102843051F69111CACF223011F7AECFCC
:10342000809334010E94931C9093CC028093CB0232
:1034300081E08093CD0208950F931F93CF93DF9384
:10344000C42FD22FFC0185818823C9F04093D80274
:103450000E94931C9093D7028093D60280E28C0F37
:10346000883040F4C77081E001C0880FCA95EAF740
:103470000E947405DF91CF911F910F9108951091D3
:10348000D80214133CC08091D6029091D7020E94BA
:10349000BC1C883C910598F5C0E2CD0F1D1741F189
:1034A00080E2810F883040F4177081E001C0880FFE
:1034B0001A95EAF70E947B05C83020F0802F0E9401
:1034C0006B05D8CF91E08D2F877001C0990F8A9539
:1034D000EAF7892F0E947405802F0E946B05D77030
:1034E00081E001C0880FDA95EAF70E947B05C2CF20
:1034F000802F0E946B05C83008F0BCCFF0CF80E26F
:103500008C0F883008F0B6CFC77081E001C0880FFB
:10351000CA95EAF7EACF0F93FC01CB01E851FC47CB
:10352000E730F10590F5E554F94D0C94C02506E21D
:1035300021EE41EE6AE17CE70E941C1A80E00F91C7
:10354000089507E225EE45EE6BE17CE7F5CF06E254
:1035500021EE40EE68E17CE7EFCF07E225EE44EE96
:1035600069E17CE7E9CF06E221EE42EE6CE17CE71F
:10357000E3CF07E225EE46EE6DE17CE7DDCF08E222
:1035800021E045EE6EE17CE7D7CFFB01858181111B
:103590001092D80281E0D3CF9093DF028093DE02B5
:1035A00008950E948013811103C08091D90208956B
:1035B000E091DE02F091DF02309729F00190F08176
:1035C000E02D0995089580E00895E091DE02F091E4
:1035D000DF02309721F00280F381E02D09950895F4
:1035E000DC01E091DE02F091DF02309739F082E0F9
:1035F0008C930680F781E02DCD0109950895A3E015
:10360000B0E0E5E0FBE10C94D6259C018091DC0262
:103610009091DD0282179307A1F03093DD02209391
:10362000DC02E091DE02F091DF02309751F083E09E
:1036300089833B832A830084F185E02DCE010196A6
:1036400009952396E2E00C94F225A3E0B0E0EBE2CA
:10365000FBE10C94D6259C018091DA029091DB026B
:1036600082179307A1F03093DB022093DA02E091F6
:10367000DE02F091DF02309751F084E089833B83D2
:103680002A830084F185E02DCE01019609952396C9
:10369000E2E00C94F22540910001509101019A0161
:1036A0002E5F3F4F485F5F4F80E0F90190812F5FB1
:1036B0003F4F91118F5F42175307B9F70895882341
:1036C00071F02091000130910101F9013296285FDB
:1036D0003F4F9191981729F0E217F307D1F780E057
:1036E000089581E008959C01FC0132968FEF90E0EF
:1036F0004191461751F08F3F19F4411101C0892FB4
:103700009F5F9630A9F78F3F09F40895280F311D68
:1037100087FD3A95F901628308959C01FC01329678
:10372000285F3F4F8191861303C0DF0111971C92E0
:10373000E217F307B9F70895682F8091000190917F
:1037400001010E94731B0895682F809100019091E0
:1037500001010E948D1B0895E0910001F09101018B
:10376000329686E0DF011D928A95E9F70895DC0123
:10377000FB0111969C9111978181981322C012969A
:103780008C911297882319F0928189131AC013968D
:103790008C911397882319F09381891312C0159681
:1037A0008C911597882319F0958189130AC0149676
:1037B0009C91992321F081E02481291303C080E0AA
:1037C00001C081E08170089508950E94E41B08956E
:1037D000CF93C1E0C80FC093E0028C2F0E94E51B7D
:1037E0008C2F0E94101ACF91089583E08093E002FD
:1037F0000E94E51B83E00E94101A08950E94E81BB6
:10380000089581E08093E0020E94E51B81E00E9420
:10381000101A08950E94011C0895089508950E94A9
:103820000E1C0895089508950E940D1C0895CF93CD
:103830000E94121C0E94EE120E94131CC0E08C2FEA
:103840000E947C11892B31F4CF5FCC30C1F780E02E
:10385000CF91089581E0FCCF85B7806885BF85B79B
:10386000806885BF08951F921FB61F9211248F9301
:103870009F93AF93BF938091E102811113C0809118
:10388000240390912503A0912603B091270341962C
:10389000A11DB11D8093240390932503A0932603BB
:1038A000B0932703BF91AF919F918F911F901FBE3F
:1038B0001F90189580912C03843031F10E944C04A4
:1038C0001092E10288E190E020E40FB6F894A89508
:1038D000809360000FBE2093600083B7817F846077
:1038E00083BF83B7816083BF7894889583B78E7FC9
:1038F00083BF0FB6F894A89580916000886180938B
:103900006000109260000FBE08950E94D4070E94CC
:103910005104089582E084BD93E095BD9AEF97BD70
:1039200080936E0008952FB7F894809124039091AE
:103930002503A0912603B09127032FBF0895A4E08B
:10394000B0E0E5EAFCE10C94D6258FB7F89420911D
:1039500024033091250340912603509127032983A6
:103960003A834B835C838FBF69817A818B819C8191
:103970002496E2E00C94F2259C014FB7F8948091D4
:10398000240390912503A0912603B09127034FBFF4
:10399000821B930B0895A4E0B0E0E1EDFCE10C94F0
:1039A000D425462F572FBC012FB7F89480912403BC
:1039B00090912503A0912603B09127032FBF8C017E
:1039C0009D01041B150B260B370BC901B80124966A
:1039D000E4E00C94F02578941F921FB61F921124F6
:1039E0008F939F93AF93BF9380912403909125036E
:1039F000A0912603B09127030196A11DB11D8093CC
:103A0000240390932503A0932603B0932703BF912B
:103A1000AF919F918F911F901FBE1F90189581E0CD
:103A20008093E00080E28093D8001092C9008FE17B
:103A30009EE40197F1F700C0000087E090EBDC0105
:103A40008093350390933603A0933703B0933803E4
:103A500088E19CE00FB6F894A895809360000FBEB3
:103A600090936000FFCF88E19CE00FB6F894A89592
:103A7000809360000FBE90936000FFCF8EE1489B63
:103A800003C081508111FBCF489BFECF0895589809
:103A900080E28A95F1F7589A0895FC012BE02A9567
:103AA000F1F728E090E080E031E040E14A95F1F75D
:103AB000880F489B02C08160932742E04A95F1F746
:103AC000000040E14A95F1F721502111EECF20E1AD
:103AD0002A95F1F729B132E03A95F1F7000040E17B
:103AE0004A95F1F7217092272081920F90830895D3
:103AF000A1E0B0E0EEE7FDE10C94D22519828C0143
:103B00007C01E60EF11C0E151F0541F481E0998140
:103B1000911180E02196E6E00C94EE250E943E1D76
:103B2000CE0101960E944D1DF80181938F01EBCFCC
:103B3000509A589A08955098589AE89AE9E6F0E011
:103B400080818C7F808308956150770B91E001C064
:103B5000990F6A95EAF7692F90E021E0611108C09A
:103B6000992399F0589A80E28A95F1F75898089528
:103B7000362F3823332339F0589A922730E23A957A
:103B8000F1F76695EBCF5898F9CF5898ECCFFF92A4
:103B90000F931F93CF93DF93EC018C01060F111D40
:103BA000C017D10729F4CDB7DEB7E5E00C94EF25B7
:103BB000F9900E94471D68E08F2D0E94A41DF0CF50
:103BC0001F920F920FB60F9211240F931F932F93F2
:103BD0003F934F935F936F937F938F939F93AF9395
:103BE000BF93EF93FF93CF93DF930F92CDB7DEB7E1
:103BF00019820E943E1DCE0101960E944D1D082F84
:103C0000069506950695982F92959570202F25700C
:103C1000920F292F237096959695920F982797705B
:103C20008981892B81115CC0043008F059C080E182
:103C30008A95F1F7589A509A82E08A95F1F700C078
:103C4000589888E0089F80011124D801AC5EBE4FCF
:103C50001696ED91FC9117973097A9F06091C001ED
:103C60007091C10114962D913C911597260F371F25
:103C700011968D919C911297680F791F13964C9114
:103C800013978C910995F801EC5EFE4F63816623D2
:103C900051F02091C0013091C10184819581820F42
:103CA000931F0E94C71D0E94471D80E18A95F1F76E
:103CB00058985098589A80E18A95F1F7F801EC5E8F
:103CC000FE4F6081662351F02091C0013091C10107
:103CD00081819281820F931F0E94781D0E943E1D58
:103CE0000F90DF91CF91FF91EF91BF91AF919F9195
:103CF0008F917F916F915F914F913F912F911F9184
:103D00000F910F900FBE0F901F9018950F931F9358
:103D1000CF93DF938C0104970CF065C0F894509A10
:103D2000589885E08A95F1F70000C02FC695C570B8
:103D3000802F8570C80F8C2F8370C695C69593E031
:103D4000000F111F9A95E1F7C80FC8018C2BEC01E9
:103D50000E94471D00C068E08C2F0E94A41D90E1C6
:103D60009A95F1F75098589A489B35C087E090E0B3
:103D7000489933C0F801EC5EFE4F6381662361F021
:103D80002091C0013091C10184819581820F931FE0
:103D90000E94781D882321F10E943E1D80E28A95B1
:103DA000F1F75898509A90E19A95F1F7F801EC5E86
:103DB000FE4F6081662351F02091C0013091C10116
:103DC00081819281820F931F0E94C71D0E94471D0F
:103DD000789481E009C000C0C7CF0197009749F4EB
:103DE000509A589A789480E0DF91CF911F910F916B
:103DF000089500C0BDCF8091EA0208950895282F4C
:103E0000CB01BA0130912C033430E1F42F702093B0
:103E1000E9002FEF3091E80035FD07C035ED3A9508
:103E2000F1F7000021502111F5CF2091E80025FF86
:103E300009C040E050E00E9418218091E8008E7790
:103E40008093E8000895BC0143E050E082E00E94C6
:103E5000FF1E0895BC0146E050E082E00E94FF1E74
:103E60000895CF93DF93D82FC92F48E050E0682FF3
:103E7000792F81E00E94FF1E88E0ED2FFC2FA2EE3B
:103E8000B2E001900D928A95E1F7DF91CF9108950C
:103E900080912B03811109C00E94A0220E94FD2263
:103EA0008091E20084608093E200089510922B03D9
:103EB00008950E94011C08956091280381E061111A
:103EC00001C080E00E94F51B089590912C0381E0D1
:103ED000943009F080E0609128030E94FE1B089551
:103EE00042E061EC81E00E941C2242E261EC82E04F
:103EF0000E941C2290912C0381E0943009F080E014
:103F0000609128030E94E81B089580912E03893058
:103F100089F148F4823009F4A0C0833009F45AC012
:103F2000813041F008958A3009F487C08B3009F45C
:103F30006CC0089580912D03813A09F04AC08091A8
:103F4000E800877F8093E8008091310390913203ED
:103F5000892B61F060E080E090E070E00E946721D2
:103F60008091E8008B778093E800089568E082EE06
:103F700092E0F3CF80912D03813259F58091310386
:103F800090913203029728F58091E800877F809313
:103F9000E8008091E80082FF18C09091F3008091C2
:103FA000F200029731F48091F100813011F08630F7
:103FB00021F48091F1008093EA028091E8008B77F0
:103FC0008093E8000E94502204C080912C0381114C
:103FD000E0CF089580912D03813AD9F78091310384
:103FE00090913203892BA9F78091E800877F809315
:103FF000E8008091E80080FFFCCF80914001809331
:10400000F1008091E8008E77DBCF80912D03813223
:1040100001F78091310390913203892BD1F6809181
:10402000E800877F8093E8000E94502280912F0350
:10403000809340010E94D407089580912D0381321E
:1040400041F68091E800877F8093E8000E9450222B
:10405000809130038093EB02089580912D03813A83
:1040600009F0B7CF8091E800877F8093E8008091C6
:10407000E80080FFFCCF8091EB02C1CF84B7877F3F
:1040800084BF0FB6F894A8958091600088618093F2
:104090006000109260000FBE80E890E00FB6F894C8
:1040A00080936100909361000FBE0E940A1C0895E6
:1040B0000E94A0220E94FD22E2EEF0E08081846056
:1040C000808378940E948025089586E391E00E9481
:1040D000CC1A089580912C03853031F480912C0303
:1040E000853019F00E94851C08950E945A1C809109
:1040F0002A03882399F30E94171C882379F30E94CE
:1041000002210E94D407EACF08959A014091330317
:10411000509134030E948D200895EF92FF920F93E7
:104120001F93CF93DF93DC01FB01CA0179012B2F91
:1041300033272330310549F198F4C2E1D0E009E298
:1041400015E021303105B9F1CBE3D0E00EEE14E0FB
:104150002230310581F1C0E0D0E000E010E02BC05A
:104160002132310509F440C022323105A1F7C4E4FF
:10417000D0E006EB15E0EF2BF1F0CBE7D0E00BE35E
:1041800015E061307105B9F0E6CF9D013327A1300C
:10419000D9F02230310501F1C0E0D0E000E010E0BC
:1041A000232B39F4EAEEF4E0E491CE2FD0E00AEECE
:1041B00014E00E94A019F70111830083CE01CDB74E
:1041C000DEB7E6E00C94EE25EAEDF4E0E491CE2FC4
:1041D000D0E00AED14E0EDCFECECF4E0E491CE2F6A
:1041E000D0E00CEC14E0E5CFC9E0D0E000E015E051
:1041F000EF2B09F3C9E0D0E009E115E0613071056A
:10420000D1F2A9CF80E189BD82E189BD09B400FE68
:10421000FDCF8091D8008F7D8093D8008091E00001
:1042200082608093E0008091E00081FDFCCF0895E2
:10423000AF92BF92CF92DF92FF920F931F93CF93D3
:10424000DF936C01EB018A010E946F22F82E81112D
:1042500023C00115110539F0F80180819181C81B37
:10426000D90BC80ED91EA12CB12C2097A9F0809192
:10427000E80085FD22C08091E8008E778093E800F9
:1042800001151105A1F0F801808191818A0D9B1D16
:104290009183808385E0F82E8F2DDF91CF911F9140
:1042A0000F91FF90DF90CF90BF90AF9008950E9444
:1042B0006F228823E1F2F82EEFCFF60181916F0192
:1042C0008093F1002197FFEFAF1ABF0ACECFFC0118
:1042D0009B0180913303909134038617970718F060
:1042E000672B61F0C90140E0009771F441110CC0E7
:1042F0008091E80082FF35C080E008958091E80059
:104300008E778093E800EECF20912C032223A9F131
:104310002530A9F12091E80023FD2DC02091E8006F
:1043200022FDE6CF2091E80020FFDECF3091F300A0
:104330002091F200009719F02830310558F041E043
:104340002830310509F040E02091E8002E772093D5
:10435000E800CACF41914093F10001972F5F3F4F92
:10436000E9CF80912C03882341F0853041F0809182
:10437000E80083FFBDCF81E0089582E0089583E0E7
:104380000895FC019B0180913303909134038617BB
:10439000970718F0672B61F0C90140E0009771F4AE
:1043A00041110CC08091E80082FF36C080E0089582
:1043B0008091E8008E778093E800EECF20912C0367
:1043C0002223B1F12530B1F12091E80023FD2EC068
:1043D0002091E80022FDE6CF2091E80020FFDECF0B
:1043E0003091F3002091F200009719F02830310548
:1043F00058F041E02830310509F040E02091E80014
:104400002E772093E800CACF44914093F100319673
:1044100001972F5F3F4FE8CF80912C03882341F015
:10442000853041F08091E80083FFBCCF81E00895A2
:1044300082E0089583E00895982F973028F08F70D8
:104440008093E90081E008959093E900242F762F6E
:1044500050E0981731F07091EC002091ED005091F0
:10446000F00021FD02C09F5FE8CF3091EB003E7F5E
:104470003093EB003091ED003D7F3093ED003091B3
:10448000EB0031603093EB007093EC002093ED0073
:104490005093F0002091EE0027FDE5CF80E00895D5
:1044A00080912D0387FF13C08091E80082FF06C032
:1044B0008091E8008B778093E80004C080912C0302
:1044C0008111F2CF089580912C038823D9F3809134
:1044D000E80080FFF8CF8091E8008E77ECCF209144
:1044E000E4003091E50095E6A9018091EC0081702F
:1044F000882331F08091E80080FF06C080E00895B5
:104500002091E80022FD1BC080912C03882391F0AC
:10451000853091F08091EB0085FD10C02091E40082
:104520003091E5004217530701F391509111DCCF10
:1045300084E0089582E0089583E0089581E008957D
:104540000E940F230E941723E0EEF0E0808181603B
:104550008083E8EDF0E080818F77808319BCA7ED40
:10456000B0E08C918E7F8C9380818F7E80831092BF
:104570002B0308950F931F93CF93DF930E940F2374
:104580000E941723C8EDD0E088818F7788838881C7
:104590008068888388818F7D888319BC10922C0362
:1045A0001092280310922A031092290300EE10E0C3
:1045B000F80180818B7F808388818160888342E0DD
:1045C00060E080E00E941C22E1EEF0E080818E7FBE
:1045D0008083E2EEF0E0808181608083808188606A
:1045E0008083F80180818E7F8083888180618883C9
:1045F000DF91CF911F910F910895E8EDF0E0808158
:104600008F7E8083E7EDF0E080818160808384E0AD
:1046100082BF81E080932B030E94BA220895E8EDC7
:10462000F0E080818E7F80831092E20008951092E6
:10463000DA001092E10008951F920F920FB60F92C8
:1046400011242F933F934F935F936F937F938F9397
:104650009F93AF93BF93EF93FF938091E10082FF0D
:104660000BC08091E20082FF07C08091E1008B7F48
:104670008093E1000E947F258091DA0080FF19C0BD
:104680008091D80080FF15C08091DA008E7F8093E2
:10469000DA008091D90080FF94C080E189BD82E179
:1046A00089BD09B400FEFDCF81E080932C030E94F8
:1046B000481F8091E10080FF19C08091E20080FFD7
:1046C00015C08091E2008E7F8093E2008091E2002D
:1046D00080618093E2008091D80080628093D8004E
:1046E00019BC85E080932C030E945C1F8091E1003F
:1046F00084FF29C08091E20084FF25C080E189BD4C
:1047000082E189BD09B400FEFDCF8091D8008F7D84
:104710008093D8008091E1008F7E8093E1008091AA
:10472000E2008F7E8093E2008091E20081608093BE
:10473000E20080912803882309F449C084E0809333
:104740002C030E94651F8091E10083FF29C08091A6
:10475000E20083FF25C08091E100877F8093E10024
:1047600082E080932C03109228038091E1008E7FD9
:104770008093E1008091E2008E7F8093E20080913F
:10478000E20080618093E20042E060E080E00E940D
:104790001C228091F00088608093F0000E94591FD5
:1047A000FF91EF91BF91AF919F918F917F916F9109
:1047B0005F914F913F912F910F900FBE0F901F90DF
:1047C000189519BC10922C030E94561F72CF80912D
:1047D000E30087FF02C083E0B2CF81E0B0CF1F9239
:1047E0000F920FB60F921124FF920F931F932F93E6
:1047F0003F934F935F936F937F938F939F93AF9369
:10480000BF93CF93DF93EF93FF9309EE10E0F8018E
:104810008081C091EC00C795CC27C7958F70FC2E86
:10482000F82A1082C0EFD0E08881877F888378944F
:104830000E943824F8011082888188608883CF2DF7
:10484000CF70C083FF91EF91DF91CF91BF91AF9176
:104850009F918F917F916F915F914F913F912F9198
:104860001F910F91FF900F900FBE0F901F90189502
:10487000AAE2B0E0EEE3F4E20C94D5258DE293E0F9
:10488000FC0101962091F100208323E085339207FB
:10489000B9F70E94851F8091E80083FF38C080919E
:1048A0002D0390912E039A3090F5E92FF0E0EE530E
:1048B000F94D0C94C025803889F0823841F58091FB
:1048C00031038F70873018F58093E9008091EB00F9
:1048D00085FB882780F91092E90006C080912903A2
:1048E00090912A03911182609091E800977F9093B4
:1048F000E8008093F1001092F1008091E8008E773B
:1049000023C0811116C080912F03813011F1809155
:10491000E80083FF0AC08091E800877F8093E80069
:104920008091EB0080628093EB00AA96E3E00C9408
:10493000F125823061F780912F03882389F010924E
:10494000E9008091E800877F8093E8000E94502270
:10495000DECF81E0933009F080E080932A03EFCF2F
:10496000809131038F702FEF280F263080F68093CF
:10497000E9002091EB0020FFE2CF933031F48091E9
:10498000EB0080628093EB00DACF9091EB009061B6
:104990009093EB0021E030E0A90102C0440F551FC5
:1049A0008A95E2F74093EA001092EA008091EB00CA
:1049B0008860E8CF8111ABCF10912F031F778091D2
:1049C000E3008078812B8093E3008091E800877F6B
:1049D0008093E8000E9450228091E80080FFFCCF85
:1049E0008091E30080688093E30083E0111101C0AF
:1049F00082E080932C038BCF8058823008F087CFE1
:104A000080912F03909130038C3D53E0950799F5E9
:104A100083E08A838AE289834FB7F894DE01139694
:104A200020E03EE051E2E32FF0E050935700849104
:104A300020FF03C082958F703F5F8F708A30C8F06F
:104A4000895C90E08D939D932F5F243161F74FBF78
:104A50008091E800877F8093E8006AE270E0CE01F1
:104A600001960E9467218091E8008B778093E8008F
:104A70004ECF805DE6CF6091310370913203AE017D
:104A80004F5F5F4F0E948520BC01892B09F43FCF07
:104A90008091E800877F8093E80089819A810E9455
:104AA000C121E1CF803809F032CF8091E800877FC3
:104AB0008093E800809128038093F1001ECF81113C
:104AC00026CF90912F03923008F021CF8091E800FB
:104AD000877F8093E800909328030E945022809162
:104AE0002803882331F084E080932C030E94701FF8
:104AF0000ECF8091E30087FDF6CF81E0F5CF0895DA
:104B0000CF9380912C03882399F08091E900C09184
:104B1000EC00C795CC27C7958F70C82B1092E90081
:104B20008091E80083FD0E943824CF70C093E90093
:104B3000CF9108950E94A02210922C030895E8EDD1
:104B4000F0E08081806180838AE18A95F1F700C07E
:104B50008091D9008170089597FB072E16F4009478
:104B600007D077FD09D00E94FD2507FC05D03EF453
:104B7000909581959F4F0895709561957F4F089509
:104B8000EE0FFF1F0590F491E02D09942F923F92B4
:104B90004F925F926F927F928F929F92AF92BF924D
:104BA000CF92DF92EF92FF920F931F93CF93DF93F9
:104BB000CDB7DEB7CA1BDB0B0FB6F894DEBF0FBE56
:104BC000CDBF09942A88398848885F846E847D84A3
:104BD0008C849B84AA84B984C884DF80EE80FD80A5
:104BE0000C811B81AA81B981CE0FD11D0FB6F8941B
:104BF000DEBF0FBECDBFED010895AA1BBB1B51E167
:104C000007C0AA1FBB1FA617B70710F0A61BB70B3C
:104C1000881F991F5A95A9F780959095BC01CD01E1
:104C20000895FB01DC0104C08D910190801921F4ED
:104C300041505040C8F7881B990B0895FB01DC01D7
:104C400002C001900D9241505040D8F70895F99953
:104C5000FECF92BD81BDF89A992780B50895A8E14D
:104C6000B0E042E050E00C946B26DC01A40FB51FCD
:104C70004150504048F0CB01840F951F2E910E9467
:104C8000462641505040D0F70895262FF999FECF7F
:104C900092BD81BDF89A019700B4021639F01FBA8F
:104CA00020BD0FB6F894FA9AF99A0FBE08950396AC
:104CB000272F0E9446260E944526252F0E94462621
:104CC000242F0C9446260196272F0E9446260C94EA
:104CD0004526DC01CB01FC01F999FECF06C0F2BDEF
:104CE000E1BDF89A319600B40D9241505040B8F7AA
:104CF0000895F894FFCFC005C005070607066C06A7
:104D00008906EF05EF058E060507160716075A16E2
:104D1000CE1662162C163016661634166A167616DD
:104D20004016C71644167A1648167E16A6164C1656
:104D30008216AD1652168816901638166E163C1648
:104D4000721656168C169C16B616C51626165E16C4
:104D5000D516941797179D17B217B217B217B21737
:104D6000B217B217B217B217A017A517A917AF1726
:104D7000C017C617CA17A71AAD1A971AA11AB31ADD
:104D8000B91ABF1A5B248124872481248724DA245A
:084D9000FC24872452255F2555
:104D98005E0293929194323331F7F6F5F4366697C2
:104DA800C634350100000001000000000000000CBE
:104DB80001000000040D0000000000002808500158
:104DC8001E0A14010101FB1E311FFE1E2A1F231F8C
:104DD80001E200E900EA00B500B600B700CD0083A3
:104DE80001CC008A019201940121022302240225A8
:104DF80002260227022A02B300B4006F0070009F47
:104E080001CB019F02A002E200E900EA00B500B66A
:104E180000B700CD008301CC008A019201940121E2
:104E280002230224022502260227022A02B300B422
:104E3800006F0070009F01CB019F02A0023536323F
:104E48003331F7009291946697C63493F6F5F400DF
:024E58009402C2
:00000001FF
